:020000040800F2
:1000000030100020DD890008655E0008E7890008DF
:10001000675E00086B5E00086F5E0008000000006D
:10002000000000000000000000000000735E0008F7
:10003000755E000800000000F3890008775E000884
:10004000F7890008F7890008F7890008F789000890
:10005000F7890008F7890008F7890008F789000880
:10006000F7890008F7890008F7890008F789000870
:10007000F7890008F7890008F7890008F789000860
:10008000F7890008F7890008F7890008F789000850
:10009000F7890008F7890008F7890008F789000840
:1000A000F7890008F7890008F7890008F789000830
:1000B000F7890008F7890008F7890008F789000820
:1000C000F7890008F7890008F7890008F789000810
:1000D000F78900087F5E0008F7890008815E000844
:1000E000F7890008F7890008F789000800F002F88E
:1000F00000F03CF80AA090E8000C82448344AAF186
:100100000107DA4501D100F031F8AFF2090EBAE883
:100110000F0013F0010F18BFFB1A43F0010318473B
:10012000D4AF0000F4AF0000103A24BF78C878C103
:10013000FAD8520724BF30C830C144BF04680C60ED
:10014000704700000023002400250026103A28BF35
:1001500078C1FBD8520728BF30C148BF0B60704739
:100160001FB508F05FFC1FBD10B510BD08F080FC86
:100170001146FFF7F5FF00F009F808F09EFC03B404
:10018000FFF7F2FF03BC08F09FFC000004F055F8F5
:10019000064803F04FF8064801F059FE054802F002
:1001A000D5F901E003F072FBFCE700004A000020F3
:1001B00010020020FC0400200122C272704710B51A
:1001C0000446607B00B338480078401C364908700C
:1001D00008460078012804D0052809D00A2812D141
:1001E0000DE0324804F0DCFD304804F0E1FD0AE0A7
:1001F0002E4804F0E5FD2D4804F0EAFD03E0002060
:100200002949087000BF49E0607AE0B1207BD0B98D
:1002100025480078401C24490870084600780128C9
:1002200004D0142806D028280CD107E01F4804F079
:10023000B7FD07E01D4804F0C3FD03E000201A49A4
:10024000087000BF2AE0607A10B3207B00B3184822
:100250000078401C1649087008460078012804D030
:10026000142809D0282812D10DE0104804F098FD78
:100270000E4804F0ADFD0AE00C4804F0A1FD0B4867
:1002800004F096FD03E000200949087000BF05E076
:10029000064804F085FD054804F08AFD10BD00B550
:1002A0000448FFF789FF00BD000000206C0000201B
:1002B00001000020C400002070B504460E4615461B
:1002C0002A4604F10F01FE4805F058FA70BD2DE9E9
:1002D000F04104460D461646AA20E073AA21217477
:1002E000EF2161740221A174E574267500270020B6
:1002F00006E004F10F01095C3944CFB2411CC8B2D9
:100300000628F6DB6775082204F10F012046FFF787
:10031000D3FFBDE8F0812DE9F04F87B005460C46CC
:100320001646002701200690002004E0215C394495
:10033000CFB2411CC8B2711E8142F7DCA01910F87F
:10034000010CB84202D007B0BDE8F08F2078AA288F
:1003500002D16078AF2800D0F5E70021D94881723A
:10036000A078012811D12079012801D1D64908703F
:100370002079022802D10120D3494870207903282E
:1003800003D10120D04908704870A078022816D106
:100390002079012805D128716871A871E871287247
:1003A00068722079A02801D1012028702079A12825
:1003B00005D1C64801F0BAFAC54802F022FEA0787D
:1003C00003287CD12079617941EA0020C149C880A5
:1003D000A079E17941EA0020BE498880207A617ADB
:1003E00041EA0020BB490880A07AE17A41EA002076
:1003F000B8494880207B617B41EA0020B5490881EB
:10040000A07BE17B41EA0020B2494881207C617CED
:1004100041EA0020AF498881A07CE17C41EA0020CC
:10042000AC49C8810698002861D008460088A0F22F
:10043000DC5908464088A0F2DC58A749886803F0D8
:10044000E0FA029008F038FE824648460AF080FA48
:10045000834651460AF0DCFA9F490490886803F00D
:10046000D0FA019009F0F8F9834640460AF070FA94
:10047000594602900AF0CCFA824698490AF0F6FBF7
:10048000039004990AF094F805900AF041FA914912
:1004900008809149886803F0B4FA029009F0DCF909
:1004A000049048460AF054FA039004990AF0B0FA0E
:1004B00089490590886803F0A4FA019000E016E0ED
:1004C00008F0FAFD039040460AF042FA02900399C0
:1004D0000AF09EFA814904900AF06AF88346059969
:1004E0000AF066F882460AF013FA7A494880A07842
:1004F00010287DD12179090209B2627941EA02000E
:100500000AF026FA824676490AF0C6F86F49086072
:10051000A179090209B2E27941EA02000AF018FA67
:1005200082466F490AF0B8F868494860217A0902A2
:1005300009B2627A41EA02000AF00AFA8246684980
:100540000AF0AAF861498860A17A090209B2E27A40
:1005500041EA02000AF0FCF9824661490AF09CF87F
:100560005A49C861217B090209B2627B41EA020053
:100570000AF0EEF982465A490AF08EF853490862A9
:10058000A17B090209B2E27B41EA02000AF0E0F92C
:10059000824653490AF080F84C494862217C09029E
:1005A00009B2627C41EA02000AF0D2F982464C4963
:1005B0000AF072F845498863A17C090209B2E27C1D
:1005C00041EA02000AF0C4F9824645490AF064F89B
:1005D0003E49C863217D090209B2627D41EA0200F9
:1005E0000AF0B6F982463E490AF056F8374900E06B
:1005F00005E00864A1783A462846FFF768FEA0782F
:1006000011286FD12179090209B2627941EA020009
:100610000AF09EF9824632490AF03EF82B494865B5
:10062000A179090209B2E27941EA02000AF090F9DF
:1006300082462B490AF030F824498865217A09025C
:1006400009B2627A41EA02000AF082F9824624493C
:100650000AF022F81D49C865A17A090209B2E27AB6
:1006600041EA02000AF074F982461D490AF014F8C2
:1006700016490867217B090209B2627B41EA020040
:100680000AF066F9824616490AF006F80F494867EB
:10069000A17B090209B2E27B41EA02000AF058F9A3
:1006A00082460F4909F0F8FF08498867217C090252
:1006B00009B2627C41EA02000AF04AF9824612E07D
:1006C0009C060020C40000201C0600201801002009
:1006D0004A000020D0050020100200200080BB440A
:1006E00000007A4428E0FE4909F0D6FFFD49C1F830
:1006F0008C00A17C090209B2E27C41EA02000AF006
:1007000027F98246F64909F0C7FFF649C1F890007B
:10071000217D090209B2627D41EA02000AF018F95E
:100720008246EF4909F0B8FFEE49C1F89400A1787C
:100730003A462846FFF7CBFDA078122834D121791C
:10074000090209B2627941EA02000AF001F982461F
:10075000E34909F0A1FFE349C1F8A800A179090222
:1007600009B2E27941EA02000AF0F2F88246DC4975
:1007700009F092FFDB49C1F8AC00217A090209B205
:10078000627A41EA02000AF0E3F88246D44909F0AD
:1007900083FFD449C1F8B000A1783A462846FFF754
:1007A00096FDD14802F02DFCA078132804D1A17841
:1007B0003A462846FFF78BFDA078142804D1A1788B
:1007C0003A462846FFF783FDA078152804D1A17882
:1007D0003A462846FFF77BFD00BFB4E510B5044656
:1007E000C24805F048F810BD2DE9FC5F04460E46EE
:1007F00017469846DDE90CAB0025AA2229466D1C58
:1008000004F10F00425429466D1C425406F10F00BA
:10081000C2B229466D1C04F10F0042540022294641
:100820006D1C4254AE4938460AF0F2F800900AF0C6
:1008300029F800B201909DF8052029466D1C04F1AD
:100840000F0042549DF8042029466D1C4254A449CF
:1008500040460AF0DDF800900AF014F800B201906A
:100860009DF8052029466D1C04F10F0042549DF8A7
:1008700004202846691CCDB204F10F010A5498499E
:1008800050460AF0C5F8009009F0FCFF00B2019054
:100890009DF805202846691CCDB204F10F010A54C9
:1008A0009DF804202846691CCDB204F10F010A54BA
:1008B0008B4958460AF0ACF8009009F0E3FF00B20B
:1008C00001909DF805202846691CCDB204F10F0166
:1008D0000A549DF804202846691CCDB204F10F018A
:1008E0000A547F490E980AF093F8009009F0CAFF65
:1008F00000B201909DF805202846691CCDB204F194
:100900000F010A549DF804202846691CCDB204F159
:100910000F010A5472490F980AF07AF8009009F012
:10092000B1FF00B201909DF805202846691CCDB2A8
:1009300004F10F010A549DF804202846691CCDB229
:1009400004F10F010A54664910980AF061F800900A
:1009500009F098FF00B201909DF805202846691C17
:10096000CDB204F10F010A549DF804202846691CF9
:10097000CDB204F10F010A54594911980AF048F810
:10098000009009F07FFF00B201909DF805202846F5
:10099000691CCDB204F10F010A549DF804202846C9
:1009A000691CCDB204F10F010A544D4912980AF0A6
:1009B0002FF8009009F066FF00B201909DF8052025
:1009C0002846691CCDB204F10F010A549DF8042099
:1009D0002846691CCDB204F10F010A54281FA074E7
:1009E0004FF00009002007E004F10F01095C4944C1
:1009F00001F0FF09411CC8B2A842F5DB2846691C7A
:100A0000CDB204F10F0101F800902A462046FFF70D
:100A100053FCBDE8FC9F2DE9F84304460E461746FB
:100A20000025AA2229466D1C04F10F0042542946D4
:100A30006D1C4254052229466D1C42540022294651
:100A40006D1C425400969DF8012029466D1C4254AD
:100A50009DF8002029466D1C425400979DF8012006
:100A600029466D1C42549DF800202846691CCDB2D1
:100A700004F10F010A54281FA0744FF00008002051
:100A800007E004F10F01095C414401F0FF08411C3B
:100A9000C8B2A842F5DB2846691CCDB204F10F01AB
:100AA00001F800802A462046FFF706FCBDE8F883DF
:100AB0007FB504460025AA2229466D1C04F10F00CB
:100AC000425429466D1C4254062229466D1C42544C
:100AD000002229466D1C42549DF80520294607E056
:100AE00000007A44180100204A0000209C060020E3
:100AF0006D1C42549DF8042029466D1C42549DF8FB
:100B0000092029466D1C42549DF808202846691C7E
:100B1000CDB204F10F010A549DF80D202846691C3E
:100B2000CDB204F10F010A549DF80C202846691C2F
:100B3000CDB204F10F010A549DF821202846691C0A
:100B4000CDB204F10F010A549DF820202846691CFB
:100B5000CDB204F10F010A549DF825202846691CE6
:100B6000CDB204F10F010A549DF824202846691CD7
:100B7000CDB204F10F010A549DF829202846691CC2
:100B8000CDB204F10F010A549DF828202846691CB3
:100B9000CDB204F10F010A549DF82D202846691C9E
:100BA000CDB204F10F010A549DF82C202846691C8F
:100BB000CDB204F10F010A549DF831202846691C7A
:100BC000CDB204F10F010A549DF830202846691C6B
:100BD000CDB204F10F010A54281FA0740026002092
:100BE00006E004F10F01095C3144CEB2411CC8B2E9
:100BF000A842F6DB2846691CCDB204F10F010E5461
:100C00002A462046FFF758FB7FBD7FB504460025E6
:100C1000AA2229466D1C04F10F00425429466D1C7E
:100C20004254032229466D1C4254002229466D1C61
:100C300042549DF8052029466D1C42549DF804201D
:100C400029466D1C42549DF8092029466D1C4254CA
:100C50009DF808202846691CCDB204F10F010A5402
:100C60009DF80D202846691CCDB204F10F010A54ED
:100C70009DF80C202846691CCDB204F10F010A54DE
:100C80009DF821202846691CCDB204F10F010A54B9
:100C90009DF820202846691CCDB204F10F010A54AA
:100CA0009DF825202846691CCDB204F10F010A5495
:100CB0009DF824202846691CCDB204F10F010A5486
:100CC0009DF829202846691CCDB204F10F010A5471
:100CD0009DF828202846691CCDB204F10F010A5462
:100CE0009DF82D202846691CCDB204F10F010A544D
:100CF0009DF82C202846691CCDB204F10F010A543E
:100D00009DF831202846691CCDB204F10F010A5428
:100D10009DF830202846691CCDB204F10F010A5419
:100D20009DF835202846691CCDB204F10F010A5404
:100D30009DF834202846691CCDB204F10F010A54F5
:100D40009DF839202846691CCDB204F10F010A54E0
:100D50009DF838202846691CCDB204F10F010A54D1
:100D6000281FA0740026002006E004F10F01095C92
:100D70003144CEB2411CC8B2A842F6DB2846691CF9
:100D8000CDB204F10F010E542A462046FFF794FA23
:100D90007FBD2DE9F84304460E4617460025AA22DA
:100DA00029466D1C04F10F00425429466D1C425423
:100DB000072229466D1C4254002229466D1C4254CC
:100DC00000969DF8032029466D1C42549DF8022090
:100DD00029466D1C42549DF8012029466D1C425441
:100DE0009DF800202846691CCDB204F10F010A5479
:100DF00000979DF801202846691CCDB204F10F012F
:100E00000A549DF800202846691CCDB204F10F0158
:100E10000A54281FA0744FF00008002007E004F1D6
:100E20000F01095C414401F0FF08411CC8B2A8420F
:100E3000F5DB2846691CCDB204F10F0101F80080F2
:100E40002A462046FFF738FABDE8F8832DE9F84F27
:100E500004460E4617469846DDE90AAB0025AA224D
:100E600029466D1C04F10F00425429466D1C425462
:100E7000022229466D1C4254002229466D1C425410
:100E800000969DF8012029466D1C42549DF80020D3
:100E900029466D1C425400979DF8012029466D1C7F
:100EA00042549DF800202846691CCDB204F10F0180
:100EB0000A54CDF800809DF801202846691CCDB267
:100EC00004F10F010A549DF800202846691CCDB298
:100ED00004F10F010A54CDF800A09DF80120284626
:100EE000691CCDB204F10F010A549DF80020284678
:100EF000691CCDB204F10F010A54CDF800B09DF881
:100F000001202846691CCDB204F10F010A549DF856
:100F100000202846691CCDB204F10F010A540C9838
:100F200000909DF801202846691CCDB204F10F0104
:100F30000A549DF800202846691CCDB204F10F0127
:100F40000A540D9800909DF801202846691CCDB2E6
:100F500004F10F010A549DF800202846691CCDB207
:100F600004F10F010A540E9800909DF801202846C4
:100F7000691CCDB204F10F010A549DF800202846E7
:100F8000691CCDB204F10F010A540F9800909DF82E
:100F900001202846691CCDB204F10F010A549DF8C6
:100FA00000202846691CCDB204F10F010A54281F05
:100FB000A0744FF00009002007E004F10F01095C64
:100FC000494401F0FF09411CC8B2A842F5DB28469C
:100FD000691CCDB204F10F0101F800902A462046A9
:100FE000FFF76AF9BDE8F88F2DE9FE4F04460E467B
:100FF00017469846DDE90CAB0025CDF804A0AA22DF
:1010000029466D1C04F10F00425429466D1C4254C0
:10101000012229466D1C4254002229466D1C42546F
:10102000FE49304609F0F4FC009009F02BFC00B2B8
:1010300002909DF8092029466D1C04F10F004254CE
:101040009DF8082029466D1C4254F449384609F0A1
:10105000DFFC009009F016FC00B202909DF8092018
:1010600029466D1C04F10F0042549DF808202846C3
:10107000691CCDB204F10F010A54E849404609F059
:10108000C7FC009009F0FEFB00B202909DF8092019
:101090002846691CCDB204F10F010A549DF80820BE
:1010A0002846691CCDB204F10F010A549DF80720AF
:1010B0002846691CCDB204F10F010A549DF80620A0
:1010C0002846691CCDB204F10F010A549DF8052091
:1010D0002846691CCDB204F10F010A549DF8042082
:1010E0002846691CCDB204F10F010A542846691C38
:1010F000CDB204F10F0101F800B029466A1CD5B247
:1011000004F10F020E985054281FA0744FF00009EC
:10111000002007E004F10F01095C494401F0FF09D8
:10112000411CC8B2A842F5DB2846691CCDB204F1C7
:101130000F0101F800902A462046FFF7BDF8BDE8F0
:10114000FE8F2DE9FF4104460E460025AA222946BE
:101150006D1C04F10F00425429466D1C42540022BC
:1011600029466D1C425429466D1C425429466D1C6B
:1011700046549DF8092029466D1C42549DF80820CC
:1011800029466D1C42549DF80D202846691CCDB29D
:1011900004F10F010A549DF80C202846691CCDB2B9
:1011A00004F10F010A549DF829202846691CCDB28C
:1011B00004F10F010A549DF828202846691CCDB27D
:1011C00004F10F010A549DF82D202846691CCDB268
:1011D00004F10F010A549DF82C202846691CCDB259
:1011E00004F10F010A54281FA0740027002006E014
:1011F00004F10F01095C3944CFB2411CC8B2A842C6
:10120000F6DB2846691CCDB204F10F010F542A46C3
:101210002046FFF751F8BDE8FF812DE9F04788B07F
:1012200004467F4800787F49097890FBF1F201FB82
:1012300012017C480078401E814201D10120A0703B
:10124000774800787849097890FBF1F201FB1201A8
:1012500075480078401E814201D10120E07070483D
:1012600000787249097890FBF1F201FB12016F4896
:101270000078401E814201D10120607368480078E7
:101280006B49097890FBF1F201FB12016848007884
:10129000401E814201D1012060706148007865499B
:1012A000097890FBF1F201FB120162480078401EC0
:1012B000814201D10120A072594800785E49097825
:1012C00090FBF1F201FB12015B480078401E814265
:1012D00001D101202073524800785849097890FBC9
:1012E000F1F201FB120155480078401E814201D104
:1012F0000120A0734A480078401C494908702078B2
:1013000068B1002020704FF4C8716E234FF49672BC
:10131000CDE9001001212046FFF713FF44E160787A
:10132000A8B1002060704649086B09F0ABFA054689
:101330004448407A4349097BCDE900510290424834
:101340008368426801682046FFF74EFE2CE1607B0F
:1013500010B10020607327E1A07880B30020A07056
:101360003949486909F08EFA05B23749086909F028
:1013700089FA06B23449C86809F084FA07B23249DA
:10138000C86A09F07FFA0FFA80F82F49886A09F0D5
:1013900079FA0FFA80F92C49486A09F073FA0FFAC2
:1013A00080FA0020CDE90250049043464A46514657
:1013B000CDE9007605902046FFF748FDF4E0FFE711
:1013C000E078A0B10020E0701D48806800EBC00309
:1013D00003EB00104FF6FF7303EA800218484068E1
:1013E000642300FB03F12046FFF7D3FCDCE0A07A86
:1013F00098B10020A0721548408A1449098A134AFE
:10140000D289124B9B89CDE90332CDE905100F48F3
:10141000418900890D4A52881AE024E00000C84240
:10142000020000200300002009000020040000202A
:101430000500002006000020070000200800002012
:10144000FC040020C400002010020020D005002071
:10145000CDE900200291614803888288C188204636
:10146000FFF7D3FBA0E0207B80B30020207305A909
:101470005B4800F0E6FF00200AE005A931F81010F3
:10148000A1F57A7109B205AA22F81010411CC8B260
:101490000628F2DB0022BDF81E0080B2BDF81C1049
:1014A00089B2CDE9020204920191BDF81A0080B21E
:1014B0000090BDF8180083B2BDF8160082B2BDF8E6
:1014C000140081B22046FFF7F3FA6DE0FFE7A07B3E
:1014D00080B10020A07343494348006809F098FA9E
:1014E000064609F015FA85B2002229462046FFF784
:1014F00092FA59E02079E8B1002020713B48016C54
:10150000C06B3A4A926B394B5B6ACDE90332CDE945
:1015100005013648006A3549C969344A9268CDE9FF
:101520000021029031484368012102682046FFF7FC
:101530005BF939E06079F0B1002060712B48D0F898
:101540009420D0F89010D0F88C00284B9B6FCDE9F8
:101550000330CDE905122548416F006F234AD26D53
:10156000CDE9002002912148836D0221426D204681
:10157000FFF73AF918E0A079B0B10020A07103900C
:10158000049005900146024606901848D0F8B00035
:10159000CDE9012100901548D0F8AC300321D0F8F6
:1015A000A8202046FFF720F908B0BDE8F0871049D1
:1015B00009781E290CDD00210D4A11700D49897A28
:1015C00019B901220B498A7202E0002209494A72C4
:1015D00007490978491C064A11707047D005002058
:1015E000F00400200000C842600000201801002024
:1015F0000A000020C40000202DE9F04781460C4677
:1016000015462946C34809F003FA804641464FF083
:101610007E5009F041F80746214608F0C9FF06460A
:101620003146204609F038F8BDE8F0872DE9F84F3B
:101630000F4615461C462946B64809F0E9F9814689
:10164000394609F0E5F9804641464FF07E5009F0F1
:1016500023F806463146B04809F0DAF982463146A9
:10166000304609F0D5F98346514608F0A1FF81467E
:101670004FF07E5108F09CFF804641464FF07E506F
:1016800009F00AF820603146A34809F0C1F9834601
:101690003146304609F0BCF95946009008F088FF01
:1016A00082464FF07E5108F083FF804631469A48CB
:1016B00009F0AEF9314600904FF0804009F0A8F9EA
:1016C0008346314609F0A4F98246009908F070FF7C
:1016D0008146414608F0E0FF606031468E4809F0DF
:1016E00097F983463146304609F092F95946009001
:1016F00008F05EFF81464FF07E5108F059FF8046AA
:101700003146304609F084F98246414608F0C4FF6C
:10171000A060BDE8F88F2DE9F04107460D4614465C
:101720002146284608F044FF06463146204608F088
:10173000B3FFBDE8F0810FB4F0B58DB005460F469C
:101740001A9C224617A904A808F02EFB04A807C873
:1017500007AB07C321464FF07E5009F019FB064640
:10176000324614A901A808F01FFB01A807C80AAB5C
:1017700007C307AA0AA9284608F032FB0DB0F0BC3F
:101780005DF814FB0FB470B59EB005460E461446C6
:101790000FA8002181604160016000BF04F10C01CD
:1017A0000CA8A26808F000FB0CA807C812AB07C37E
:1017B00004F1180109A8626808F0F6FA09A807C838
:1017C00015AB07C325A906A8226808F0EDFA06A8FC
:1017D00007C818AB07C315AA18A903A808F000FB8F
:1017E00003A807C81BAB07C312AA1BA9684608F0C9
:1017F000A3FA9DE807000FAB07C3D4E90712A0695D
:10180000C4E90412E0600FA807C8C4E90712A06188
:101810000FA807C885E807001EB070BC5DF814FB70
:101820002DE9F05F83460C4615463C48A1680068E8
:1018300009F0EEF880463A486168006809F0E8F877
:1018400081462846216809F0E3F88246494608F0B7
:10185000AFFE0746414609F09BFA0646304800684D
:101860002E4908602E480660304609F00BF8BDE8A6
:10187000F09F2DE9F05F83460C4615462948A16884
:10188000006809F0C5F8804627486168006809F0DB
:10189000BFF881462846216809F0BAF882464946D1
:1018A00008F086FE0746414609F072FA06461E48D1
:1018B00000681C4908601C480660304608F0E2FFDA
:1018C000BDE8F09F0FB4F0B58DB005460F461A9CE9
:1018D00021464FF07E5009F05BFA0646324617A9C2
:1018E00004A808F061FA04A807C807AB07C322469A
:1018F00014A901A808F058FA01A807C80AAB07C341
:1019000007AA0AA9284608F06BFA0DB0F0BC5DF8EA
:1019100014FB0000DB0FC940000040401000002015
:101920000C000020180000201400002038B50446E8
:10193000F548F64BF64A11460090204607F007F9A5
:10194000F148F24BF24A1146009004F11C0007F0F6
:10195000FEF8ED480023EF4AEF49009004F138000B
:1019600007F0F5F8002003460246EC49009004F128
:10197000540007F0ECF80020034602464FF0804187
:10198000009004F1700007F0E2F8E548E54B4FF0F5
:101990007C524FF07F51009004F18C0007F0D7F893
:1019A000D94800231A46E049009004F1A80007F046
:1019B000CEF838BD10B5044607231C22DB4920466B
:1019C00007F0ECF8044604F1C40008F037F9A0F180
:1019D000C40404F1D00008F031F9A0F1D00404F1FE
:1019E000EC0008F02BF9A0F1EC04962004F8DC0FD1
:1019F000322060706420E082DC3C2046FFF796FFD6
:101A0000204610BD10B50446C949086B08F03AFFDE
:101A1000C4F8D80010BD2DE9F04188B0044603A8F1
:101A2000002181604160016000BFC2490868C2496D
:101A300008F0EEFF0746C149B1F9141048004FF411
:101A4000AF72514201F0C1FF804608F081FF0646A7
:101A5000394609F09DF9054608F014FF0690B5498E
:101A60004868B54908F0D4FF0746B449B1F91610E3
:101A700048004FF4AF72514201F0A7FF804608F0D2
:101A800067FF0646394609F083F9054608F0FAFE75
:101A900007900221069801F0A3FF06900221079803
:101AA00001F09EFF07904FF08142A249183168462D
:101AB00008F026F99DE8070003AB07C304F15400C2
:101AC000069901F07DFC074608F042FF064603999F
:101AD00009F05EF9054608F0D5FEC4F8E00004F10F
:101AE0005400079901F06CFC074608F031FF0646E8
:101AF000049909F04DF9054608F0C4FEE4210851A7
:101B000094F8DD008D49B1F9181000FB01F5E917D3
:101B100005EBD161481108F01BFF0746059909F054
:101B200037F9064608F0AEFEE821085108B0BDE8D6
:101B3000F0812DE9FF4705467E494868002109F0FC
:101B400033F802D27B48406803E07A48406880F06E
:101B50000040074677490868002109F025F802D2BD
:101B60007448006803E07348006880F000408046D5
:101B7000394609F019F80DD26E490868002109F0BC
:101B800013F802D26B48006811E06A48006880F0E0
:101B900000400CE067494868002109F005F802D2CE
:101BA0006448406803E06348406880F000400446B1
:101BB000634A002101F0CFFE064600241BE05F4887
:101BC000C08840F2E241884205DAC4EBC40105EB6B
:101BD000810001F02FFC05F1E00252F82410C4EB63
:101BE000C40205EB82004F4A01F0FAFB01A941F85B
:101BF0002400601CC4B2032CE1DB504BB3F9183055
:101C0000002B03DD4D4BB3F9183003E04B4BB3F918
:101C100018305B4203F59672484BB3F91830002B2D
:101C200003DD464BB3F9183003E0444BB3F91830E9
:101C30005B42444CE11A039801F0C7FE4042039016
:101C40004148007BD8B9304601F0DBFE824607F000
:101C500033FA80463949B1F91A10A1F57A7008F0C3
:101C600077FE8146414608F017FD0746374908F0E0
:101C70009FFC044608F006FE01B2304841832D491E
:101C8000C86A08F069FC07460022244B08F040FAB5
:101C90000FD22D48407A60B12D48006848B94FF402
:101CA000C8602C490880012029490860C8202A49B9
:101CB000086029480068C8280CD12648B0F90000FF
:101CC00040F24C41884205DD22480088401F00B2A6
:101CD00020490880204801680068401E1E4A1060A4
:101CE00011B9C820114608601948006848B1039826
:101CF00000901848008881B21848DDE9012300F0FF
:101D000083FABDE8FF877047000048430AD7A33C29
:101D10009A99193E6666E63ECDCC4C3F0000A04045
:101D2000000016436F12033B9A99993F5D8B0008A0
:101D3000FC0400201002002000002041D0050020FB
:101D40000000A041D4FEFFFFC400002000007A4440
:101D50001C0000202400002020000020F0040020AF
:101D6000704710B50148FFF725FE10BD180100208F
:101D700010B50446204600BF0446204607F02DFF5C
:101D8000044604F10C0007F028FFA0F10C0404F154
:101D9000180007F022FFA0F1180404F1240007F056
:101DA0001CFFA0F1240404F1300007F016FFA0F19D
:101DB000300404F13C0006F08EFEA0F13C0404F176
:101DC000600006F088FEA0F1600404F1880006F0CF
:101DD00091FEA0F1880404F5C87006F08BFEA0F512
:101DE000C87404F527704FF07E5101600021C16076
:101DF0008160416000BFA0F52774204610BD10B57A
:101E0000044662224FF47A71E84803F01FF810BDCF
:101E100010B50446E64AE7492046FFF7EDFBE649E0
:101E2000086004F13C03E24AE2492046FFF7FEFB6A
:101E300004F16003E14ADF492046FFF7F7FBE04A7F
:101E4000DC492046FFF767FCDB49486010BD10B550
:101E500004462046FFF7DCFF2046FFF7D0FF10BD09
:101E60003EB50446D14803F0C3F8D04803F093F9D7
:101E7000CE49684603F0F3F99DE80700C4E904126F
:101E8000E060CA49684603F0E3F99DE80700C4E949
:101E90000A1260623EBD3FB599B00446239DC94811
:101EA000007800F0010060B9C64806F089FE40B134
:101EB00000231A461946C44807F08BFEC148AFF309
:101EC000008020A807F07AFE0DA807F086FE0DA975
:101ED00004F5277001F0C6FE0AA807F07EFE0DAAE1
:101EE00020A907A807F098FF07A807C80AAB07C3EF
:101EF000B64A0AA907A807F057FF07A807C816ABF4
:101F000007C316A9B04807F085FE4FF080420AA922
:101F100007A807F049FF07A807C810AB07C310AA16
:101F20001AA904A807F05CFF04A807C813AB07C3ED
:101F3000A54A13A901A807F053FF01A807C81AABC7
:101F400007C32A461AA904F5277001F0FCFE04F520
:101F5000277001F0CDFD04F10803221D214604F590
:101F6000277002F082F81DB030BD2DE9F04782469F
:101F70000C4697490968601A08F0B6F80746954A72
:101F8000954B08F001F9054607F082FF814690481D
:101F900004604846BDE8F0872DE9F04395B004465B
:101FA0000EA807F0CDFD08A807F0CAFDD4E90A0184
:101FB000CDE9000104F13C02214605A8636AFFF760
:101FC000E1FB05A807C8C4E90D122063D4E90401A8
:101FD000CDE9000104F16002214605A8E368FFF79E
:101FE000D1FB05A807C8C4E90712A06104F13005B8
:101FF0002946284607F0BCFE8146784908F008FDCE
:1020000080464FF0974108F047FB074608F03AFC3E
:10201000C4F8AC0202F0DCF8054629462046FFF77A
:10202000A4FF0646206A0090604905A8D4E906236B
:1020300003F01CF90396D4E90D12206B8DE807001C
:10204000204605A90EC9FFF726FF15B0BDE8F083AD
:102050002DE9F0418CB080460C4603A807F05CFDEA
:10206000684607F0BAFD206801F0CBFC80F000451F
:10207000606801F0C6FC80F00046A06801F0C1FC79
:10208000074600950196029700BF694603A807F02E
:10209000BFFC04F1300203A9404607F0D8FD0CB0A4
:1020A000BDE8F0813FB59DB00446279D24A807F008
:1020B00085FD14A807F091FD0BA807F02DFD484AF7
:1020C0001EA908A807F08CFE08A807C817AB07C30D
:1020D0002A4617A905A807F067FE05A807C81AAB86
:1020E00007C34FF07C521AA902A807F05DFE02A8B0
:1020F00007C814AB07C33A481EA90EC90EC014A9DD
:102100000BA807F085FC374A0BA908A807F09FFD2C
:1021100029484068049024A807C801AB07C30A985F
:102120000090214605A8DDE90823FFF7CBFB2D48E9
:1021300005A90EC90EC021460C3807F009FD2A4A30
:102140000BA908A807F083FD1B484068049024A849
:1021500007C801AB07C30A980090214605A8DDE92E
:102160000823FFF7AFFB204805A90EC90EC0214682
:102170000C3807F017FD21B030BD10B51B48FFF734
:10218000F7FD00231A461946154807F022FD4FF0C7
:102190008B4300221146134807F01BFD00231A460B
:1021A0004FF08B41104807F014FD10BD1C060020B5
:1021B000000048426F12033BC400002000000243AD
:1021C0006666E63F2C000020E40400206F12833A8C
:1021D000280000208DEDB5A0F7C6B03E0000C84233
:1021E000C0040020CC040020D804002010020020ED
:1021F0000146002005E04FF47A7221F81020421CBD
:10220000D0B20628F7DB70472DE9F04F8FB00446B7
:102210000D4616469B46DDF86090484607F04DFF98
:10222000CDE90A01584607F048FF07468B4A8C4B18
:1022300007F0AAFFCDE90601304607F03EFF002275
:10224000884BCDE9000107F09FFF074688462846E6
:1022500007F04AFF3A464346CDE9020108F092F8FA
:10226000CDE90401DDE9062307F044FECDE90801CC
:10227000DDE90A2307F03EFECDE90C0107F0EEFE92
:1022800000B2A080484607F018FFCDE90A01584681
:1022900007F013FF0746714A714B07F075FFCDE950
:1022A0000601304607F009FF074600226D4B07F094
:1022B0006BFFCDE90201284607F016FFCDE90001CA
:1022C000DDE9022308F05EF8CDE90401DDE906232B
:1022D00008F058F8CDE90801DDE90A2307F00AFE05
:1022E000CDE90C0107F0BAFE00B26080484607F065
:1022F000E4FECDE90A01584607F0DFFE0746574ADB
:10230000574B07F041FFCDE90601304607F0D5FEF7
:102310000022544BCDE9000107F036FF07468846FE
:10232000284607F0E1FE3A464346CDE9020107F0B0
:10233000E1FDCDE90401DDE9062307F0DBFDCDE990
:102340000801DDE90A2308F01DF8CDE90C0107F0CA
:1023500085FE00B22080484607F0AFFECDE90A01B5
:10236000584607F0AAFE07463C4A3D4B07F00CFFD3
:10237000CDE90601304607F0A0FE07460022394BA2
:1023800007F002FFCDE90201284607F0ADFECDE9D6
:102390000001DDE9022307F0ADFDCDE90401DDE92F
:1023A000062307F0EFFFCDE90801DDE90A2307F076
:1023B000E9FFCDE90C0107F051FE00B2E080A81B57
:1023C000A0EB090000B26081A819484400B2208146
:1023D000B4F900A0012007E034F91010514501DDE7
:1023E00034F910A0411CC8B20628F5DB002719E01B
:1023F00040F6C410824507DD34F81710AAF6C41061
:10240000081A00B224F8170034F8171088B240F602
:10241000C4124FF47A7101F0CDFA00B224F817001B
:10242000781CC7B2062FE3DB0F48407A10B920466C
:10243000FFF7DEFE21460D4803F007FB0FB0BDE8B5
:10244000F08F02880A8042884A8082888A80C28807
:10245000CA8002890A8142894A81704783C0CAA121
:1024600045B6EB3F0000E03FC40000209300002091
:1024700010B50446204600BF044604F1100007F0E2
:10248000ACFBA0F1100404F11C0007F0A6FBA0F1C6
:102490001C0404F1280007F0A0FBA0F1280404F1BB
:1024A000340007F09AFBA0F1340404F1400007F077
:1024B00094FBA0F1400404F1500006F00CFBA0F1E5
:1024C000500404F1740006F006FBA0F1740404F15A
:1024D000B40007F082FBA0F1B4044FF082431A4627
:1024E000194604F1B40007F07DFBFE489834A06162
:1024F0004FF48020A062FC4844F89809FB499C20D6
:102500000151FB49A0200151FA49A4200151FA4987
:10251000A8200151F949AC200151204610BD10B549
:102520000446F74802F01AFF10BD10B5044604F146
:102530005003F44AF4492046FFF778F804F1740395
:10254000F24AF1492046FFF771F810BD10B5044674
:102550002046FFF7EAFF2046FFF7E1FF10BD01B577
:10256000AEB017A807F039FB14A807F036FBE8480F
:1025700000680A2803D0E748007802287DD10020AF
:10258000E44908705521E34803F004FC0020E049C9
:10259000086001F01DFEE0490968401A0F9007F03D
:1025A000A3FDDE4ADE4BCDE9100107F0EDFDCDE9DC
:1025B000120107F06DFC1A9001F00AFED64908607E
:1025C0002E98C068129008F0C3F9024613902E9915
:1025D00074312E98FFF74DF92E9988602E988068F7
:1025E000D0490968401A119008F0CAF912901A9956
:1025F00008F052F8139008F045F901B22E98418086
:102600002E988068C74908602E98B0F902004FF4F0
:10261000FA525142139001F0D8F901B22E9841803C
:102620002E98B0F902006421139001F0D9F901B29B
:102630002E9841802E98C068BA490968884205D111
:10264000B9480078401CB849087002E00021B6483B
:1026500001702E98C068B34908602E9880680028E1
:102660000FDD2E988068B0F57A7F0ADAAE480078E0
:102670001E2806DA01212E9800E006E080F8D0102E
:1026800003E000212E9880F8D010A1480068401C7B
:102690009F490860A5480068052803D1984802F0C2
:1026A00072FF09E2A14800680A28FAD101F090FD02
:1026B0009F490968401A0F9007F016FD974A984BFA
:1026C000CDE9100107F060FDCDE9120107F0E0FB54
:1026D0001A9001F07DFD9649086000219348016041
:1026E000874802F050FF864802F069FF129008F018
:1026F0002FF9024613902E9950312E98FFF790F83B
:102700002E9948602E984168D0F8C400081A11909C
:1027100008F01EF912901A9907F0BEFF139008F006
:10272000B1F801B22E9801802E984168C0F8C4100B
:102730002E98B0F900004FF448725142139001F006
:1027400044F901B22E9801802E98B0F900000A21B8
:10275000139001F045F901B22E9801802E9890F85F
:10276000D00000287ED02E98B0F90200119008F019
:10277000EFF812902E98406A01461190129808F0D6
:1027800007FB1390169801461290139807F010FF5C
:1027900016902E98D0F8A000014608904FF07E5079
:1027A00008F0F6FA099007F0D7FECDE90C012E9853
:1027B000B0F90200079007F080FC5E4A5E4BCDE95D
:1027C000080107F0E1FCCDE90A01DDE90C2307F07F
:1027D000DBFCCDE910012E98D0F8A0000C902E98CB
:1027E000406A0B900C9908F013F90D9007F0B4FEB5
:1027F000CDE90E01DDE9102307F07CFBCDE91201E4
:1028000007F046FB01462E9841622E98D0F8AC00A6
:10281000014608904FF07E5008F0BAFA099007F090
:102820009BFECDE90C012E988068079007F045FCCF
:10283000404A414BCDE9080107F0A6FCCDE90A0169
:10284000DDE90C2307F0A0FCCDE910012E98D0F8AB
:10285000AC000C902E98006B0B900C9908F0D8F8F7
:102860000D9000E07AE007F077FECDE90E01DDE99A
:10287000102307F03FFBCDE9120107F009FB0146E9
:102880002E9801632E984068039007F016FCCDE95E
:1028900006012E988068019007F00FFC254A264B10
:1028A000CDE9020107F070FCCDE90401DDE9062362
:1028B00007F068FDCDE9080107F0EAFA0B9007F090
:1028C0004BFE1E4A1E4BCDE90C0107F05DFCCDE925
:1028D00010012E98D0F8CC000D9007F0EEFBCDE95A
:1028E0000E012FE0FFCF743ECDCC4C3F52B87E3F5F
:1028F000A4707D3F0AD7A33BF6287C3F3333733F58
:10290000740600200000A0400AD7A33C0000484203
:102910003400002094000020400000208DEDB5A080
:10292000F7C6B03E440000204800002030000020E0
:102930003C0000209A9999999999B93FFCA9F1D244
:102940004D62503FDDE9102307F0D4FACDE91201C2
:1029500007F084FB2E99C1F8CC00ADE02E98B0F9B9
:102960000000119007F0F4FF12902E98406A014683
:102970001190129808F00CFA1390169801461290D4
:10298000139807F015FE16902E98D0F8A400119019
:1029900016981090119908F03BF813902E98D0F8E3
:1029A0009C0001460D904FF07E5008F0F1F90F9019
:1029B0002E98B0F900000D9007F0CAFF0E900F9905
:1029C00008F026F811902E98D0F89C000F902E98C1
:1029D000406A0E900F9908F01BF81090119907F0BB
:1029E000E7FD1290139907F0E3FD01462E9841622E
:1029F0002E98D0F8A80001460F904FF07E5008F0B6
:102A0000C7F911902E984168D0F8CC0008440F9077
:102A100007F09EFF1090119907F0FAFF13902E987F
:102A2000D0F8A80011902E98006B1090119907F023
:102A3000EFFF1290139907F0BBFD01462E9801633A
:102A40002E984068109007F083FF11902E98006B2D
:102A500001461090119808F09BF90021129008F09F
:102A6000A3F80DD22E984068119007F071FF1290D4
:102A70002E98006B01461190129808F089F90EE02B
:102A80002E984068119007F063FF12902E98006B0B
:102A900001461190129808F07BF980F000409A49A5
:102AA000139008F081F807D22E984068139007F031
:102AB0004FFF01462E98016394480068401C9349DB
:102AC000086001F085FB92490968401A0F9007F0F1
:102AD0000BFB904A904BCDE9100107F055FBCDE977
:102AE000120107F0D5F91A9001F072FB88490860CD
:102AF0008A4911A8FFF7ACFA11A807C817AB07C39A
:102B00008748407A08BB2E98D0F8C000C1171390B0
:102B100000EB916081112E98D0F8C000411A2E98D8
:102B2000C0F8C0102E98D0F8C000119007F010FF28
:102B30001290199801461190129807F039FD1390E0
:102B400007F0A0FE2E99C1F8C0002E98D0F8C00062
:102B5000C117139000EB91608011119007F0F8FEFF
:102B60001290199801461190129808F07FF8199068
:102B70002E98D0F8B4000F9007F084FE11901798AB
:102B80000F9007F07FFE1090119900F029FF12902E
:102B900007F0DEFE13902E98D0F8B0000146129098
:102BA000139807F035FF2E9908612E98D0F8B800D9
:102BB0000F9007F067FE119018980F9007F062FED3
:102BC0001090119900F00CFF129007F0C1FE80F0F8
:102BD000004013902E98D0F8B00001461290139840
:102BE00007F016FF01462E9841612E98D0F8BC00E0
:102BF0000F9007F047FE119019980F9007F042FED2
:102C00001090119900F0ECFE129007F0A1FE1390C5
:102C10002E98D0F8B00001461290139807F0F8FEF5
:102C200001462E9881612E9A40322E991C3111A8AE
:102C300007F0D6F811A807C824AB07C324A90EA82B
:102C40001A9A07F0B1F80EA807C827AB07C34FF0D0
:102C50007C5227A90BA807F0A7F80BA807C82AAB36
:102C600007C32AA92E98283006F0D4FF2E98D0E961
:102C70000823C16940300EC02E9A34322E9910318B
:102C800011A807F0ADF811A807C81BAB07C31BA913
:102C90000EA81A9A07F088F80EA807C81EAB07C33B
:102CA0004FF07C521EA90BA807F07EF80BA807C8AE
:102CB00021AB07C321A92E981C3006F0ABFF2E983C
:102CC000D0E90523016934300EC02FB000BD10B526
:102CD000044600231A46194604F1100006F082FF4C
:102CE00000231A46194604F11C0006F07BFF00235E
:102CF0001A46194604F1280006F074FF10BD10B5FD
:102D00000848FFF7B5FB10BD000048433000002025
:102D1000380000208DEDB5A0F7C6B03E10020020AF
:102D2000C4000020FC04002010B50446FE490888B9
:102D3000FE49098801F01AFE10BD1CB50446FA4987
:102D40000889694601F06DFCF74948890DF10201D7
:102D500001F067FCF449888901A901F062FCBDF823
:102D6000000000B2F2490881BDF8020001B2F0484B
:102D70004181BDF8040001B2ED4881811CBD1CB544
:102D80000446E9494888694601F04BFCE6498888D1
:102D90000DF1020101F045FCE349C88801A901F0E9
:102DA00040FCBDF8000000B2E1494880BDF80200D7
:102DB00001B2DF488180BDF8040001B2DC48C18067
:102DC0001CBD38B50446D849C889694601F029FCBC
:102DD000BDF8000007F0D4FD0546D64907F05CFCBD
:102DE000D5490860D049088A694601F01AFCBDF847
:102DF000000007F0C5FD0546CE4907F04DFCCE4961
:102E00004860C949488A694601F00BFCBDF80000DA
:102E100007F0B6FD0546C94907F03EFCC649886083
:102E2000C149888A694601F0FCFBBDF8000007F043
:102E3000A7FD0546BF4907F02FFCBF49C861BA4945
:102E4000C88A694601F0EDFBBDF8000007F098FD67
:102E50000546B84907F020FCB7490862B249088B1B
:102E6000694601F0DEFBBDF8000007F089FD05466C
:102E7000B24907F011FCB0494862AB49488B69463A
:102E800001F0CFFBBDF8000007F07AFD0546A94927
:102E900007F002FCA8498863A349888B694601F0C2
:102EA000C0FBBDF8000007F06BFD0546A14907F027
:102EB000F3FBA149C8639C49C88B694601F0B1FB8B
:102EC000BDF8000007F05CFD05469C4907F0E4FBF7
:102ED000994908649449088C694601F0A2FBBDF841
:102EE000000007F04DFD0546924907F0D5FB9249D9
:102EF000C1F8A8008C49488C694601F092FBBDF8E6
:102F0000000007F03DFD05468A4907F0C5FB8A49E8
:102F1000C1F8AC008449888C694601F082FBBDF899
:102F2000000007F02DFD0546844907F0B5FB8249F6
:102F3000C1F8B0007C49C88C694601F072FBBDF84D
:102F4000000007F01DFD05467A4907F0A5FB7A4908
:102F500048657549088D694601F063FBBDF80000BE
:102F600007F00EFD0546734907F096FB7249886528
:102F70006D49488D694601F054FBBDF8000007F02B
:102F8000FFFC05466D4907F087FB6B49C86566493C
:102F9000888D694601F045FBBDF8000007F0F0FCA4
:102FA0000546644907F078FB634908675E49C88DA8
:102FB000694601F036FBBDF8000007F0E1FC05466C
:102FC0005C4907F069FB5C4948675749088E6946C8
:102FD00001F027FBBDF8000007F0D2FC0546574979
:102FE00007F05AFB5449886738BD10B5044620469F
:102FF000FFF7E7FE2046FFF7C2FE2046FFF79DFEE3
:1030000010BD70B505464C4908684A4907F000FDF7
:10301000064607F07DFC84B24349C889214601F089
:10302000A5FC45494868434907F0F2FC064607F00D
:103030006FFC84B23C49088A214601F097FC3E4966
:1030400088683E4907F0E4FC064607F061FC84B25C
:103050003549488A214601F089FC3749C869354914
:1030600007F0D6FC064607F053FC84B22E49888A46
:10307000214601F07BFC3049086A2E4907F0C8FC64
:10308000064607F045FC84B22749C88A214601F06C
:103090006DFC2949486A294907F0BAFC064607F041
:1030A00037FC84B22049088B214601F05FFC22499D
:1030B000886B204907F0ACFC064607F029FC84B277
:1030C0001949488B214601F051FC1B49C86B19492D
:1030D00007F09EFC064607F01BFC84B21249888B61
:1030E000214601F043FC1449086C144907F090FC98
:1030F000064607F00DFC84B20B49C88B214601F04F
:1031000035FC0D49D1F8A8000A4907F081FC0646B4
:1031100007F0FEFB84B20449088C214601F026FC2E
:103120000549D1F8AC000BE062AF00084C0000206C
:103130001C0600200000C8421801002000007A444C
:103140005E4907F065FC064607F0E2FB84B25C4985
:10315000488C214601F00AFC5A49D1F8B0005A497E
:1031600007F056FC064607F0D3FB84B25449888C1E
:10317000214601F0FBFB5349486D504907F048FCDC
:10318000064607F0C5FB84B24D49C88C214601F0C4
:10319000EDFB4C49886D494907F03AFC064607F0BB
:1031A000B7FB84B24649088D214601F0DFFB454953
:1031B000C86D454907F02CFC064607F0A9FB84B210
:1031C0003F49488D214601F0D1FB3E49086F3B49FC
:1031D00007F01EFC064607F09BFB84B23849888D39
:1031E000214601F0C3FB3749486F344907F010FC12
:1031F000064607F08DFB84B23149C88D214601F0A7
:10320000B5FB3049886F304907F002FC064607F0ED
:103210007FFB84B22A49088E214601F0A7FB70BDCE
:1032200038B5044626490888694601F0FAF9BDF820
:10323000000038BD10B504462046FFF7F1FF2349D2
:103240000988884202D02046FFF7DBFE2046FFF7C0
:10325000CCFE2046FFF768FD10BD10B504461C4AA1
:10326000528891B2164A508801F080FB184A928821
:1032700091B2134A908801F079FB154AD28891B235
:103280000F4AD08801F072FB10BD10B50446104AF9
:10329000128991B20A4A108901F068FB0C4A5289DE
:1032A00091B2074A508901F061FB094A928991B2B3
:1032B000034A908901F05AFB10BD00000000C8428B
:1032C00062AF00081801002000007A444C00002082
:1032D0001C0600202DE9F05F04460E46174600212B
:1032E000A06807F09BFA3AD00021384607F096FA1A
:1032F00035D0A06920F00041C1F1FF41C90F19B1DB
:1033000000250020A06108E06169701A07F020FB29
:103310008046394607F0C0F905462846A16907F0FE
:1033200037FD82463946454807F042F983465946FB
:10333000384607F0B1F98146514607F069FB8046EF
:10334000A16907F035F905466661A5612946A068BF
:1033500007F05EFB804607F095FABDE8F09F00207D
:10336000FBE72DE9F04704460E461546002160684C
:1033700007F054FA22D00021284607F04FFA1DD05A
:10338000304607F0E5FA8146616807F041FB804668
:10339000294607F03DFB0746216907F009F920613E
:1033A000E06880F0004702463946206900F0D3FA11
:1033B0002061206907F066FABDE8F0870020FBE78E
:1033C0002DE9F04104460D46284607F0C1FA0746AC
:1033D000216807F01DFB064607F054FABDE8F081AE
:1033E0002DE9F04104460D46164629462046FFF7D2
:1033F000E7FF0746324629462046FFF7B2FF07445B
:10340000324629462046FFF765FF3844BDE8F08183
:103410002DE9F04104460D46164629462046FFF7A1
:10342000CFFF0746324629462046FFF79AFF384429
:10343000BDE8F08100210161704700000361023C9A
:1034400030B50146002013E000FB00F2193A3223A8
:103450005A4302F6C41242435A4340F6C41392FB45
:10346000F3F213B201F11C0222F81030421CD0B268
:103470000728E9DB00202EE000EB80046400A4F1C3
:1034800032020123002A00DD3223002A00DA32232F
:10349000002503FB03F495FBF4F4643454430A253C
:1034A00094FBF5F404F5FA7425B201F12A0424F82A
:1034B000105034F9104040F2DC556C434FF47A75EB
:1034C00094FBF5F404F57A7425B201F12A0424F88A
:1034D0001050421CD0B20C28CEDB30BD10B50446D3
:1034E0002046FFF7ADFF204610BD2DE9F05F0446F2
:1034F000002060E034F81010A1F2DC51002904DD56
:1035000034F81010A1F2DC5104E034F8101040F24D
:10351000DC52511AB1F5FA7F10DA34F81010A1F22A
:10352000DC51002904DD34F81010A1F2DC5107E071
:1035300034F8101040F2DC52511A01E04FF4FA71E5
:103540000E4602281FD0642196FBF1F504F11C0100
:103550006A1C31F9122031F91510511A05EBC50218
:1035600002EB0512A6EB82025143642291FBF2F2B8
:1035700004F11C0131F8151011440AB204F11401D0
:1035800021F8102005E071420AB204F1140121F87B
:10359000102034F8101040F2DC52914209DA04F1A4
:1035A000140131F8101049420AB204F1140121F853
:1035B0001020411CC8B203289CDBE0884FF4FA625B
:1035C00040F2E24100F0F6F90646A6F2E2404FF47E
:1035D0007A71484340F2EE21B0FBF1F6642096FB8D
:1035E000F0F58648007B08BB04F12A00691C30F91D
:1035F000111030F91500081A05EBC50101EB051192
:10360000A6EB81014843642190FBF1F104F12A000B
:1036100030F81500084401B26183E0884FF4FA6283
:1036200040F2E24100F0C6F901B26183B4F918003A
:10363000002802DDB4F9180002E0B4F91800404295
:10364000462833DAE08840F2E24188422EDD6C4AB7
:10365000D2F89812906807F09BFB804607F012F9A9
:1036600007B217F1B40F02DC07F5B47007B2B42F3C
:1036700002DBA7F5B47007B2784207B2384607F00C
:1036800067F983465F48016F584607F0C1F98146E4
:10369000B4F9180007F05CF98246494607F078FB58
:1036A000804607F0EFF801B2218304E054488068B7
:1036B0005349C1F89802BDE8F09F0146002034E06C
:1036C00031F81020B2F5617F04DB31F81020B2F53B
:1036D000FA6F00DD2BE031F8102040F2E2439A420D
:1036E00007DA494A125C494B1B781A43474B1A7058
:1036F00006E0454A135C454A12789A43434B1A70D8
:1037000031F81020B2F5E16F07DD414A125C3F4B02
:103710001B781A433D4B1A7006E03D4A135C3B4A46
:1037200012789A43394B1A70401C0428C8DB00BF3A
:10373000364A12784AB1374A1278FA2A0ADA354AF2
:103740001278521C334B1A7004E00022314B1A706D
:103750002E4B1A702F4A1278642A29D1274A527A9E
:103760006AB12A4A127802F01002E2B1274A1278AE
:1037700002F04002BAB10023204A537213E0234AF8
:10378000127802F0200272B1204A127802F0400250
:103790004AB11A4A127A1AB10123184A537202E046
:1037A00001221D4B5A700022184B1A70194B1A70C7
:1037B00070471A49498900291ADD1849498940F694
:1037C0003402914214DA15494989002905DD13496B
:1037D000498940F2145291420ADB10494989B1F5F6
:1037E000AF6F04DD0D494989B1F5C86F00DB00BF3B
:1037F000704700B50948FFF771FE00BDC400002006
:1038000010020020180100205AAF00084F000020CD
:103810005EAF00084E0000201C060020D0050020EE
:1038200010B53848FCF7DAFF3648FDF7F6FC10BD56
:1038300010B53548FEF714FB3348FEF7ADFB3348AF
:10384000FEF777F93248FEF78AFE10BD10B52F4813
:10385000FEF7E1F810BD10B500F0CCFD10BD10B5BD
:103860002C48FFF742FE2B48FFF727FF2948FFF7B8
:10387000A0FF2448FDF79BFE2748FCF7A0FC234847
:10388000FEF741FA2148FEF76BFA10BD10B5234848
:103890000088012804DBFFF7C3FF00201F490880D0
:1038A0001E484088022804DBFFF7C2FF00201B49A6
:1038B00048801A488088052804DBFFF7C7FF0020EE
:1038C000164988801548C0880A2804DBFFF7C3FF23
:1038D00000201249C88011480089142804DBFFF732
:1038E000BEFF00200D49088110BD00210181C1806B
:1038F000818041800180704700B50848FFF7F5FFDF
:1039000000BD0000D400002010020020180100209B
:10391000FC040020D0050020C40000201206002076
:1039200010B50446204605F032F908B1002010BD5C
:103930004FF07E51204607F037F901D86748F6E787
:103940006749204607F030F801D86648EFE720467F
:1039500005F0F0F9EBE72DE9F04106460C46154677
:10396000304605F014F950B12946204606F020FEF5
:1039700007464FF07C5107F04BF8BDE8F081214637
:10398000304607F011F801D22046F6E729463046C6
:1039900007F00AF901D22846EFE73046EDE7034683
:1039A0008B4201DA08467047934201DD1046FAE780
:1039B0001846F8E703468B4201DA084670479342FF
:1039C00001DD1046FAE71846F8E703468B4201DAB4
:1039D00008467047934201DD1046FAE71846F8E7BB
:1039E000002801DD024600E042428A4201DA00205E
:1039F00006E0002801DD401A02E0002800DA084451
:103A0000704710B504463849204607F001F810BD4C
:103A100010B504463549204606F0FAFF10BD10B532
:103A200004462146204606F0F3FF10BD2DE9F04183
:103A300005460C462046FFF7F2FF07462846FFF7EB
:103A4000EEFF8046394606F0B3FD064605F0CAFF94
:103A5000BDE8F0812DE9F05F06460C461546284684
:103A6000FFF7DDFF81462046FFF7D9FF824630464B
:103A7000FFF7D5FF8346514606F09AFD804649463A
:103A800006F096FD074605F0ADFFBDE8F09F2DE975
:103A9000FE4F07460C4615461E463046FFF7BFFF51
:103AA00002902846FFF7BBFF01902046FFF7B7FFC3
:103AB00000903846FFF7B3FF8346009906F078FD83
:103AC0008246019906F074FD8146029906F070FD68
:103AD000804605F087FFBDE8FE8F0000DB0FC93F81
:103AE000000080BFDB0FC9BF34FA8E3CE12E654277
:103AF00070B5044694E80F00FFF7C9FF0546294654
:103B0000206806F0C9FD20602946606806F0C4FD03
:103B100060602946A06806F0BFFDA0602946E06805
:103B200006F0BAFDE06070BD2DE9F04F85B00446A7
:103B30000D46A168084606F06BFF0746D4E902016E
:103B400006F066FF80466168084606F061FF814620
:103B5000D4E9010106F05CFF8246E168606806F086
:103B600057FF0490D4E9000106F052FF0390A168CA
:103B7000206806F04DFF0290E168206806F048FFDB
:103B80000190E168084606F043FF0090384600992E
:103B900006F00EFD83464FF0804106F039FF0646E1
:103BA0004FF07E5107F062F828605046019907F007
:103BB000EFF806464FF0804106F02AFF6860029950
:103BC000049806F0F5FC06464FF0804106F020FF11
:103BD000A8605046019906F0EBFC06464FF0804184
:103BE00006F016FFE8604846009906F0E1FC8346BF
:103BF0004FF0804106F00CFF06464FF07E5107F073
:103C000035F828614046039907F0C2F806464FF0A0
:103C1000804106F0FDFE68610299049807F0B8F84B
:103C200006464FF0804106F0F3FEA8614046039936
:103C300006F0BEFC06464FF0804106F0E9FEE86162
:103C40003946484606F0B4FC83464FF0804106F002
:103C5000DFFE06464FF07E5107F008F8286205B0F7
:103C6000BDE8F08F2DE9F04704460D46A1682068B5
:103C700006F0CEFE0746E168606806F0C9FE8046A1
:103C8000394607F085F806464FF0804106F0C0FE41
:103C90002860D4E9020106F0BBFE0746D4E9000122
:103CA00006F0B6FE8046394606F082FC06464FF026
:103CB000804106F0ADFE6860A168084606F0A8FEE7
:103CC00080466168084606F0A3FE8146414606F03C
:103CD0006FFC07464FF0804106F09AFE06464FF013
:103CE0007E5106F0C3FFA860BDE8F08770B58CB0C8
:103CF00006460C4603AD284605F06FFF054605F164
:103D00000C0005F06AFFA0F10C0505F1180005F0A4
:103D100064FFA0F1180500BFA06880F00040A0601B
:103D200003A93046FFF700FF224603A9684605F0C5
:103D30008EFF9DE8070084E80700A06880F000403F
:103D4000A0600CB070BD2DE9F04F8FB004468946DD
:103D50009246504606F000FCCDE90801D9F808105B
:103D6000E06806F055FE0490D9F80410A06806F04B
:103D70004FFE0390606880F000400190D9F8001079
:103D800006F046FE0290039907F002F88346049974
:103D900006F0FEFF059006F0DFFB07460022F74B1A
:103DA00006F0F2F9CDE90601DDE9082306F0ECF9A9
:103DB00005460E46206806F0CFFB2A463346CDE97D
:103DC0000A0106F097F8CDE90C0106F061F82060D1
:103DD000504606F0C1FBCDE90601D9F80410E068B1
:103DE00006F016FE0490D9F80810A06806F010FE40
:103DF0000390D9F80010206806F00AFE029003999B
:103E000006F0D6FB8346049906F0C2FF059006F043
:103E1000A3FB07460022D94B06F0B6F90546DDE9BB
:103E2000062306F0B1F9CDE90A01606806F094FBBB
:103E3000CDE90801DDE90A2306F05CF8CDE90C01C3
:103E400006F026F86060504606F086FBCDE90801D2
:103E5000D9F80010E06806F0DBFD0490D9F80810EE
:103E6000606806F0D5FD0390D9F80410206806F0CC
:103E7000CFFD0290039906F08BFF8346049906F06C
:103E800097FB059006F068FB0022BC4BCDE90601CC
:103E900006F07AF90746DDE9082306F075F9CDE961
:103EA0000A01A06806F058FB0546DDE90A2306F082
:103EB00021F8CDE90C0105F0EBFFA060504606F0BB
:103EC0004BFBCDE90601D9F80010A06806F0A0FD73
:103ED0000390D9F80410606806F09AFD8346D9F87B
:103EE0000810206806F094FD5946029006F060FB29
:103EF0008046039906F04CFF074606F02DFB054669
:103F000000229E4B06F040F9CDE90401DDE90623CD
:103F100006F03AF9CDE90A01E06806F01DFBCDE9AB
:103F20000801DDE90A2305F0E5FFCDE90C0105F004
:103F3000AFFFE0600FB0BDE8F08F2DE9F04F85B026
:103F400004460D4616461F464FF07C51284606F0A3
:103F50005FFD824605F0B0F880464FF07C51304658
:103F600006F056FD824605F0A7F881464FF07C51D9
:103F7000384606F04DFD824605F09EF804904FF05D
:103F80007C51284606F044FD824605F065FC03900E
:103F90004FF07C51304606F03BFD824605F05CFC5C
:103FA00002904FF07C51384606F032FD824605F013
:103FB00053FC0190DDE9021006F02AFD0090019902
:103FC00006F026FD82464946404606F021FD009057
:103FD000049906F01DFD8346514606F0E9FA20607B
:103FE0004046029906F014FD0090019906F010FD7C
:103FF00082464946039806F00BFD0090049906F0AE
:1040000007FD8346514606F0C3FE606049460398AB
:1040100006F0FEFC0090019906F0FAFC824640464C
:10402000029906F0F5FC0090049906F0F1FC834635
:10403000514606F0BDFAA060DDE9021006F0E8FC8A
:104040000090049906F0E4FC82464946404606F09A
:10405000DFFC0090019906F0DBFC8346514606F038
:1040600097FEE06005B0BDE8F08F2DE9FE4F0446F5
:104070000D4616461F468DB3A168084606F0C8FCDB
:1040800001906168084606F0C3FC0090019906F0B3
:104090008FFA83464FF0804106F0BAFC82464FF01B
:1040A0007E5106F0E3FD8146D4E9020106F0B0FC42
:1040B0008346D4E9000106F0ABFC5946019006F0B6
:1040C00077FA82464FF0804106F0A2FC4946029002
:1040D00004F0C4FE8046FFF79BFC2860C6B1E1688F
:1040E000606806F095FC8346A168206806F090FCA5
:1040F0005946029006F04CFE82464FF0804106F091
:1041000087FC8146FFF70CFC8046FFF781FC30609E
:104110008FB36168084606F07BFC01902168084671
:1041200006F076FC0090019906F042FA83464FF0C3
:10413000804106F06DFC82464FF07E5106F028FE6D
:104140000290E168206806F063FC8346D4E901012F
:1041500006F05EFC5946019006F01AFE82464FF0CA
:10416000804106F055FC8146029904F077FE8046B6
:10417000FFF74EFC3860BDE8FE8F00000000E03F16
:1041800000B585B0684602F0D0FF50490098B0FBFA
:10419000F1F04F49086005B000BD4E480068401C72
:1041A0004C4908604C480088401C4B490880084630
:1041B0004088401C488008468088401C888008460B
:1041C000C088401CC88008460089401C0881704790
:1041D00000BF404801684FF0E02082693D48006818
:1041E0008142F6D13A48006800EB4003C3EBC010AF
:1041F000C2EBC000364B1B68B0FBF3F001EB410390
:10420000C3EBC11300EBC300704730B50446FFF7A2
:10421000DFFF054600BFFFF7DBFF401BA042FAD3DC
:1042200030BD10B5044603E04FF47A70FFF7EDFFA0
:104230002000A4F10104F7D110BD70B54FF4407017
:1042400001F026FEFFF79CFF244800684FF47A72C5
:10425000B0FBF2F1481EB0F1807F00D31BE0481E96
:104260004FF0E022506150170F22002807DA1307A1
:104270001D0E1B4B00F00F04241F1D5503E01307F8
:104280001C0E184B1C5400BF00204FF0E022906120
:104290000720106100BF00F084FB01F01FFCFB222F
:1042A0000421114801F0DBF945F6C05001F01EFB76
:1042B0004FF4165001F0B4FC00F056FD00F094F8F5
:1042C00002F0C5F900F0CDFA70BD000040420F00C9
:1042D000500000205400002012060020B0000020F2
:1042E00018ED00E000E400E09C06002008B5012184
:1042F000084602F07AFF01214FF4017002F082FFBC
:104300001020ADF8000000208DF8030069466148D8
:1043100002F0BCFC08BD00B591B05F4802F04EF859
:104320005E4806905E4807900020089001200990A2
:1043300000200A9080200B9040000C9080000D908F
:1043400020200E9000020F900020109006A95248E5
:1043500002F0D6F80121504802F0FDF8002001904B
:104360008DF8080001208DF809004FF460200390BB
:104370000020049001208DF8140001A947484C3812
:1043800001F01BFE4FF4404002F0A0FE0523012285
:10439000042142484C3801F0A8FE01213F484C3826
:1043A00001F042FE01213D484C3801F032FE3B480D
:1043B0004C3801F050FE00BF38484C3801F050FE38
:1043C0000028F9D135484C3801F054FE00BF33487D
:1043D0004C3801F054FE0028F9D101212F484C3807
:1043E00001F057FE11B000BD10B5FFF77FFFFFF7DA
:1043F00092FF10BD2DE9F84F2948008806F0C0FA59
:10440000009006F0A9F80646264A274B05F0BCFEA8
:1044100004460D462548006806F09EF80646244AE4
:10442000244B05F0B1FE804622462B4605F062FD86
:10443000824605F02DFD1D4908604FF08B411B4859
:10444000006806F029F9824606F086F806464FF025
:104450006632194B05F098FE804600224FF08043EB
:1044600005F092FE044605F013FD14490860084665
:10447000006806F071F804460022114B05F048FE72
:1044800003D201210F48417302E000210D4841731E
:10449000BDE8F88F00080140080002404C240140AC
:1044A00058000020FCA9F1D24D62603F5C00002062
:1044B000560E2DB29DEFEF3F66660A406000002069
:1044C00000000C40C4000020034606210622F748E5
:1044D0000188F7480288ABB1012B1BD13AB94EF6DF
:1044E000EE60814201D1002070470120FCE739B91C
:1044F0004EF6EE60824201D10120F5E70020F3E79D
:10450000AB20F1E709B90020EEE70AB90120EBE79B
:10451000AB20E9E70020E7E770B50426002401207E
:10452000FFF7D2FF0446AB2C06D1E04800EB842015
:10453000E0490860AB2070BDDC4800EB8420DD4919
:104540000860601CD949891E01EB80250CE0D94820
:1045500000680068401C10B904263046EBE7D548D7
:104560000068001DD3490860D2480068A842EED315
:104570008020E0E710B50424CC4802F0ADF80446F2
:10458000042C01D0204610BD0021C84802F0A7F934
:104590000446042C01D02046F5E7C54802F09CF8FB
:1045A00004462046EFE72DE9F04104460F46042576
:1045B0000026DFF804830120FFF786FF0646AB2EB6
:1045C00001D1BDE8F081701CB849891E01EB80283B
:1045D00021E0B84800680068401CB8B93946B548C1
:1045E000006802F07CF90546042D01D02846E8E772
:1045F0002146B0480068801C02F071F90546AD48BC
:104600000068001DAB4908602846DAE7A948006841
:10461000001DA8490860A74800684045D9D38020FC
:10462000CFE72DE9F04706460F46002545F25558DD
:104630004FF001099D4CA2460020FFF745FF0546BB
:10464000AB2D01D1BDE8F087984800EB852A994849
:104650000068841E0AE0B4F80080B04505D134F843
:10466000020C38804FF0000904E0241F0AF1020018
:104670008442F0D800BF4846E4E72DE9F0474FF008
:10468000060A062600250027A8464FF0FF3987486E
:10469000B0F800A0864806885FEA0A0075D0A0F549
:1046A0006E40EE3858B3A0F58850113800286DD10F
:1046B00046B97E4802F010F80446042C1ED020466D
:1046C000BDE8F0874EF6EE60864210D1774802F0E2
:1046D00003F80446042C01D02046F1E70021744879
:1046E00002F0FDF80446042C08D02046E8E7FFF766
:1046F00041FF0446042C01D02046E1E7AEE07EBB3A
:10470000002522E06948C0886C4931F815108842BC
:1047100001D10FFA85F94D4515D0684931F81500DA
:104720006749FFF77EFF8046B8F1010F0BD0634960
:1047300031F8150062490988FFF735FF0746042F55
:1047400001D03846BCE7681C85B2192DDADB0021A0
:10475000564802F0C4F80446042C02D02046AFE7C5
:1047600007E0534801F0B8FF0446042C1FD0204650
:10477000A6E74FF6FF70864212D14D4801F0ACFF1C
:104780000446042C03D020469AE711E05EE00021A5
:10479000464802F0A4F80446042C08D020468FE7CF
:1047A000FFF7E8FE0446042C01D0204688E755E0D8
:1047B00036B9FFF7DFFE0446042C46D020467FE7DB
:1047C0004FF6FF70864207D1394801F085FF044655
:1047D000042C3AD0204673E7002523E03448801D9E
:1047E0000088364931F81510884201D10FFA85F951
:1047F0004D4515D0314931F815003149FFF711FF0A
:104800008046B8F1010F0BD02C4931F815002C4926
:104810000988FFF7C8FE0746042F01D038464FE746
:10482000681C85B2192DD9DB0021214802F057F808
:104830000446042C01D0204642E71C4801F04CFFFE
:104840000446042C01D020463AE707E0FFF792FE29
:104850000446042C01D0204632E700BF00BF0420EC
:104860002EE710B5FFF709FF0446FFF755FE204677
:1048700010BD2DE9F84F074689460425DFF830A022
:10488000AAF1010A094800904FF000080024002610
:104890004FF0000B0020FFF717FE8046B8F1010F24
:1048A00010D1DFF808A00248009016E000000108CF
:1048B0000004010868000020FF07010862AF00083B
:1048C00064000020B8F1000F04D1DFF8C4A0314823
:1048D000009002E0AB20BDE8F88F4EF6EE61504646
:1048E00001F0FDFF0546042D01D02846F3E7FFF750
:1048F00013FE49463846FFF756FE0646042E01D001
:104900003046E8E700241CE0234830F81400B842A1
:1049100015D0214931F814002049FFF782FE834663
:10492000BBF1010F0BD01C4931F814001B49098859
:10493000FFF739FE0646042E01D03046CBE7601C57
:1049400084B2192CE0DB009801F0C6FE0546042D68
:1049500001D02846BFE70021504601F0C0FF0546C0
:10496000042D01D02846B6E72846B4E770B50546C1
:104970000E46002431462846FFF715FE0446802CDB
:1049800004D131462846FFF774FF0446204670BD27
:10499000000401080000010862AF00086400002064
:1049A000704708B50121082002F02CFC4020ADF82A
:1049B000000003208DF8020014208DF803006946E2
:1049C000E84802F063F98020ADF8000003208DF87C
:1049D000020014208DF803006946E24802F056F9FF
:1049E00008BD704700B501464020DE4A1432106011
:1049F0000846FFF7F6FF8020DA4A143210600846B6
:104A0000FFF7EFFF4020D74A103210600846FFF74B
:104A1000E8FF8020D34A103210600846FFF7E1FF1C
:104A200000BD00B501464020CE4A14321060084651
:104A3000FFF7D7FF8020CB4A103210600846FFF7FF
:104A4000D0FF4020C74A103210600846FFF7C9FF68
:104A5000C4480830006800F0800040B14020C14ADE
:104A6000143210600846FFF7BCFF002000BD402054
:104A7000BC4A143210600846FFF7B3FF0120F5E787
:104A800010B5024608231DE04020B64C14342060C7
:104A90001046FFF7A6FF01F0800018B18020241F08
:104AA000206003E08020AF4C143420604806010EE3
:104AB0001046FFF796FF4020AA4C103420601046A5
:104AC000FFF78FFF1800A3F10104E3B2DCD140200F
:104AD000A44C1434206010BD00B501468020A14ACA
:104AE00010321060402010600846FFF77AFF9D48A2
:104AF0000830006808B9012000E0002000F08000C4
:104B000008B1002000BD8020964A1432106008468B
:104B1000FFF767FF93480830006800F0800008B195
:104B20000020EFE780208F4A143210600846FFF71C
:104B300058FF0120E6E7F0B506460F4614461D462D
:104B40003046FFF7C9FF08B90020F0BD39463046AE
:104B5000FFF796FF3046FFF764FF20B93046FFF7B6
:104B600041FF0020F1E721463046FFF789FF30463C
:104B7000FFF757FF29463046FFF782FF3046FFF721
:104B800050FF3046FFF72EFF0120DEE700B501465B
:104B90004020744A143210600846FFF722FF80203C
:104BA000704A103210600846FFF71BFF40206D4A24
:104BB000103210600846FFF714FF4020694A143293
:104BC00010600846FFF70DFF00BD10B50246082330
:104BD00000218020634C1034206016E04806010E4E
:104BE0004020604C143420601046FFF7FAFE40204D
:104BF000241F20601046FFF7F4FE5A480830006872
:104C000000F0800008B141F001011800A3F1010497
:104C1000E3B2E3D14020534C14342060084610BD69
:104C2000F0B506460C4615463046FFF755FF08B965
:104C30000020F0BD21463046FFF722FF3046FFF747
:104C4000F0FE20B93046FFF7CDFE0020F1E72946FF
:104C50003046FFF715FF3046FFF7E3FE3046FFF71B
:104C60003BFF601CC1B23046FFF70AFF3046FFF73A
:104C7000D8FE3046FFF7A9FF07463046FFF786FF0C
:104C80003046FFF7AFFE3846D3E700B50146402077
:104C9000344A143210600846FFF7A3FE8020314AE0
:104CA000143210600846FFF79CFE40202D4A103257
:104CB00010600846FFF795FE40202A4A1432106023
:104CC0000846FFF78EFE00BD2DE9F04381460E46F3
:104CD00017461C46DDF81C80B8F1010F02DA0020EF
:104CE000BDE8F0834846FFF7F7FE08B90020F7E774
:104CF00031464846FFF7C4FE4846FFF792FE20B90A
:104D00004846FFF76FFE0020EAE739464846FFF7BE
:104D1000B7FE4846FFF785FE4846FFF7DDFE701CEC
:104D2000C1B24846FFF7ACFE4846FFF77AFE0125C0
:104D300009E04846FFF749FF04F8010B4846FFF732
:104D4000A4FF681CC5B24545F3DB4846FFF73DFFAD
:104D500004F8010B4846FFF719FF4846FFF742FEEB
:104D60000120BDE7000C014008B50121084602F012
:104D700056FA0121C80202F045FA0121102002F082
:104D800041FA4FF4C040ADF8000010208DF8030048
:104D900003208DF802006946114801F077FF08BD35
:104DA00010B504464FF400510D4802F01CF810BD38
:104DB00010B504464FF48041094802F014F810BDC4
:104DC00010B504464FF40051054802F00EF810BD2E
:104DD00010B504464FF48041014802F006F810BDBA
:104DE0000010014010B504462046FFF7D9FD0446E7
:104DF000A01C04F023FF841E04F1080004F01EFF31
:104E0000A0F1080404F11C0004F0E7FEA0F11C046A
:104E100004F1280004F0E1FEA0F1280404F13400BC
:104E200004F0DBFEA0F13404204610BD30B503468B
:104E3000C822002007E000BF1400A2F10105AAB2B9
:104E4000FAD1441CE0B28842F5DB30BD2DE9F041D7
:104E500007460D4616462A2E15D006DC052E0CD028
:104E60000A2E0CD0142E16D10BE0622E0DD0BC2EC3
:104E70000DD0B6F5807F0ED10BE006240DE00524A1
:104E80000BE0042409E0032407E0022405E00124E8
:104E900003E0002401E0022400BF00BF80236B2256
:104EA000D0213846FFF747FE05213846FFF7BEFF01
:104EB0004FF47A7090FBF5F0401E00F0FF08434677
:104EC0001922D0213846FFF736FE03236B22D0216A
:104ED0003846FFF730FE02233722D0213846FFF74D
:104EE0002AFE23461A22D0213846FFF724FE182333
:104EF0001B22D0213846FFF71EFE10231C22D02192
:104F00003846FFF718FEBDE8F0812DE9F041044670
:104F1000207800286AD0EA48007800F0010048B9FB
:104F2000E74803F04DFE28B1E64804F056FEE44899
:104F3000AFF30080E448008880B900231A46194680
:104F4000A01C04F080FE00231A461946DD4804F038
:104F500049FE0120DC490880BDE8F08104F11C0114
:104F6000D84804F057FED8480088C82839D1D64818
:104F7000008805F005FD0646D2490868314605F06F
:104F80008BFB054605F07EFC00B26080CE480088B1
:104F900005F0F6FC0646CB494868314605F07CFB37
:104FA000054605F06FFC01B2A180C748008805F0F6
:104FB000E7FC0746C3498868394605F06DFB06469D
:104FC0004FF08B4105F0E4FE054605F05BFC01B2B5
:104FD000E1800020BC4908802070BC48FEF73DF904
:104FE000BAE7B9480088401CB749088000BFB3E75A
:104FF0002DE9FC4104463C22D0212046FFF710FE5B
:10500000A0733B22D0212046FFF70AFEE073A17B6C
:10501000E07B41EA00206188401A00B2ADF8000050
:105020003E22D0212046FFF7FBFD20743D22D021F7
:105030002046FFF7F5FD6074217C607C41EA002189
:10504000A088081A00B2ADF802004022D021204604
:10505000FFF7E6FDA0743F22D0212046FFF7E0FDD8
:10506000E074A17CE07C41EA0021E088081A00B2EB
:10507000ADF80400BDF9040005F06AFC0546BDF971
:10508000020005F065FC0646BDF9000005F060FC75
:1050900007462B463246394604F11C0004F0A2FDB7
:1050A0002046FFF732FFBDE8FC8170B5044660780A
:1050B00000286ED08648007800F0010048B9844886
:1050C00003F07EFD28B1834804F087FD8048AFF3EC
:1050D00000808148008880B900231A46194604F1EF
:1050E000080004F0B0FD00231A461946794804F080
:1050F00079FD01207849088070BD04F128017548C8
:1051000004F088FD74480088C8283DD172480088A2
:1051100005F036FC06466F490868314605F0BCFAD2
:10512000054605F0AFFB00B220816B48008805F012
:1051300027FC064667494868314605F0ADFA054642
:1051400005F0A0FB01B261816348008805F018FCFE
:10515000064660498868314605F09EFA054605F026
:1051600091FB01B2A18100205B49088060705B481F
:10517000007A28B901215948417201205749087223
:105180005248FEF782F8B7E753480088401C52495E
:10519000088000BFB0E72DE9FC4104464422D0213D
:1051A0002046FFF73DFD20754322D0212046FFF722
:1051B00037FD6075217D607D41EA00202189401A1C
:1051C00000B2ADF800004622D0212046FFF728FDAE
:1051D000A0754522D0212046FFF722FDE075A17D74
:1051E000E07D41EA00216089081A00B2ADF80200B2
:1051F0004822D0212046FFF713FD20764722D021F8
:105200002046FFF70DFD6076217E607E41EA002199
:10521000A089081A00B2ADF80400BDF9040005F039
:1052200097FB0546BDF9020005F092FB0646BDF965
:10523000000005F08DFB07462B463246394604F147
:10524000280004F0CFFC2046FFF72FFFBDE8FC81CB
:1052500010B5D1E90834CA6980E81C0010BD10B54A
:10526000D1E90B348A6A80E81C0010BD0FB470B518
:1052700005460C461A49069805F0CAFB0646FEF795
:10528000C0FB60631649079805F0C2FB0646FEF7AF
:10529000B8FBA0631249089805F0BAFB0646FEF772
:1052A000B0FBE063D4E90E12606B85E8070070BCC8
:1052B0005DF814FB10B50B48FFF794FD10BD00001E
:1052C000700000205C060020740000204A000020CE
:1052D00078000020680600207C000020C400002028
:1052E0008DC1793D1C06002010B5044601235822CB
:1052F000EE212046FFF71FFC10BD7CB505460020BF
:1053000001900026002418E002200090A02000EB6D
:105310004400C2B201ABEE212846FFF7D5FC304471
:10532000C6B29DF805009DF8041040EA012105F180
:10533000100020F81410601CC4B2082CE4DB082E06
:1053400001D101207CBD0020FCE710B504460123FB
:105350001E22EE212046FFF7EEFB10BD10B50446DD
:105360000A20FEF75EFF2046FFF7EFFF0320FEF75F
:1053700058FF2046FFF7C1FF2046FFF7B5FF10BDDD
:1053800010B5044601234822EE212046FFF7D3FB47
:1053900010BD38B50446032004F120030022EE219D
:1053A00000902046FFF790FC38BD2DE9F04F8BB000
:1053B00004464FF00008C14694F820000104212063
:1053C000005D41EA00202221095D0843A06094F8B5
:1053D000230001042420005D41EA00202521095D0D
:1053E0000843E060608BA168A1EB0025A08A00045F
:1053F0000022218B4FEAE57CA1FB05BE02FB05E301
:1054000001FB0C334FEADB1141EA4361401842EBE8
:10541000E312CDE90802608A4FEAC0304246E18AD1
:105420004FEAE57CA1FB05BE02FB05E301FB0C3363
:105430004FEA1B2141EA0361401842EB2322CDE9E8
:105440000602A08B42464FEAE573A0FB051C02FB57
:1054500005C200FB03204FEA402242EAD1504FF43C
:10546000FA614718B7F5FA6F19DAA7F5FA667643C5
:1054700006EB86004FEA600806EB86004FEAA009BB
:10548000544887420BDA07F2DC567643072000FBCC
:10549000068806EB460000EBC60009EB6009DDE973
:1054A0000801B0EB080061EBE871CDE90801DDE926
:1054B0000601B0EB090061EBE971CDE906014FF09F
:1054C0000003E168DDE9062CA1FB020B03FB02B23D
:1054D00001FB0C224FEA505141EAC22C4FEA6251C3
:1054E000DDE90802BCEB000061EB0201C00B40EA01
:1054F000414A504605F02CFA3749019005F0CCF8A6
:105500008346364802905846029903F097FE4FF0C2
:105510007E51039005F0AAFB3149049005F078FA1A
:10552000059005F0AFF98246606818B16068AAEB93
:10553000000020602B480078B0B12A480078401E57
:105540002849087008460078C82804DA2648006808
:105550005044254908602348007828B9224800684B
:10556000C72190FBF1F060600BB0BDE8F08F38B55B
:105570000446032004F123030022EE21009020467C
:10558000FFF7A2FB38BD10B504461848006860B1AB
:105590002046FFF7ECFF2046FFF7A6FE2046FFF768
:1055A00004FF00201149086008E02046FFF7F1FEE3
:1055B0002046FFF7E5FE01200C49086010BD0146BA
:1055C0000868704710B50A4C2046FFF7E9F9044611
:1055D00000BF10BD24FAFFFF80E6C547B1DC423EA4
:1055E000D048874A880000208400002080000020E6
:1055F000740600202DE9F04105460E461446284663
:1056000000F000FB3146284600F0CAFA0746214662
:10561000284600F0C5FA284600F0ECFA3846BDE806
:10562000F0812DE9F0470746884615461E46384664
:1056300000F0E8FA4146384600F0B2FA814600240C
:1056400005E0295D384600F0ABFA601CC4B2B442F4
:10565000F7DB384600F0CEFA4846BDE8F08770B573
:1056600005460C461646284600F0BCFA05239C4A1F
:105670002A212846FFF7D5FF05239A4A30212846DC
:10568000FFF7CFFF012221212846FFF7B3FF0122B8
:1056900022212846FFF7AEFF1A2224212846FFF7D1
:1056A000A9FF324625212846FFF7A4FF0F22262115
:1056B0002846FFF79FFF012C0AD1FF2231212846FF
:1056C000FFF798FF0F2220212846FFF793FF51E0B4
:1056D000022C0AD1FF2231212846FFF78BFF0E2230
:1056E00020212846FFF786FF44E0032C21D1FF222A
:1056F000E1212846FFF77EFFFF22E2212846FFF73F
:1057000079FF0F2220212846FFF774FF50212846F9
:1057100000F046FA7321284600F042FA01223C21AB
:105720002846FFF767FF06223D212846FFF762FF64
:1057300020E00E2220212846FFF75CFFFF22E12116
:105740002846FFF757FFFF22E2212846FFF752FFC6
:105750005021284600F024FA7321284600F020FA50
:1057600001223C212846FFF745FF06223D2128461D
:10577000FFF740FF284600F02DFA70BD70B50646D1
:105780000C461546304600F02DFA0523554A2A21CD
:105790003046FFF746FF2B462246A0213046FFF752
:1057A00040FF304600F016FA70BD70B506460C4654
:1057B0001546304600F016FA2B462246A821304600
:1057C000FFF72FFF304600F005FA70BD2DE9F047D6
:1057D0000746884615461E46384600F013FA4146ED
:1057E000384600F0DDF98146002406E00021384605
:1057F00000F0D6F92855601CC4B2B442F6DB384636
:1058000000F0F8F94846BDE8F0877CB50546052369
:10581000344A30212846FFF704FF05236A46102149
:105820002846FFF7D3FF002408E01DF804002D49A7
:10583000095D884200D003E0601CC4B2052CF4DB93
:1058400000BF052C01D101207CBD0020FCE770B514
:1058500004460D46204600F0D5F92946204600F0C2
:105860009FF90021204600F09BF90646204600F0F3
:10587000C1F9304670BD70B5054607212846FFF7CF
:10588000E6FF044604F04000C0B160212846FFF75F
:10589000DEFF0646212E0BDA33462A4661212846D2
:1058A000FFF794FF324629460F48FAF734FD04E02B
:1058B000FF22E2212846FFF79DFE00BF04F0100002
:1058C00038B104F0010020B1FF22E1212846FFF7A2
:1058D00091FE224627212846FFF78CFE70BD00006E
:1058E0008E00002089000020D400002030B589B04F
:1058F000054601210C2001F085FC0F20ADF80400C5
:1059000003208DF8060018208DF8070001A96D48C6
:1059100001F0BCF90320ADF8040001A96A4801F0C8
:10592000B5F900BF0121084601F079FC4FF47A7007
:10593000684366490968B1FBF0F0401E84B240F24A
:10594000E730ADF81C00ADF818400020ADF81E009F
:10595000ADF81A0006A94FF0804001F011FF602059
:10596000ADF808000120ADF80A000020ADF80E00E7
:10597000ADF8100002A94FF0804001F03EFF082171
:10598000C80602F089FB02A94FF0804001F077FFC2
:105990000821C80602F089FB02A94FF0804001F0FF
:1059A000BBFF0821C80602F08DFB02A94FF0804022
:1059B00001F0FDFF0821C80602F08DFB01218807D8
:1059C00002F03AFB0121880702F036FA0121022099
:1059D00001F025FC3D4800683D49B0FBF1F0401E58
:1059E00084B240F2E730ADF81C00ADF8184000205A
:1059F000ADF81E00ADF81A0006A9364801F0C0FE49
:105A00006020ADF808000120ADF80A000020ADF8D4
:105A10000E00ADF8100002A92E4801F07DFF08210C
:105A20002C4802F04FFB02A92A4801F0C0FF0821D0
:105A3000284802F050FB0121264802F0FDFA01211E
:105A4000244802F0F9F909B030BD0246002014E004
:105A500031F91030B3F57A7F04DA4FF47A7321F814
:105A6000103008E031F91030B3F5FA6F03DD4FF470
:105A7000FA6321F81030431CD8B20628E8DB088806
:105A8000A0F57A704FF0804398864888A0F57A7028
:105A9000104B3C3318808888A0F57A704FF0804313
:105AA0009887C888A0F57A700A4B40331880088917
:105AB000A0F57A701B0618874889A0F57A70064B06
:105AC0001880704700080140000C0140B000002021
:105AD00000366E01000400404000004000B587B071
