:020000040800F2
:10000000381000200D8C000895600008178C00083F
:10001000976000089B6000089F60000800000000D7
:10002000000000000000000000000000A3600008C5
:10003000A560000800000000238C0008A7600008ED
:10004000278C0008278C0008278C0008278C0008C4
:10005000278C0008278C0008278C0008278C0008B4
:10006000278C0008278C0008278C0008278C0008A4
:10007000278C0008278C0008278C0008278C000894
:10008000278C0008278C0008278C0008278C000884
:10009000278C0008278C0008278C0008278C000874
:1000A000278C0008278C0008278C0008278C000864
:1000B000278C0008278C0008278C0008278C000854
:1000C000278C0008278C0008278C0008278C000844
:1000D000278C0008AF600008278C0008B16000087A
:1000E000278C0008278C0008278C000800F002F8F5
:1000F00000F03CF80AA090E8000C82448344AAF186
:100100000107DA4501D100F031F8AFF2090EBAE883
:100110000F0013F0010F18BFFB1A43F0010318473B
:1001200060B2000080B20000103A24BF78C878C1E5
:10013000FAD8520724BF30C830C144BF04680C60ED
:10014000704700000023002400250026103A28BF35
:1001500078C1FBD8520728BF30C148BF0B60704739
:100160001FB508F077FD1FBD10B510BD08F098FD54
:100170001146FFF7F5FF00F009F808F0B6FD03B4EB
:10018000FFF7F2FF03BC08F0B7FD000004F06DF9C3
:10019000064803F04BF9064801F01BFE054802F043
:1001A000D1FA01E003F08AFCFCE7000052000020D5
:1001B00018020020040500200122C272704710B509
:1001C0000446607B00B338480078401C364908700C
:1001D00008460078012804D0052809D00A2812D141
:1001E0000DE0324804F0F4FE304804F0F9FE0AE075
:1001F0002E4804F0FDFE2D4804F002FF03E000202D
:100200002949087000BF49E0607AE0B1207BD0B98D
:1002100025480078401C24490870084600780128C9
:1002200004D0142806D028280CD107E01F4804F079
:10023000CFFE07E01D4804F0DBFE03E000201A4972
:10024000087000BF2AE0607A10B3207B00B3184822
:100250000078401C1649087008460078012804D030
:10026000142809D0282812D10DE0104804F0B0FE5F
:100270000E4804F0C5FE0AE00C4804F0B9FE0B4835
:1002800004F0AEFE03E000200949087000BF05E05D
:10029000064804F09DFE054804F0A2FE10BD00B51E
:1002A0000448FFF789FF00BD000000207400002013
:1002B00001000020CC00002070B504460E46154613
:1002C0002A4604F10F01FE4805F070FB70BD2DE9D0
:1002D000F04104460D461646AA20E073AA21217477
:1002E000EF2161740221A174E574267500270020B6
:1002F00006E004F10F01095C3944CFB2411CC8B2D9
:100300000628F6DB6775082204F10F012046FFF787
:10031000D3FFBDE8F0812DE9F04F87B005460C46CC
:100320001646002701200690002004E0215C394495
:10033000CFB2411CC8B2711E8142F7DCA01910F87F
:10034000010CB84202D007B0BDE8F08F2078AA288F
:1003500002D16078AF2800D0F5E70021D94881723A
:10036000A078012811D12079012801D1D64908703F
:100370002079022802D10120D3494870207903282E
:1003800003D10120D04908704870A078022816D106
:100390002079012805D128716871A871E871287247
:1003A00068722079A02801D1012028702079A12825
:1003B00005D1C64801F0BAFAC54802F01EFFA07880
:1003C00003287CD12079617941EA0020C149C880A5
:1003D000A079E17941EA0020BE498880207A617ADB
:1003E00041EA0020BB490880A07AE17A41EA002076
:1003F000B8494880207B617B41EA0020B5490881EB
:10040000A07BE17B41EA0020B2494881207C617CED
:1004100041EA0020AF498881A07CE17C41EA0020CC
:10042000AC49C8810698002861D008460088A0F22F
:10043000DC5908464088A0F2DC58A749886803F0D8
:10044000F8FB029008F050FF824648460AF0C6FBCF
:10045000834651460AF022FC9F490490886803F0C5
:10046000E8FB019009F010FB834640460AF0B6FB1A
:10047000594602900AF012FC824698490AF03CFD67
:10048000039004990AF0DAF905900AF087FB914984
:1004900008809149886803F0CCFB029009F0F4FAD7
:1004A000049048460AF09AFB039004990AF0F6FB80
:1004B00089490590886803F0BCFB019000E016E0D4
:1004C00008F012FF039040460AF088FB029003995F
:1004D0000AF0E4FB814904900AF0B0F983460599DB
:1004E0000AF0ACF982460AF059FB7A494880A078B4
:1004F00010287DD12179090209B2627941EA02000E
:100500000AF06CFB824676490AF00CFA6F490860E3
:10051000A179090209B2E27941EA02000AF05EFB20
:1005200082466F490AF0FEF968494860217A09025B
:1005300009B2627A41EA02000AF050FB8246684939
:100540000AF0F0F961498860A17A090209B2E27AF9
:1005500041EA02000AF042FB824661490AF0E2F9F0
:100560005A49C861217B090209B2627B41EA020053
:100570000AF034FB82465A490AF0D4F9534908621A
:10058000A17B090209B2E27B41EA02000AF026FBE4
:10059000824653490AF0C6F94C494862217C090257
:1005A00009B2627C41EA02000AF018FB82464C491B
:1005B0000AF0B8F945498863A17C090209B2E27CD6
:1005C00041EA02000AF00AFB824645490AF0AAF90C
:1005D0003E49C863217D090209B2627D41EA0200F9
:1005E0000AF0FCFA82463E490AF09CF9374900E0DD
:1005F00005E00864A1783A462846FFF768FEA0782F
:1006000011286FD12179090209B2627941EA020009
:100610000AF0E4FA824632490AF084F92B49486527
:10062000A179090209B2E27941EA02000AF0D6FA98
:1006300082462B490AF076F924498865217A090215
:1006400009B2627A41EA02000AF0C8FA82462449F5
:100650000AF068F91D49C865A17A090209B2E27A6F
:1006600041EA02000AF0BAFA82461D490AF05AF934
:1006700016490867217B090209B2627B41EA020040
:100680000AF0ACFA824616490AF04CF90F4948675D
:10069000A17B090209B2E27B41EA02000AF09EFA5C
:1006A00082460F490AF03EF908498867217C090211
:1006B00009B2627C41EA02000AF090FA824612E036
:1006C000A8060020CC0000202806002020010020E1
:1006D00052000020D8050020180200200080BB44F2
:1006E00000007A4428E0FE490AF01CF9FD49C1F8EF
:1006F0008C00A17C090209B2E27C41EA02000AF006
:100700006DFA8246F6490AF00DF9F649C1F89000F3
:10071000217D090209B2627D41EA02000AF05EFA17
:100720008246EF490AF0FEF8EE49C1F89400A1783C
:100730003A462846FFF7CBFDA078122834D121791C
:10074000090209B2627941EA02000AF047FA8246D8
:10075000E3490AF0E7F8E349C1F8A800A1790902E2
:1007600009B2E27941EA02000AF038FA8246DC492D
:100770000AF0D8F8DB49C1F8AC00217A090209B2C5
:10078000627A41EA02000AF029FA8246D4490AF064
:10079000C9F8D449C1F8B000A1783A462846FFF715
:1007A00096FDD14802F029FDA078132804D1A17844
:1007B0003A462846FFF78BFDA078142804D1A1788B
:1007C0003A462846FFF783FDA078152804D1A17882
:1007D0003A462846FFF77BFD00BFB4E510B5044656
:1007E000C24805F060F910BD2DE9FC5F04460E46D5
:1007F00017469846DDE90CAB0025AA2229466D1C58
:1008000004F10F00425429466D1C425406F10F00BA
:10081000C2B229466D1C04F10F0042540022294641
:100820006D1C4254AE4938460AF038FA00900AF07E
:100830006FF900B201909DF8052029466D1C04F166
:100840000F0042549DF8042029466D1C4254A449CF
:1008500040460AF023FA00900AF05AF900B20190DB
:100860009DF8052029466D1C04F10F0042549DF8A7
:1008700004202846691CCDB204F10F010A5498499E
:1008800050460AF00BFA00900AF042F900B20190CB
:100890009DF805202846691CCDB204F10F010A54C9
:1008A0009DF804202846691CCDB204F10F010A54BA
:1008B0008B4958460AF0F2F900900AF029F900B283
:1008C00001909DF805202846691CCDB204F10F0166
:1008D0000A549DF804202846691CCDB204F10F018A
:1008E0000A547F490E980AF0D9F900900AF010F9DD
:1008F00000B201909DF805202846691CCDB204F194
:100900000F010A549DF804202846691CCDB204F159
:100910000F010A5472490F980AF0C0F900900AF0CA
:10092000F7F800B201909DF805202846691CCDB269
:1009300004F10F010A549DF804202846691CCDB229
:1009400004F10F010A54664910980AF0A7F90090C3
:100950000AF0DEF800B201909DF805202846691CD7
:10096000CDB204F10F010A549DF804202846691CF9
:10097000CDB204F10F010A54594911980AF08EF9C9
:1009800000900AF0C5F800B201909DF805202846B5
:10099000691CCDB204F10F010A549DF804202846C9
:1009A000691CCDB204F10F010A544D4912980AF0A6
:1009B00075F900900AF0ACF800B201909DF805209E
:1009C0002846691CCDB204F10F010A549DF8042099
:1009D0002846691CCDB204F10F010A54281FA074E7
:1009E0004FF00009002007E004F10F01095C4944C1
:1009F00001F0FF09411CC8B2A842F5DB2846691C7A
:100A0000CDB204F10F0101F800902A462046FFF70D
:100A100053FCBDE8FC9F2DE9F84304460E461746FB
:100A20000025AA2229466D1C04F10F0042542946D4
:100A30006D1C4254052229466D1C42540022294651
:100A40006D1C425400969DF8012029466D1C4254AD
:100A50009DF8002029466D1C425400979DF8012006
:100A600029466D1C42549DF800202846691CCDB2D1
:100A700004F10F010A54281FA0744FF00008002051
:100A800007E004F10F01095C414401F0FF08411C3B
:100A9000C8B2A842F5DB2846691CCDB204F10F01AB
:100AA00001F800802A462046FFF706FCBDE8F883DF
:100AB0007FB504460025AA2229466D1C04F10F00CB
:100AC000425429466D1C4254062229466D1C42544C
:100AD000002229466D1C42549DF80520294607E056
:100AE00000007A442001002052000020A8060020C7
:100AF0006D1C42549DF8042029466D1C42549DF8FB
:100B0000092029466D1C42549DF808202846691C7E
:100B1000CDB204F10F010A549DF80D202846691C3E
:100B2000CDB204F10F010A549DF80C202846691C2F
:100B3000CDB204F10F010A549DF821202846691C0A
:100B4000CDB204F10F010A549DF820202846691CFB
:100B5000CDB204F10F010A549DF825202846691CE6
:100B6000CDB204F10F010A549DF824202846691CD7
:100B7000CDB204F10F010A549DF829202846691CC2
:100B8000CDB204F10F010A549DF828202846691CB3
:100B9000CDB204F10F010A549DF82D202846691C9E
:100BA000CDB204F10F010A549DF82C202846691C8F
:100BB000CDB204F10F010A549DF831202846691C7A
:100BC000CDB204F10F010A549DF830202846691C6B
:100BD000CDB204F10F010A54281FA0740026002092
:100BE00006E004F10F01095C3144CEB2411CC8B2E9
:100BF000A842F6DB2846691CCDB204F10F010E5461
:100C00002A462046FFF758FB7FBD7FB504460025E6
:100C1000AA2229466D1C04F10F00425429466D1C7E
:100C20004254032229466D1C4254002229466D1C61
:100C300042549DF8052029466D1C42549DF804201D
:100C400029466D1C42549DF8092029466D1C4254CA
:100C50009DF808202846691CCDB204F10F010A5402
:100C60009DF80D202846691CCDB204F10F010A54ED
:100C70009DF80C202846691CCDB204F10F010A54DE
:100C80009DF821202846691CCDB204F10F010A54B9
:100C90009DF820202846691CCDB204F10F010A54AA
:100CA0009DF825202846691CCDB204F10F010A5495
:100CB0009DF824202846691CCDB204F10F010A5486
:100CC0009DF829202846691CCDB204F10F010A5471
:100CD0009DF828202846691CCDB204F10F010A5462
:100CE0009DF82D202846691CCDB204F10F010A544D
:100CF0009DF82C202846691CCDB204F10F010A543E
:100D00009DF831202846691CCDB204F10F010A5428
:100D10009DF830202846691CCDB204F10F010A5419
:100D20009DF835202846691CCDB204F10F010A5404
:100D30009DF834202846691CCDB204F10F010A54F5
:100D40009DF839202846691CCDB204F10F010A54E0
:100D50009DF838202846691CCDB204F10F010A54D1
:100D6000281FA0740026002006E004F10F01095C92
:100D70003144CEB2411CC8B2A842F6DB2846691CF9
:100D8000CDB204F10F010E542A462046FFF794FA23
:100D90007FBD2DE9F84304460E4617460025AA22DA
:100DA00029466D1C04F10F00425429466D1C425423
:100DB000072229466D1C4254002229466D1C4254CC
:100DC00000969DF8032029466D1C42549DF8022090
:100DD00029466D1C42549DF8012029466D1C425441
:100DE0009DF800202846691CCDB204F10F010A5479
:100DF00000979DF801202846691CCDB204F10F012F
:100E00000A549DF800202846691CCDB204F10F0158
:100E10000A54281FA0744FF00008002007E004F1D6
:100E20000F01095C414401F0FF08411CC8B2A8420F
:100E3000F5DB2846691CCDB204F10F0101F80080F2
:100E40002A462046FFF738FABDE8F8832DE9F84F27
:100E500004460E4617469846DDE90AAB0025AA224D
:100E600029466D1C04F10F00425429466D1C425462
:100E7000022229466D1C4254002229466D1C425410
:100E800000969DF8012029466D1C42549DF80020D3
:100E900029466D1C425400979DF8012029466D1C7F
:100EA00042549DF800202846691CCDB204F10F0180
:100EB0000A54CDF800809DF801202846691CCDB267
:100EC00004F10F010A549DF800202846691CCDB298
:100ED00004F10F010A54CDF800A09DF80120284626
:100EE000691CCDB204F10F010A549DF80020284678
:100EF000691CCDB204F10F010A54CDF800B09DF881
:100F000001202846691CCDB204F10F010A549DF856
:100F100000202846691CCDB204F10F010A540C9838
:100F200000909DF801202846691CCDB204F10F0104
:100F30000A549DF800202846691CCDB204F10F0127
:100F40000A540D9800909DF801202846691CCDB2E6
:100F500004F10F010A549DF800202846691CCDB207
:100F600004F10F010A540E9800909DF801202846C4
:100F7000691CCDB204F10F010A549DF800202846E7
:100F8000691CCDB204F10F010A540F9800909DF82E
:100F900001202846691CCDB204F10F010A549DF8C6
:100FA00000202846691CCDB204F10F010A54281F05
:100FB000A0744FF00009002007E004F10F01095C64
:100FC000494401F0FF09411CC8B2A842F5DB28469C
:100FD000691CCDB204F10F0101F800902A462046A9
:100FE000FFF76AF9BDE8F88F2DE9FE4F04460E467B
:100FF00017469846DDE90CAB0025CDF804A0AA22DF
:1010000029466D1C04F10F00425429466D1C4254C0
:10101000012229466D1C4254002229466D1C42546F
:10102000FE49304609F03AFE009009F071FD00B229
:1010300002909DF8092029466D1C04F10F004254CE
:101040009DF8082029466D1C4254F449384609F0A1
:1010500025FE009009F05CFD00B202909DF8092089
:1010600029466D1C04F10F0042549DF808202846C3
:10107000691CCDB204F10F010A54E849404609F059
:101080000DFE009009F044FD00B202909DF8092089
:101090002846691CCDB204F10F010A549DF80820BE
:1010A0002846691CCDB204F10F010A549DF80720AF
:1010B0002846691CCDB204F10F010A549DF80620A0
:1010C0002846691CCDB204F10F010A549DF8052091
:1010D0002846691CCDB204F10F010A549DF8042082
:1010E0002846691CCDB204F10F010A542846691C38
:1010F000CDB204F10F0101F800B029466A1CD5B247
:1011000004F10F020E985054281FA0744FF00009EC
:10111000002007E004F10F01095C494401F0FF09D8
:10112000411CC8B2A842F5DB2846691CCDB204F1C7
:101130000F0101F800902A462046FFF7BDF8BDE8F0
:10114000FE8F2DE9FF4104460E460025AA222946BE
:101150006D1C04F10F00425429466D1C42540022BC
:1011600029466D1C425429466D1C425429466D1C6B
:1011700046549DF8092029466D1C42549DF80820CC
:1011800029466D1C42549DF80D202846691CCDB29D
:1011900004F10F010A549DF80C202846691CCDB2B9
:1011A00004F10F010A549DF829202846691CCDB28C
:1011B00004F10F010A549DF828202846691CCDB27D
:1011C00004F10F010A549DF82D202846691CCDB268
:1011D00004F10F010A549DF82C202846691CCDB259
:1011E00004F10F010A54281FA0740027002006E014
:1011F00004F10F01095C3944CFB2411CC8B2A842C6
:10120000F6DB2846691CCDB204F10F010F542A46C3
:101210002046FFF751F8BDE8FF812DE9F04788B07F
:1012200004467F4800787F49097890FBF1F201FB82
:1012300012017C480078401E814201D10120A0703B
:10124000774800787849097890FBF1F201FB1201A8
:1012500075480078401E814201D10120E07070483D
:1012600000787249097890FBF1F201FB12016F4896
:101270000078401E814201D10120607368480078E7
:101280006B49097890FBF1F201FB12016848007884
:10129000401E814201D1012060706148007865499B
:1012A000097890FBF1F201FB120162480078401EC0
:1012B000814201D10120A072594800785E49097825
:1012C00090FBF1F201FB12015B480078401E814265
:1012D00001D101202073524800785849097890FBC9
:1012E000F1F201FB120155480078401E814201D104
:1012F0000120A0734A480078401C494908702078B2
:1013000068B1002020704FF4C8716E234FF49672BC
:10131000CDE9001001212046FFF713FF44E160787A
:10132000A8B1002060704649086B09F0F1FB054642
:101330004448407A4349097BCDE900510290424834
:101340008368426801682046FFF74EFE2CE1607B0F
:1013500010B10020607327E1A07880B30020A07056
:101360003949486909F0D4FB05B23749086909F0E1
:10137000CFFB06B23449C86809F0CAFB07B232494C
:10138000C86A09F0C5FB0FFA80F82F49886A09F08E
:10139000BFFB0FFA80F92C49486A09F0B9FB0FFA34
:1013A00080FA0020CDE90250049043464A46514657
:1013B000CDE9007605902046FFF748FDF4E0FFE711
:1013C000E078A0B10020E0701D48806800EBC00309
:1013D00003EB00104FF6FF7303EA800218484068E1
:1013E000642300FB03F12046FFF7D3FCDCE0A07A86
:1013F00098B10020A0721548408A1449098A134AFE
:10140000D289124B9B89CDE90332CDE905100F48F3
:10141000418900890D4A52881AE024E00000C84240
:10142000020000200300002009000020040000202A
:101430000500002006000020070000200800002012
:1014400004050020CC00002018020020D805002050
:10145000CDE900200291614803888288C188204636
:10146000FFF7D3FBA0E0207B80B30020207305A909
:101470005B4801F0E1F800200AE005A931F81010FE
:10148000A1F57A7109B205AA22F81010411CC8B260
:101490000628F2DB0022BDF81E0080B2BDF81C1049
:1014A00089B2CDE9020204920191BDF81A0080B21E
:1014B0000090BDF8180083B2BDF8160082B2BDF8E6
:1014C000140081B22046FFF7F3FA6DE0FFE7A07B3E
:1014D00080B10020A07343494348006809F0DEFB57
:1014E000064609F05BFB85B2002229462046FFF73D
:1014F00092FA59E02079E8B1002020713B48016C54
:10150000C06B3A4A926B394B5B6ACDE90332CDE945
:1015100005013648006A3549C969344A9268CDE9FF
:101520000021029031484368012102682046FFF7FC
:101530005BF939E06079F0B1002060712B48D0F898
:101540009420D0F89010D0F88C00284B9B6FCDE9F8
:101550000330CDE905122548416F006F234AD26D53
:10156000CDE9002002912148836D0221426D204681
:10157000FFF73AF918E0A079B0B10020A07103900C
:10158000049005900146024606901848D0F8B00035
:10159000CDE9012100901548D0F8AC300321D0F8F6
:1015A000A8202046FFF720F908B0BDE8F0871049D1
:1015B00009781E290CDD00210D4A11700D49897A28
:1015C00019B901220B498A7202E0002209494A72C4
:1015D00007490978491C064A11707047D805002050
:1015E000F80400200000C84268000020200100200C
:1015F0000A000020CC0000202DE9F04781460C466F
:1016000015462946C34809F049FB804641464FF03C
:101610007E5009F087F90746214609F00FF9064682
:101620003146204609F07EF9BDE8F0872DE9F84FF4
:101630000F4615461C462946B64809F02FFB814641
:10164000394609F02BFB804641464FF07E5009F0A9
:1016500069F906463146B04809F020FB824631461A
:10166000304609F01BFB8346514609F0E7F88146F6
:101670004FF07E5109F0E2F8804641464FF07E502F
:1016800009F050F920603146A34809F007FB834672
:101690003146304609F002FB5946009009F0CEF879
:1016A00082464FF07E5109F0C9F8804631469A488B
:1016B00009F0F4FA314600904FF0804009F0EEFA5C
:1016C0008346314609F0EAFA8246009909F0B6F8F5
:1016D0008146414609F026F9606031468E4809F09E
:1016E000DDFA83463146304609F0D8FA5946009073
:1016F00009F0A4F881464FF07E5109F09FF880462A
:101700003146304609F0CAFA8246414609F00AF9E4
:10171000A060BDE8F88F2DE9F04107460D4614465C
:101720002146284609F08AF806463146204609F047
:10173000F9F8BDE8F0810FB4F0B58DB005460F465D
:101740001A9C224617A904A808F046FC04A807C85A
:1017500007AB07C321464FF07E5009F05FFC0646F9
:10176000324614A901A808F037FC01A807C80AAB43
:1017700007C307AA0AA9284608F04AFC0DB0F0BC26
:101780005DF814FB0FB470B59EB005460E461446C6
:101790000FA8002181604160016000BF04F10C01CD
:1017A0000CA8A26808F018FC0CA807C812AB07C365
:1017B00004F1180109A8626808F00EFC09A807C81E
:1017C00015AB07C325A906A8226808F005FC06A8E2
:1017D00007C818AB07C315AA18A903A808F018FC76
:1017E00003A807C81BAB07C312AA1BA9684608F0C9
:1017F000BBFB9DE807000FAB07C3D4E90712A06944
:10180000C4E90412E0600FA807C8C4E90712A06188
:101810000FA807C885E807001EB070BC5DF814FB70
:101820002DE9F05F83460C4615463C48A1680068E8
:1018300009F034FA80463A486168006809F02EFAE7
:1018400081462846216809F029FA8246494608F06F
:10185000F5FF0746414609F0E1FB064630480068BF
:101860002E4908602E480660304609F051F9BDE85F
:10187000F09F2DE9F05F83460C4615462948A16884
:10188000006809F00BFA804627486168006809F093
:1018900005FA81462846216809F000FA8246494641
:1018A00008F0CCFF0746414609F0B8FB06461E4843
:1018B00000681C4908601C480660304609F028F999
:1018C000BDE8F09F0FB4F0B58DB005460F461A9CE9
:1018D00021464FF07E5009F0A1FB0646324617A97B
:1018E00004A808F079FB04A807C807AB07C3224681
:1018F00014A901A808F070FB01A807C80AAB07C328
:1019000007AA0AA9284608F083FB0DB0F0BC5DF8D1
:1019100014FB0000DB0FC940000040401000002015
:101920000C000020180000201400002038B50446E8
:10193000DC48DD4BDD4A11460090204607F01FFAD7
:10194000D848D94BD94A1146009004F11C0007F041
:1019500016FAD4480023D64AD649009004F138003C
:1019600007F00DFA002003460246D349009004F127
:10197000540007F004FA0020034602464FF080416D
:10198000009004F1700007F0FAF9CC48CC4B4FF00E
:101990007C524FF07F51009004F18C0007F0EFF97A
:1019A000C04800231A46C749009004F1A80007F078
:1019B000E6F938BD10B5044607231C22C24920466B
:1019C00007F004FA044604F1C40008F04FFAA0F14D
:1019D000C40404F1D00008F049FAA0F1D00404F1E5
:1019E000EC0008F043FAA0F1EC04962004F8DC0FB8
:1019F000322060706420E082DC3C2046FFF796FFD6
:101A0000204610BD10B50446B049086B09F080F8B7
:101A1000C4F8D80010BD2DE9F04188B0044603A8F1
:101A2000002181604160016000BFA9490868A9499F
:101A300009F034F90746A849B1F9141048004FF4E9
:101A4000AF72514202F0D9F8804609F0C7F8064655
:101A5000394609F0E3FA054609F05AF806909C4920
:101A600048689C4909F01AF907469B49B1F91610D4
:101A700048004FF4AF72514202F0BFF8804609F0BF
:101A8000ADF80646394609F0C9FA054609F040F8AE
:101A900007900221069802F0BBF8069002210798F1
:101AA00002F0B6F807904FF0814289491831684634
:101AB00008F03EFA9DE8070003AB07C304F15400A9
:101AC000069901F079FD074609F088F80646039962
:101AD00009F0A4FA054609F01BF8C4F8E00004F187
:101AE0005400079901F068FD074609F077F80646AB
:101AF000049909F093FA054609F00AF8E42108511F
:101B000094F8DD007449B1F9181000FB01F5E917EC
:101B100005EBD161481109F061F80746059909F014
:101B20007DFA064608F0F4FFE821085108B0BDE848
:101B3000F0812DE9FF47054665494868002109F015
:101B400079F902D26248406803E06148406880F059
:101B5000004007465E490868002109F06BF902D28F
:101B60005B48006803E05A48006880F00040804607
:101B7000394609F05FF90DD255490868002109F08E
:101B800059F902D25248006811E05148006880F0CB
:101B900000400CE04E494868002109F04BF902D2A0
:101BA0004B48406803E04A48406880F000400446E3
:101BB0004A4A002101F0E7FF064600241AE04648A1
:101BC000C088B0F5966F05DAC4EBC40105EB81005F
:101BD00001F02CFD05F1E00252F82410C4EBC40220
:101BE00005EB8200364A01F0F7FC01A941F8240018
:101BF000601CC4B2032CE2DB374BB3F91830002B66
:101C000003DD354BB3F9183003E0334BB3F918302B
:101C10005B4203F59672304BB3F91830002B03DDAD
:101C20002D4BB3F9183003E02B4BB3F918305B425E
:101C30002B4CE11A039801F0E0FF40420390294841
:101C4000007BD8B9304601F0F4FF824607F04CFB28
:101C500080462149B1F91A10A1F57A7008F0BEFF4B
:101C60008146414608F05EFE07461F4908F0E6FD42
:101C7000044608F04DFF01B21748418303980090D5
:101C80001548408B81B21948DDE9012300F07EFA46
:101C9000BDE8FF877047704710B51548FFF78AFE0B
:101CA00010BD0000000048430AD7A33C9A99193E92
:101CB0006666E63ECDCC4C3F0000A04000001643D7
:101CC0006F12033B9A99993F8D8D000804050020FF
:101CD0001802002000002041D80500200000A0418B
:101CE000D4FEFFFFCC00002000007A44F80400205E
:101CF0002001002010B50446204600BF04462046BF
:101D000008F083F8044604F10C0008F07EF8A0F116
:101D10000C0404F1180008F078F8A0F1180404F19C
:101D2000240008F072F8A0F1240404F1300008F057
:101D30006CF8A0F1300404F13C0006F0E4FFA0F1DF
:101D40003C0404F1600006F0DEFFA0F1600404F141
:101D5000880006F0E7FFA0F1880404F5C87006F0DB
:101D6000E1FFA0F5C87404F527704FF07E510160C3
:101D70000021C1608160416000BFA0F5277420464A
:101D800010BD10B5044662224FF47A71E84803F0A2
:101D900075F910BD10B50446E64AE7492046FFF73D
:101DA0002BFCE649086004F13C03E24AE249204684
:101DB000FFF73CFC04F16003E14ADF492046FFF7EE
:101DC00035FCE04ADC492046FFF7A5FCDB494860CA
:101DD00010BD10B504462046FFF7DCFF2046FFF794
:101DE000D0FF10BD3EB50446D14803F019FAD048E3
:101DF00003F0E9FACE49684603F049FB9DE8070085
:101E0000C4E90412E060CA49684603F039FB9DE862
:101E10000700C4E90A1260623EBD3FB599B00446AE
:101E2000239DC948007800F0010060B9C64806F05B
:101E3000DFFF40B100231A461946C44807F0E1FF0E
:101E4000C148AFF3008020A807F0D0FF0DA807F02D
:101E5000DCFF0DA904F5277002F01CF80AA807F0B2
:101E6000D4FF0DAA20A907A808F0EEF807A807C814
:101E70000AAB07C3B64A0AA907A808F0ADF807A835
:101E800007C816AB07C316A9B04807F0DBFF4FF031
:101E900080420AA907A808F09FF807A807C810AB56
:101EA00007C310AA1AA904A808F0B2F804A807C822
:101EB00013AB07C3A54A13A901A808F0A9F801A804
:101EC00007C81AAB07C32A461AA904F5277002F0FF
:101ED00052F804F5277001F023FF04F10803221DD6
:101EE000214604F5277002F0D8F91DB030BD2DE968
:101EF000F04782460C4697490968601A08F03AFA9A
:101F00000746954A954B08F085FA054608F0D8F83B
:101F10008146904804604846BDE8F0872DE9F043CB
:101F200095B004460EA807F023FF08A807F020FF8D
:101F3000D4E90A01CDE9000104F13C02214605A8DB
:101F4000636AFFF71FFC05A807C8C4E90D122063E8
:101F5000D4E90401CDE9000104F16002214605A89D
:101F6000E368FFF70FFC05A807C8C4E90712A061E2
:101F700004F130052946284608F012F881467849D0
:101F800008F08CFE80464FF0974108F0CBFC0746E6
:101F900008F0BEFDC4F8AC0202F032FA054629464C
:101FA0002046FFF7A4FF0646206A0090604905A876
:101FB000D4E9062303F072FA0396D4E90D12206BDC
:101FC0008DE80700204605A90EC9FFF726FF15B0CA
:101FD000BDE8F0832DE9F0418CB080460C4603A8A3
:101FE00007F0B2FE684607F010FF206801F021FEFE
:101FF00080F00045606801F01CFE80F00046A0689B
:1020000001F017FE074600950196029700BF69464A
:1020100003A807F015FE04F1300203A9404607F0BB
:102020002EFF0CB0BDE8F0813FB59DB00446279D62
:1020300024A807F0DBFE14A807F0E7FE0BA807F0C2
:1020400083FE484A1EA908A807F0E2FF08A807C8AF
:1020500017AB07C32A4617A905A807F0BDFF05A8B7
:1020600007C81AAB07C34FF07C521AA902A807F0A1
:10207000B3FF02A807C814AB07C33A481EA90EC98C
:102080000EC014A90BA807F0DBFD374A0BA908A85E
:1020900007F0F5FE29484068049024A807C801AB62
:1020A00007C30A980090214605A8DDE90823FFF739
:1020B00009FC2D4805A90EC90EC021460C3807F0B1
:1020C0005FFE2A4A0BA908A807F0D9FE1B48406802
:1020D000049024A807C801AB07C30A9800902146C2
:1020E00005A8DDE90823FFF7EDFB204805A90EC987
:1020F0000EC021460C3807F06DFE21B030BD10B582
:102100001B48FFF7F7FD00231A461946154807F04C
:1021100078FE4FF08B4300221146134807F071FE02
:1021200000231A464FF08B41104807F06AFE10BD9D
:1021300028060020000048426F12033BCC0000201C
:10214000000002436666E63F20000020EC04002009
:102150006F12833A1C0000208DEDB5A0F7C6B03E8B
:102160000000C842C8040020D4040020E00400207D
:10217000180200200146002005E04FF47A7221F891
:102180001020421CD0B20628F7DB70472DE9F04F33
:102190008FB004460D4616469B46DDF860A0FE480B
:1021A000808B08BBFD49C86A4FF08C4108F042FEA5
:1021B00011D2FB48407A70B1FA48006804280AD16D
:1021C0000320F849086040F2DC50F7490880C82035
:1021D000F649088035E0F048C088B0F5966F30DDEC
:1021E0000020F04908602CE0EB48808B012817D1D3
:1021F000EC48006804280AD10120EA4908604FF43D
:10220000C860E94908804620E849088019E0E248AA
:10221000C088B0F5966F14DD0020E249086010E038
:10222000DD48808B022805D1DE48006810B9E048FF
:10223000008830B1D848808B032802D10420D949C6
:102240000860DA480088401E80B2D849088008B982
:1022500032200880D3480068052813D1D54800886B
:10226000401ED44908800846008858B90120D0494A
:1022700008800220CB4908601420CF490880002044
:10228000CE490880C7480068062843D2DFE800F03E
:1022900003042023423F3EE0C448008832280AD18C
:1022A000C148008840F24C41884204DBBE480088A7
:1022B0001438BD490880BC48008840F21451884257
:1022C00003DC4FF47A70B8490880B748058822E0EB
:1022D0004FF4FA651FE0B548008832280AD1B248A9
:1022E000008840F24C41884204DBAF4800880D383A
:1022F000AD490880AC48008840F21451884203DCA4
:102300004FF47A70A8490880A748058803E040F296
:10231000DC5500E000BF00BF504608F014F8CDE9DE
:102320000A01584608F00FF80746A54AA54B08F0E1
:1023300071F8CDE90601304608F005F8074600229D
:10234000A14B08F067F8CDE90201284608F012F821
:10235000CDE90001DDE9022308F05AF9CDE90401D5
:10236000DDE9062307F0DEFECDE90801DDE90A23F9
:1023700007F0D8FECDE90C0107F088FF00B2A0807D
:10238000504607F0E0FFCDE90A01584607F0DBFFB1
:1023900007468B4A8B4B08F03DF8CDE906013046E5
:1023A00007F0D1FF07460022874B08F033F8CDE94C
:1023B0000201284607F0DEFFCDE90001DDE9022336
:1023C00008F026F9CDE90401DDE9062308F020F93B
:1023D000CDE90801DDE90A2307F0A4FECDE90C01EF
:1023E00007F054FF00B26080504607F0ACFFCDE923
:1023F0000A01584607F0A7FF0746714A714B08F0DB
:1024000009F8CDE90601304607F09DFF0746002296
:102410006D4B07F0FFFFCDE90201284607F0AAFF48
:10242000CDE90001DDE9022307F07CFECDE90401DE
:10243000DDE9062307F076FECDE90801DDE90A2390
:1024400008F0E6F8CDE90C0107F020FF00B220808B
:10245000504607F078FFCDE90A01584607F073FFB0
:102460000746574A574B07F0D5FFCDE906013046DE
:1024700007F069FF0022544BCDE9000107F0CAFFC5
:10248000CDE90201284607F075FF0746DDE9022382
:1024900007F048FECDE90401DDE9062308F0B8F8AD
:1024A000CDE90801DDE90A2308F0B2F8CDE90C0115
:1024B00007F0ECFE00B2E080A81BA0EB0A0000B21F
:1024C0006081A819504400B2208136480068022873
:1024D0000BD128B2A08028B2608028B2208028B218
:1024E000E08028B2608128B22081B4F900900120F8
:1024F00007E034F91010494501DD34F91090411C12
:10250000C8B20628F5DB002718E0B9F5E16F07DD52
:1025100034F81710A9F5E160081A00B224F8170082
:1025200034F8171088B24FF4E1624FF47A7101F079
:1025300059FB00B224F81700781CC7B2062FE4DB61
:102540001649086908F02AFB2049088015480068E8
:1025500002284FD10846008808F058FB06900F4823
:102560000169069808F06AF9079008F03BF90746F8
:10257000174A184B07F04EFFCDE90A010F480088B3
:1025800007F0F8FECDE90801DDE90A2307F0CAFDEE
:10259000CDE90C0120E00000D80500201802002041
:1025A000CC00002024000020280000202A00002069
:1025B000300000202C0000202E00002032000020DF
:1025C00083C0CAA145B6EB3F0000E03F34000020C5
:1025D000FCA9F1D24D62603F07F088FE1D490880DA
:1025E00000206080E08008460088912802DB0120FE
:1025F000194908601948407A10B1B5F57A7F02D1BF
:102600002046FFF7B7FD1548407A70B112480068C0
:10261000042807D01048006838B91148C088B0F5C0
:10262000966F02DA2046FFF7A5FD21460D4803F01C
:1026300024FB0FB0BDE8F08F02880A8042884A80F0
:1026400082888A80C288CA8002890A8142894A8136
:10265000704700003200002024000020CC00002041
:10266000D80500209B00002010B50446204600BF7E
:10267000044604F1100007F0C8FBA0F1100404F1B7
:102680001C0007F0C2FBA0F11C0404F1280007F0B5
:10269000BCFBA0F1280404F1340007F0B6FBA0F164
:1026A000340404F1400007F0B0FBA0F1400404F151
:1026B000500006F028FBA0F1500404F1740006F06D
:1026C00022FBA0F1740404F1B40007F09EFBA0F11A
:1026D000B4044FF082431A46194604F1B40007F0DF
:1026E00099FBFE489834A0614FF48020A062FC481A
:1026F00044F89809FB499C200151FB49A020015155
:10270000FA49A4200151FA49A8200151F949AC2005
:102710000151204610BD10B50446F74802F036FFBF
:1027200010BD10B5044604F15003F44AF4492046A4
:10273000FEF77CFF04F17403F24AF1492046FEF7EC
:1027400075FF10BD10B504462046FFF7EAFF20468E
:10275000FFF7E1FF10BD01B5AEB017A807F055FBBC
:1027600014A807F052FBE84800680A2803D0E7489D
:10277000007802287DD10020E44908705521E34803
:1027800003F020FC0020E049086001F039FEE04938
:102790000968401A0F9007F0EDFDDE4ADE4BCDE9E7
:1027A000100107F037FECDE9120107F089FC1A90FD
:1027B00001F026FED64908602E98C068129008F0F5
:1027C0000DFA024613902E9974312E98FFF751F8A6
:1027D0002E9988602E988068D0490968401A119017
:1027E00008F014FA12901A9908F09CF8139008F067
:1027F0008FF901B22E9841802E988068C7490860F1
:102800002E98B0F902004FF4FA525142139001F0A1
:10281000F4F901B22E9841802E98B0F9020064219B
:10282000139001F0F5F901B22E9841802E98C068FE
:10283000BA490968884205D1B9480078401CB849AE
:10284000087002E00021B64801702E98C068B349B4
:1028500008602E98806800280FDD2E988068B0F5FB
:102860007A7F0ADAAE4800781E2806DA01212E980F
:1028700000E006E080F8D01003E000212E9880F8F8
:10288000D010A1480068401C9F490860A548006816
:10289000052803D1984802F08EFF09E2A14800689C
:1028A0000A28FAD101F0ACFD9F490968401A0F903F
:1028B00007F060FD974A984BCDE9100107F0AAFD9B
:1028C000CDE9120107F0FCFB1A9001F099FD964941
:1028D0000860002193480160874802F06CFF864839
:1028E00002F085FF129008F079F9024613902E99B4
:1028F00050312E98FEF794FF2E9948602E9841682B
:10290000D0F8C400081A119008F068F912901A99CA
:1029100008F008F8139008F0FBF801B22E98018037
:102920002E984168C0F8C4102E98B0F900004FF4FA
:1029300048725142139001F060F901B22E98018063
:102940002E98B0F900000A21139001F061F901B24C
:102950002E9801802E9890F8D00000287ED02E98D6
:10296000B0F90200119008F039F912902E98406ADF
:1029700001461190129808F051FB139016980146E9
:102980001290139807F05AFF16902E98D0F8A000D6
:10299000014608904FF07E5008F040FB099007F088
:1029A00021FFCDE90C012E98B0F90200079007F045
:1029B000CAFC5E4A5E4BCDE9080107F02BFDCDE96C
:1029C0000A01DDE90C2307F025FDCDE910012E9861
:1029D000D0F8A0000C902E98406A0B900C9908F04B
:1029E0005DF90D9007F0FEFECDE90E01DDE9102343
:1029F00007F098FBCDE9120107F062FB01462E9823
:102A000041622E98D0F8AC00014608904FF07E50FD
:102A100008F004FB099007F0E5FECDE90C012E98C3
:102A20008068079007F08FFC404A414BCDE90801D0
:102A300007F0F0FCCDE90A01DDE90C2307F0EAFC20
:102A4000CDE910012E98D0F8AC000C902E98006BB8
:102A50000B900C9908F022F90D9000E07AE007F055
:102A6000C1FECDE90E01DDE9102307F05BFBCDE9E6
:102A7000120107F025FB01462E9801632E9840684D
:102A8000039007F060FCCDE906012E988068019064
:102A900007F059FC254A264BCDE9020107F0BAFCA4
:102AA000CDE90401DDE9062307F0B2FDCDE9080117
:102AB00007F006FB0B9007F095FE1E4A1E4BCDE972
:102AC0000C0107F0A7FCCDE910012E98D0F8CC003E
:102AD0000D9007F038FCCDE90E012FE0FFCF743EDA
:102AE000CDCC4C3F52B87E3FA4707D3F0AD7A33B6C
:102AF000F6287C3F3333733F800600200000A0405F
:102B00000AD7A33C000048423C0000209C00002063
:102B1000480000208DEDB5A0F7C6B03E4C00002067
:102B20005000002038000020440000209A99999914
:102B30009999B93FFCA9F1D24D62503FDDE91023CC
:102B400007F0F0FACDE9120107F0A0FB2E99C1F8C9
:102B5000CC00ADE02E98B0F90000119008F03EF8DE
:102B600012902E98406A01461190129808F056FA79
:102B70001390169801461290139807F05FFE169076
:102B80002E98D0F8A400119016981090119908F082
:102B900085F813902E98D0F89C0001460D904FF0C8
:102BA0007E5008F03BFA0F902E98B0F900000D907F
:102BB00008F014F80E900F9908F070F811902E9804
:102BC000D0F89C000F902E98406A0E900F9908F054
:102BD00065F81090119907F031FE1290139907F0E3
:102BE0002DFE01462E9841622E98D0F8A80001468D
:102BF0000F904FF07E5008F011FA11902E98416816
:102C0000D0F8CC0008440F9007F0E8FF109011991D
:102C100008F044F813902E98D0F8A80011902E9840
:102C2000006B1090119908F039F81290139907F081
:102C300005FE01462E9801632E984068109007F01B
:102C4000CDFF11902E98006B01461090119808F05E
:102C5000E5F90021129008F0EDF80DD22E984068A9
:102C6000119007F0BBFF12902E98006B0146119057
:102C7000129808F0D3F90EE02E984068119007F0F2
:102C8000ADFF12902E98006B01461190129808F03B
:102C9000C5F980F000409A49139008F0CBF807D2AC
:102CA0002E984068139007F099FF01462E98016313
:102CB00094480068401C9349086001F0A1FB9249C8
:102CC0000968401A0F9007F055FB904A904BCDE9E8
:102CD000100107F09FFBCDE9120107F0F1F91A90FE
:102CE00001F08EFB884908608A4911A8FFF772F944
:102CF00011A807C817AB07C38748407A08BB2E98AE
:102D0000D0F8C000C117139000EB916081112E988C
:102D1000D0F8C000411A2E98C0F8C0102E98D0F8F4
:102D2000C000119007F05AFF1290199801461190B7
:102D3000129807F083FD139007F0EAFE2E99C1F870
:102D4000C0002E98D0F8C000C117139000EB91601E
:102D50008011119007F042FF1290199801461190CE
:102D6000129808F0C9F819902E98D0F8B4000F9076
:102D700007F0CEFE119017980F9007F0C9FE109043
:102D8000119900F045FF129007F028FF13902E983C
:102D9000D0F8B00001461290139807F07FFF2E99EB
:102DA00008612E98D0F8B8000F9007F0B1FE11908E
:102DB00018980F9007F0ACFE1090119900F028FFC2
:102DC000129007F00BFF80F0004013902E98D0F87F
:102DD000B00001461290139807F060FF01462E984C
:102DE00041612E98D0F8BC000F9007F091FE119031
:102DF00019980F9007F08CFE1090119900F008FFC1
:102E0000129007F0EBFE13902E98D0F8B000014618
:102E10001290139807F042FF01462E9881612E9A76
:102E200040322E991C3111A807F0F2F811A807C8FA
:102E300024AB07C324A90EA81A9A07F0CDF80EA850
:102E400007C827AB07C34FF07C5227A90BA807F090
:102E5000C3F80BA807C82AAB07C32AA92E982830A5
:102E600006F0F0FF2E98D0E90823C16940300EC06B
:102E70002E9A34322E99103111A807F0C9F811A8F2
:102E800007C81BAB07C31BA90EA81A9A07F0A4F822
:102E90000EA807C81EAB07C34FF07C521EA90BA893
:102EA00007F09AF80BA807C821AB07C321A92E98F1
:102EB0001C3006F0C7FF2E98D0E905230169343095
:102EC0000EC02FB000BD10B5044600231A461946A7
:102ED00004F1100006F09EFF00231A46194604F183
:102EE0001C0006F097FF00231A46194604F128003B
:102EF00006F090FF10BD10B50848FFF7B5FB10BDF8
:102F00000000484338000020400000208DEDB5A0AF
:102F1000F7C6B03E18020020CC00002004050020B7
:102F200010B50446FE490888FE49098801F036FEBE
:102F300010BD1CB50446FA490889694601F089FCB0
:102F4000F74948890DF1020101F083FCF4498889B1
:102F500001A901F07EFCBDF8000000B2F249088131
:102F6000BDF8020001B2F0484181BDF8040001B291
:102F7000ED4881811CBD1CB50446E9494888694675
:102F800001F067FCE64988880DF1020101F061FC5F
:102F9000E349C88801A901F05CFCBDF8000000B25B
:102FA000E1494880BDF8020001B2DF488180BDF8E8
:102FB000040001B2DC48C1801CBD38B50446D849C4
:102FC000C889694601F045FCBDF8000007F01EFE07
:102FD0000546D64907F0A6FCD5490860D049088ABD
:102FE000694601F036FCBDF8000007F00FFE05460B
:102FF000CE4907F097FCCE494860C949488A6946DE
:1030000001F027FCBDF8000007F000FE0546C949A5
:1030100007F088FCC6498860C149888A694601F082
:1030200018FCBDF8000007F0F1FD0546BF4907F0A8
:1030300079FCBF49C861BA49C88A694601F009FCF0
:10304000BDF8000007F0E2FD0546B84907F06AFC4C
:10305000B7490862B249088B694601F0FAFBBDF82E
:10306000000007F0D3FD0546B24907F05BFCB0490C
:103070004862AB49488B694601F0EBFBBDF80000A4
:1030800007F0C4FD0546A94907F04CFCA849886330
:10309000A349888B694601F0DCFBBDF8000007F00E
:1030A000B5FD0546A14907F03DFCA149C8639C490F
:1030B000C88B694601F0CDFBBDF8000007F0A6FD06
:1030C00005469C4907F02EFC994908649449088CF0
:1030D000694601F0BEFBBDF8000007F097FD05460C
:1030E000924907F01FFC9249C1F8A8008C49488C0E
:1030F000694601F0AEFBBDF8000007F087FD05460C
:103100008A4907F00FFC8A49C1F8AC008449888CD1
:10311000694601F09EFBBDF8000007F077FD05460B
:10312000844907F0FFFB8249C1F8B0007C49C88C94
:10313000694601F08EFBBDF8000007F067FD05460B
:103140007A4907F0EFFB7A4948657549088D694669
:1031500001F07FFBBDF8000007F058FD05467349FC
:1031600007F0E0FB724988656D49488D694601F0BA
:1031700070FBBDF8000007F049FD05466D4907F0FA
:10318000D1FB6B49C8656649888D694601F061FBD2
:10319000BDF8000007F03AFD0546644907F0C2FBA0
:1031A000634908675E49C88D694601F052FBBDF866
:1031B000000007F02BFD05465C4907F0B3FB5C49B6
:1031C00048675749088E694601F043FBBDF8000087
:1031D00007F01CFD0546574907F0A4FB54498867D2
:1031E00038BD10B504462046FFF7E7FE2046FFF73E
:1031F000C2FE2046FFF79DFE10BD70B505464C4946
:1032000008684A4907F04AFD064607F0C7FC84B241
:103210004349C889214601F0C1FC454948684349F2
:1032200007F03CFD064607F0B9FC84B23C49088A29
:10323000214601F0B3FC3E4988683E4907F02EFD67
:10324000064607F0ABFC84B23549488A214601F0B6
:10325000A5FC3749C869354907F020FD064607F047
:103260009DFC84B22E49888A214601F097FC3049A2
:10327000086A2E4907F012FD064607F08FFC84B25B
:103280002749C88A214601F089FC2949486A294909
:1032900007F004FD064607F081FC84B22049088B44
:1032A000214601F07BFC2249886B204907F0F6FC9F
:1032B000064607F073FC84B21949488B214601F099
:1032C0006DFC1B49C86B194907F0E8FC064607F07E
:1032D00065FC84B21249888B214601F05FFC1449D9
:1032E000086C144907F0DAFC064607F057FC84B274
:1032F0000B49C88B214601F051FC0D49D1F8A800BB
:103300000A4907F0CBFC064607F048FC84B20449A2
:10331000088C214601F042FC0549D1F8AC000BE0D5
:10332000EEB1000854000020280600200000C8422A
:103330002001002000007A445E4907F0AFFC0646F9
:1033400007F02CFC84B25C49488C214601F026FC35
:103350005A49D1F8B0005A4907F0A0FC064607F0D8
:103360001DFC84B25449888C214601F017FC534956
:10337000486D504907F092FC064607F00FFC84B2F6
:103380004D49C88C214601F009FC4C49886D4949DA
:1033900007F084FC064607F001FC84B24649088D1C
:1033A000214601F0FBFB4549C86D454907F076FC15
:1033B000064607F0F3FB84B23F49488D214601F0F1
:1033C000EDFB3E49086F3B4907F068FC064607F0F5
:1033D000E5FB84B23849888D214601F0DFFB37498F
:1033E000486F344907F05AFC064607F0D7FB84B211
:1033F0003149C88D214601F0D1FB3049886F3049F1
:1034000007F04CFC064607F0C9FB84B22A49088E37
:10341000214601F0C3FB70BD38B504462649088833
:10342000694601F016FABDF8000038BD10B5044633
:103430002046FFF7F1FF23490988884202D0204641
:10344000FFF7DBFE2046FFF7CCFE2046FFF768FDC6
:1034500010BD10B504461C4A528891B2164A5088D5
:1034600001F09CFB184A928891B2134A908801F0AF
:1034700095FB154AD28891B20F4AD08801F08EFB95
:1034800010BD10B50446104A128991B20A4A10893B
:1034900001F084FB0C4A528991B2074A508901F02D
:1034A0007DFB094A928991B2034A908901F076FB2B
:1034B00010BD00000000C842EEB10008200100204D
:1034C00000007A4454000020280600202DE9F05F17
:1034D00004460E4617460021A06807F0E5FA3AD0E8
:1034E0000021384607F0E0FA35D0A06920F000410D
:1034F000C1F1FF41C90F19B100250020A06108E00A
:103500006169701A07F06AFB8046394607F00AFACB
:1035100005462846A16907F081FD8246394645489F
:1035200007F08CF983465946384607F0FBF9814687
:10353000514607F0B3FB8046A16907F07FF90546C5
:103540006661A5612946A06807F0A8FB804607F0E0
:10355000DFFABDE8F09F0020FBE72DE9F0470446C5
:103560000E4615460021606807F09EFA22D0002121
:10357000284607F099FA1DD0304607F02FFB814608
:10358000616807F08BFB8046294607F087FB0746FA
:10359000216907F053F92061E06880F00047024696
:1035A0003946206900F0EFFA2061206907F0B0FA8F
:1035B000BDE8F0870020FBE72DE9F04104460D4609
:1035C000284607F00BFB0746216807F067FB064615
:1035D00007F09EFABDE8F0812DE9F04104460D4662
:1035E000164629462046FFF7E7FF0746324629469A
:1035F0002046FFF7B2FF0744324629462046FFF730
:1036000065FF3844BDE8F0812DE9F04104460D46E0
:10361000164629462046FFF7CFFF07463246294681
:103620002046FFF79AFF3844BDE8F0810021016190
:10363000704700000361023C30B50146002013E0F2
:1036400000FB00F2193A32235A4302F6C4124243F5
:103650005A4340F6C41392FBF3F213B201F11E0277
:1036600022F81030421CD0B20728E9DB00202EE0FF
:1036700000EB80046400A4F132020123002A00DD83
:103680003223002A00DA3223002503FB03F495FBE2
:10369000F4F4643454430A2594FBF5F404F5FA7405
:1036A00025B201F12C0424F8105034F910404FF4E5
:1036B00048756C434FF47A7594FBF5F404F57A740D
:1036C00025B201F12C0424F81050421CD0B20C2871
:1036D000CEDB30BD10B504462046FFF7ADFF2046D7
:1036E00010BD2DE9F05F0446002060E034F81010B2
:1036F000A1F2DC51002904DD34F81010A1F2DC51F4
:1037000004E034F8101040F2DC52511AB1F5FA7F9F
:1037100010DA34F81010A1F2DC51002904DD34F87D
:103720001010A1F2DC5107E034F8101040F2DC5226
:10373000511A01E04FF4FA710E4602281FD064219D
:1037400096FBF1F504F11E016A1C31F9122031F9E2
:103750001510511A05EBC50202EB0512A6EB820209
:103760005143642291FBF2F204F11E0131F815106D
:1037700011440AB204F1140121F8102005E071424D
:103780000AB204F1140121F8102034F8101040F2AC
:10379000DC52914209DA04F1140131F81010494267
:1037A0000AB204F1140121F81020411CC8B2032808
:1037B0009CDBE0884FF4FA624FF4966100F012FA55
:1037C0000646A6F596604FF47A7148434FF4487167
:1037D000B0FBF1F6642096FBF0F59448007B08BB43
:1037E00004F12C00691C30F9111030F91500081A89
:1037F00005EBC50101EB0511A6EB810148436421EE
:1038000090FBF1F104F12C0030F81500084401B2EE
:103810006183E0884FF4FA624FF4966100F0E2F9B8
:1038200001B26183B4F91800002802DDB4F9180070
:1038300002E0B4F918004042462832DAE088B0F5D8
:10384000966F2EDD7A4AD2F89812906807F0E6FB60
:10385000804607F05DF907B217F1B40F02DC07F5F7
:10386000B47007B2B42F02DBA7F5B47007B2784288
:1038700007B2384607F0B2F983466E48016F5846E2
:1038800007F00CFA8146B4F9180007F0A7F9824650
:10389000494607F0C3FB804607F03AF901B221839D
:1038A00004E0634880686249C1F89802BDE8F09F6F
:1038B0000146002033E031F81020B2F5617F04DBCF
:1038C00031F81020B2F5FA6F00DD2AE031F810204F
:1038D000B2F5966F07DA584A125C584B1B781A43B8
:1038E000564B1A7006E0544A135C544A12789A43B5
:1038F000524B1A7031F81020B2F5E16F07DD504AD3
:10390000125C4E4B1B781A434C4B1A7006E04C4A23
:10391000135C4A4A12789A43484B1A70401C042898
:10392000C9DB00BF454A12784AB1464A1278FA2AE2
:103930000ADA444A1278521C424B1A7004E0002200
:10394000404B1A703D4B1A703E4A1278642A29D1B6
:10395000364A527A6AB1394A127802F01002E2B15C
:10396000364A127802F04002BAB100232F4A53724D
:1039700013E0324A127802F0200272B12F4A127814
:1039800002F040024AB1294A127A1AB10123274AA9
:10399000537202E001222C4B5A700022274B1A70FE
:1039A000284B1A70704729490989B1F57A7F12DDD1
:1039B00026490989B1F5966F0DDA24494989B1F58F
:1039C0007A7F08DD21494989B1F5966F03DA002134
:1039D0001E4A918323E01D490989B1F5966F0DDDDB
:1039E0001A494989B1F57A7F08DD18494989B1F545
:1039F000966F03DA0121154A918310E01349098972
:103A0000B1F5966F08DD11494989B1F5966F03DD6F
:103A100003210E4A918302E002210C4A91837047F0
:103A200000B50A48FFF756FE00BD0000CC0000209C
:103A30001802002020010020E6B1000857000020F5
:103A4000EAB100085600002028060020D805002012
:103A500010B53848FCF7C2FE3648FDF7DEFB10BD56
:103A600010B53548FEF7BEF93348FEF757FA33482C
:103A7000FEF75FF83248FEF76EFE10BD10B52F4816
:103A8000FDF7C9FF10BD10B500F0CCFD10BD10B59D
:103A90002C48FFF726FE2B48FFF70AFF2948FFF7BF
:103AA00082FF2448FDF783FD2748FCF788FB234865
:103AB000FEF7F0F82148FEF7EEF810BD10B52348E8
:103AC0000088012804DBFFF7C3FF00201F4908809E
:103AD0001E484088022804DBFFF7C2FF00201B4974
:103AE00048801A488088052804DBFFF7C7FF0020BC
:103AF000164988801548C0880A2804DBFFF7C3FFF1
:103B000000201249C88011480089142804DBFFF7FF
:103B1000BEFF00200D49088110BD00210181C18038
:103B2000818041800180704700B50848FFF7F5FFAC
:103B300000BD0000DC000020180200202001002051
:103B400004050020D8050020CC0000201C06002021
:103B500010B50446204605F032F908B1002010BD2A
:103B60004FF07E51204607F065F901D86748F6E727
:103B70006749204607F05EF801D86648EFE720461F
:103B800005F0F0F9EBE72DE9F04106460C46154645
:103B9000304605F014F950B12946204606F04EFE95
:103BA00007464FF07C5107F079F8BDE8F0812146D7
:103BB000304607F03FF801D22046F6E72946304666
:103BC00007F038F901D22846EFE73046EDE7034623
:103BD0008B4201DA08467047934201DD1046FAE74E
:103BE0001846F8E703468B4201DA084670479342CD
:103BF00001DD1046FAE71846F8E703468B4201DA82
:103C000008467047934201DD1046FAE71846F8E788
:103C1000002801DD024600E042428A4201DA00202B
:103C200006E0002801DD401A02E0002800DA08441E
:103C3000704710B504463849204607F02FF810BDEC
:103C400010B504463549204607F028F810BD10B5D8
:103C500004462146204607F021F810BD2DE9F04129
:103C600005460C462046FFF7F2FF07462846FFF7B9
:103C7000EEFF8046394606F0E1FD064605F0CAFF34
:103C8000BDE8F0812DE9F05F06460C461546284652
:103C9000FFF7DDFF81462046FFF7D9FF8246304619
:103CA000FFF7D5FF8346514606F0C8FD80464946DA
:103CB00006F0C4FD074605F0ADFFBDE8F09F2DE915
:103CC000FE4F07460C4615461E463046FFF7BFFF1F
:103CD00002902846FFF7BBFF01902046FFF7B7FF91
:103CE00000903846FFF7B3FF8346009906F0A6FD23
:103CF0008246019906F0A2FD8146029906F09EFDDA
:103D0000804605F087FFBDE8FE8F0000DB0FC93F4E
:103D1000000080BFDB0FC9BF34FA8E3CE12E654244
:103D200070B5044694E80F00FFF7C9FF0546294621
:103D3000206806F0F7FD20602946606806F0F2FD75
:103D400060602946A06806F0EDFDA0602946E068A5
:103D500006F0E8FDE06070BD2DE9F04F85B0044647
:103D60000D46A168084606F099FF0746D4E902010E
:103D700006F094FF80466168084606F08FFF814692
:103D8000D4E9010106F08AFF8246E168606806F026
:103D900085FF0490D4E9000106F080FF0390A1683C
:103DA000206806F07BFF0290E168206806F076FF4D
:103DB0000190E168084606F071FF009038460099CE
:103DC00006F03CFD83464FF0804106F067FF064653
:103DD0004FF07E5107F090F828605046019907F0A7
:103DE0001DF906464FF0804106F058FF68600299C1
:103DF000049806F023FD06464FF0804106F04EFF82
:103E0000A8605046019906F019FD06464FF0804122
:103E100006F044FFE8604846009906F00FFD83462F
:103E20004FF0804106F03AFF06464FF07E5107F012
:103E300063F828614046039907F0F0F806464FF012
:103E4000804106F02BFF68610299049807F0E6F8BC
:103E500006464FF0804106F021FFA86140460399D5
:103E600006F0ECFC06464FF0804106F017FFE861D3
:103E70003946484606F0E2FC83464FF0804106F0A2
:103E80000DFF06464FF07E5107F036F8286205B068
:103E9000BDE8F08F2DE9F04704460D46A168206883
:103EA00006F0FCFE0746E168606806F0F7FE804613
:103EB000394607F0B3F806464FF0804106F0EEFEB3
:103EC0002860D4E9020106F0E9FE0746D4E90001C2
:103ED00006F0E4FE8046394606F0B0FC06464FF098
:103EE000804106F0DBFE6860A168084606F0D6FE59
:103EF00080466168084606F0D1FE8146414606F0DC
:103F00009DFC07464FF0804106F0C8FE06464FF084
:103F10007E5106F0F1FFA860BDE8F08770B58CB067
:103F200006460C4603AD284605F06FFF054605F131
:103F30000C0005F06AFFA0F10C0505F1180005F072
:103F400064FFA0F1180500BFA06880F00040A060E9
:103F500003A93046FFF700FF224603A9684605F093
:103F60008EFF9DE8070084E80700A06880F000400D
:103F7000A0600CB070BD2DE9F04F8FB004468946AB
:103F80009246504606F02EFCCDE90801D9F80810FB
:103F9000E06806F083FE0490D9F80410A06806F0EB
:103FA0007DFE0390606880F000400190D9F8001019
:103FB00006F074FE0290039907F030F883460499E6
:103FC00007F02CF8059006F00DFC07460022F74B91
:103FD00006F020FACDE90601DDE9082306F01AFA19
:103FE00005460E46206806F0FDFB2A463346CDE91D
:103FF0000A0106F097F8CDE90C0106F061F820609F
:10400000504606F0EFFBCDE90601D9F80410E06850
:1040100006F044FE0490D9F80810A06806F03EFEB1
:104020000390D9F80010206806F038FE029003993A
:1040300006F004FC8346049906F0F0FF059006F0B4
:10404000D1FB07460022D94B06F0E4F90546DDE92D
:10405000062306F0DFF9CDE90A01606806F0C2FB2D
:10406000CDE90801DDE90A2306F05CF8CDE90C0191
:1040700006F026F86060504606F0B4FBCDE9080172
:10408000D9F80010E06806F009FE0490D9F808108D
:10409000606806F003FE0390D9F80410206806F06B
:1040A000FDFD0290039906F0B9FF8346049906F0DE
:1040B000C5FB059006F096FB0022BC4BCDE906013E
:1040C00006F0A8F90746DDE9082306F0A3F9CDE9D3
:1040D0000A01A06806F086FB0546DDE90A2306F022
:1040E00021F8CDE90C0105F0EBFFA060504606F089
:1040F00079FBCDE90601D9F80010A06806F0CEFDE5
:104100000390D9F80410606806F0C8FD8346D9F81A
:104110000810206806F0C2FD5946029006F08EFB9A
:104120008046039906F07AFF074606F05BFB0546DA
:1041300000229E4B06F06EF9CDE90401DDE906236D
:1041400006F068F9CDE90A01E06806F04BFBCDE91D
:104150000801DDE90A2305F0E5FFCDE90C0105F0D2
:10416000AFFFE0600FB0BDE8F08F2DE9F04F85B0F4
:1041700004460D4616461F464FF07C51284606F071
:104180008DFD824605F0B0F880464FF07C513046F8
:1041900006F084FD824605F0A7F881464FF07C5179
:1041A000384606F07BFD824605F09EF804904FF0FD
:1041B0007C51284606F072FD824605F065FC0390AE
:1041C0004FF07C51304606F069FD824605F05CFCFC
:1041D00002904FF07C51384606F060FD824605F0B3
:1041E00053FC0190DDE9021006F058FD00900199A2
:1041F00006F054FD82464946404606F04FFD0090C9
:10420000049906F04BFD8346514606F017FB2060EB
:104210004046029906F042FD0090019906F03EFDED
:1042200082464946039806F039FD0090049906F04D
:1042300035FD8346514606F0F1FE6060494603981D
:1042400006F02CFD0090019906F028FD82464046BC
:10425000029906F023FD0090049906F01FFD8346A5
:10426000514606F0EBFAA060DDE9021006F016FDFB
:104270000090049906F012FD82464946404606F039
:104280000DFD0090019906F009FD8346514606F0A8
:10429000C5FEE06005B0BDE8F08F2DE9FE4F044695
:1042A0000D4616461F468DB3A168084606F0F6FC7B
:1042B00001906168084606F0F1FC0090019906F053
:1042C000BDFA83464FF0804106F0E8FC82464FF08D
:1042D0007E5106F011FE8146D4E9020106F0DEFCB3
:1042E0008346D4E9000106F0D9FC5946019006F056
:1042F000A5FA82464FF0804106F0D0FC4946029074
:1043000004F0C4FE8046FFF79BFC2860C6B1E1685C
:10431000606806F0C3FC8346A168206806F0BEFC16
:104320005946029006F07AFE82464FF0804106F030
:10433000B5FC8146FFF70CFC8046FFF781FC30603E
:104340008FB36168084606F0A9FC01902168084611
:1043500006F0A4FC0090019906F070FA83464FF035
:10436000804106F09BFC82464FF07E5106F056FEDF
:104370000290E168206806F091FC8346D4E90101CF
:1043800006F08CFC5946019006F048FE82464FF03C
:10439000804106F083FC8146029904F077FE804656
:1043A000FFF74EFC3860BDE8FE8F00000000E03FE4
:1043B00000B585B0684602F0D0FF50490098B0FBC8
:1043C000F1F04F49086005B000BD4E480068401C40
:1043D0004C4908604C480088401C4B4908800846FE
:1043E0004088401C488008468088401C88800846D9
:1043F000C088401CC88008460089401C088170475E
:1044000000BF404801684FF0E02082693D480068E5
:104410008142F6D13A48006800EB4003C3EBC0107C
:10442000C2EBC000364B1B68B0FBF3F001EB41035D
:10443000C3EBC11300EBC300704730B50446FFF770
:10444000DFFF054600BFFFF7DBFF401BA042FAD3AA
:1044500030BD10B5044603E04FF47A70FFF7EDFF6E
:104460002000A4F10104F7D110BD70B54FF44070E5
:1044700001F026FEFFF79CFF244800684FF47A7293
:10448000B0FBF2F1481EB0F1807F00D31BE0481E64
:104490004FF0E022506150170F22002807DA13076F
:1044A0001D0E1B4B00F00F04241F1D5503E01307C6
:1044B0001C0E184B1C5400BF00204FF0E0229061EE
:1044C0000720106100BF00F084FB01F01FFCFB22FD
:1044D0000421114801F0DBF945F6C05001F01EFB44
:1044E0004FF4165001F0B4FC00F056FD00F094F8C3
:1044F00002F0C5F900F0CDFA70BD000040420F0097
:10450000580000205C0000201C060020B80000209D
:1045100018ED00E000E400E0A806002008B5012145
:10452000084602F07AFF01214FF4017002F082FF89
:104530001020ADF8000000208DF8030069466148A6
:1045400002F0BCFC08BD00B591B05F4802F04EF827
:104550005E4806905E480790002008900120099070
:1045600000200A9080200B9040000C9080000D905D
:1045700020200E9000020F900020109006A95248B3
:1045800002F0D6F80121504802F0FDF80020019019
:104590008DF8080001208DF809004FF46020039089
:1045A0000020049001208DF8140001A947484C38E0
:1045B00001F01BFE4FF4404002F0A0FE0523012253
:1045C000042142484C3801F0A8FE01213F484C38F4
:1045D00001F042FE01213D484C3801F032FE3B48DB
:1045E0004C3801F050FE00BF38484C3801F050FE06
:1045F0000028F9D135484C3801F054FE00BF33484B
:104600004C3801F054FE0028F9D101212F484C38D4
:1046100001F057FE11B000BD10B5FFF77FFFFFF7A7
:1046200092FF10BD2DE9F84F2948008806F0EEFAF8
:10463000009006F0D7F80646264A274B05F0EAFE1A
:1046400004460D462548006806F0CCF80646244A84
:10465000244B05F0DFFE804622462B4605F062FD26
:10466000824605F02DFD1D4908604FF08B411B4827
:10467000006806F057F9824606F0B4F806464FF097
:104680006632194B05F0C6FE804600224FF080438B
:1046900005F0C0FE044605F013FD14490860084605
:1046A000006806F09FF804460022114B05F076FEE4
:1046B00003D201210F48417302E000210D484173EC
:1046C000BDE8F88F00080140080002404C2401407A
:1046D00060000020FCA9F1D24D62603F6400002020
:1046E000560E2DB29DEFEF3F66660A40680000202F
:1046F00000000C40CC000020034606210622F748AB
:104700000188F7480288ABB1012B1BD13AB94EF6AC
:10471000EE60814201D1002070470120FCE739B9E9
:104720004EF6EE60824201D10120F5E70020F3E76A
:10473000AB20F1E709B90020EEE70AB90120EBE769
:10474000AB20E9E70020E7E770B50426002401204C
:10475000FFF7D2FF0446AB2C06D1E04800EB8420E3
:10476000E0490860AB2070BDDC4800EB8420DD49E7
:104770000860601CD949891E01EB80250CE0D948EE
:1047800000680068401C10B904263046EBE7D548A5
:104790000068001DD3490860D2480068A842EED3E3
:1047A0008020E0E710B50424CC4802F0ADF80446C0
:1047B000042C01D0204610BD0021C84802F0A7F902
:1047C0000446042C01D02046F5E7C54802F09CF8C9
:1047D00004462046EFE72DE9F04104460F46042544
:1047E0000026DFF804830120FFF786FF0646AB2E84
:1047F00001D1BDE8F081701CB849891E01EB802809
:1048000021E0B84800680068401CB8B93946B5488E
:10481000006802F07CF90546042D01D02846E8E73F
:104820002146B0480068801C02F071F90546AD4889
:104830000068001DAB4908602846DAE7A94800680F
:10484000001DA8490860A74800684045D9D38020CA
:10485000CFE72DE9F04706460F46002545F25558AB
:104860004FF001099D4CA2460020FFF745FF054689
:10487000AB2D01D1BDE8F087984800EB852A994817
:104880000068841E0AE0B4F80080B04505D134F811
:10489000020C38804FF0000904E0241F0AF10200E6
:1048A0008442F0D800BF4846E4E72DE9F0474FF0D6
:1048B000060A062600250027A8464FF0FF3987483C
:1048C000B0F800A0864806885FEA0A0075D0A0F517
:1048D0006E40EE3858B3A0F58850113800286DD1DD
:1048E00046B97E4802F010F80446042C1ED020463B
:1048F000BDE8F0874EF6EE60864210D1774802F0B0
:1049000003F80446042C01D02046F1E70021744846
:1049100002F0FDF80446042C08D02046E8E7FFF733
:1049200041FF0446042C01D02046E1E7AEE07EBB07
:10493000002522E06948C0886C4931F8151088428A
:1049400001D10FFA85F94D4515D0684931F81500A8
:104950006749FFF77EFF8046B8F1010F0BD063492E
:1049600031F8150062490988FFF735FF0746042F23
:1049700001D03846BCE7681C85B2192DDADB00216E
:10498000564802F0C4F80446042C02D02046AFE793
:1049900007E0534801F0B8FF0446042C1FD020461E
:1049A000A6E74FF6FF70864212D14D4801F0ACFFEA
:1049B0000446042C03D020469AE711E05EE0002173
:1049C000464802F0A4F80446042C08D020468FE79D
:1049D000FFF7E8FE0446042C01D0204688E755E0A6
:1049E00036B9FFF7DFFE0446042C46D020467FE7A9
:1049F0004FF6FF70864207D1394801F085FF044623
:104A0000042C3AD0204673E7002523E03448801D6B
:104A10000088364931F81510884201D10FFA85F91E
:104A20004D4515D0314931F815003149FFF711FFD7
:104A30008046B8F1010F0BD02C4931F815002C49F4
:104A40000988FFF7C8FE0746042F01D038464FE714
:104A5000681C85B2192DD9DB0021214802F057F8D6
:104A60000446042C01D0204642E71C4801F04CFFCC
:104A70000446042C01D020463AE707E0FFF792FEF7
:104A80000446042C01D0204632E700BF00BF0420BA
:104A90002EE710B5FFF709FF0446FFF755FE204645
:104AA00010BD2DE9F84F074689460425DFF830A0F0
:104AB000AAF1010A094800904FF0000800240026DE
:104AC0004FF0000B0020FFF717FE8046B8F1010FF2
:104AD00010D1DFF808A00248009016E0000001089D
:104AE0000004010870000020FF070108EEB1000873
:104AF0006C000020B8F1000F04D1DFF8C4A03148E9
:104B0000009002E0AB20BDE8F88F4EF6EE61504613
:104B100001F0FDFF0546042D01D02846F3E7FFF71D
:104B200013FE49463846FFF756FE0646042E01D0CE
:104B30003046E8E700241CE0234830F81400B8426F
:104B400015D0214931F814002049FFF782FE834631
:104B5000BBF1010F0BD01C4931F814001B49098827
:104B6000FFF739FE0646042E01D03046CBE7601C25
:104B700084B2192CE0DB009801F0C6FE0546042D36
:104B800001D02846BFE70021504601F0C0FF05468E
:104B9000042D01D02846B6E72846B4E770B505468F
:104BA0000E46002431462846FFF715FE0446802CA9
:104BB00004D131462846FFF774FF0446204670BDF5
:104BC0000004010800000108EEB100086C0000209C
:104BD000704708B50121082002F02CFC4020ADF8F8
:104BE000000003208DF8020014208DF803006946B0
:104BF000E84802F063F98020ADF8000003208DF84A
:104C0000020014208DF803006946E24802F056F9CC
:104C100008BD704700B501464020DE4A14321060DE
:104C20000846FFF7F6FF8020DA4A14321060084683
:104C3000FFF7EFFF4020D74A103210600846FFF719
:104C4000E8FF8020D34A103210600846FFF7E1FFEA
:104C500000BD00B501464020CE4A1432106008461F
:104C6000FFF7D7FF8020CB4A103210600846FFF7CD
:104C7000D0FF4020C74A103210600846FFF7C9FF36
:104C8000C4480830006800F0800040B14020C14AAC
:104C9000143210600846FFF7BCFF002000BD402022
:104CA000BC4A143210600846FFF7B3FF0120F5E755
:104CB00010B5024608231DE04020B64C1434206095
:104CC0001046FFF7A6FF01F0800018B18020241FD6
:104CD000206003E08020AF4C143420604806010EB1
:104CE0001046FFF796FF4020AA4C10342060104673
:104CF000FFF78FFF1800A3F10104E3B2DCD14020DD
:104D0000A44C1434206010BD00B501468020A14A97
:104D100010321060402010600846FFF77AFF9D486F
:104D20000830006808B9012000E0002000F0800091
:104D300008B1002000BD8020964A14321060084659
:104D4000FFF767FF93480830006800F0800008B163
:104D50000020EFE780208F4A143210600846FFF7EA
:104D600058FF0120E6E7F0B506460F4614461D46FB
:104D70003046FFF7C9FF08B90020F0BD394630467C
:104D8000FFF796FF3046FFF764FF20B93046FFF784
:104D900041FF0020F1E721463046FFF789FF30460A
:104DA000FFF757FF29463046FFF782FF3046FFF7EF
:104DB00050FF3046FFF72EFF0120DEE700B5014629
:104DC0004020744A143210600846FFF722FF80200A
:104DD000704A103210600846FFF71BFF40206D4AF2
:104DE000103210600846FFF714FF4020694A143261
:104DF00010600846FFF70DFF00BD10B502460823FE
:104E000000218020634C1034206016E04806010E1B
:104E10004020604C143420601046FFF7FAFE40201A
:104E2000241F20601046FFF7F4FE5A48083000683F
:104E300000F0800008B141F001011800A3F1010465
:104E4000E3B2E3D14020534C14342060084610BD37
:104E5000F0B506460C4615463046FFF755FF08B933
:104E60000020F0BD21463046FFF722FF3046FFF715
:104E7000F0FE20B93046FFF7CDFE0020F1E72946CD
:104E80003046FFF715FF3046FFF7E3FE3046FFF7E9
:104E90003BFF601CC1B23046FFF70AFF3046FFF708
:104EA000D8FE3046FFF7A9FF07463046FFF786FFDA
:104EB0003046FFF7AFFE3846D3E700B50146402045
:104EC000344A143210600846FFF7A3FE8020314AAE
:104ED000143210600846FFF79CFE40202D4A103225
:104EE00010600846FFF795FE40202A4A14321060F1
:104EF0000846FFF78EFE00BD2DE9F04381460E46C1
:104F000017461C46DDF81C80B8F1010F02DA0020BC
:104F1000BDE8F0834846FFF7F7FE08B90020F7E741
:104F200031464846FFF7C4FE4846FFF792FE20B9D7
:104F30004846FFF76FFE0020EAE739464846FFF78C
:104F4000B7FE4846FFF785FE4846FFF7DDFE701CBA
:104F5000C1B24846FFF7ACFE4846FFF77AFE01258E
:104F600009E04846FFF749FF04F8010B4846FFF700
:104F7000A4FF681CC5B24545F3DB4846FFF73DFF7B
:104F800004F8010B4846FFF719FF4846FFF742FEB9
:104F90000120BDE7000C014008B50121084602F0E0
:104FA00056FA0121C80202F045FA0121102002F050
:104FB00041FA4FF4C040ADF8000010208DF8030016
:104FC00003208DF802006946114801F077FF08BD03
:104FD00010B504464FF400510D4802F01CF810BD06
:104FE00010B504464FF48041094802F014F810BD92
:104FF00010B504464FF40051054802F00EF810BDFC
:1050000010B504464FF48041014802F006F810BD87
:105010000010014010B504462046FFF7D9FD0446B4
:10502000A01C04F023FF841E04F1080004F01EFFFE
:10503000A0F1080404F11C0004F0E7FEA0F11C0438
:1050400004F1280004F0E1FEA0F1280404F134008A
:1050500004F0DBFEA0F13404204610BD30B5034659
:10506000C822002007E000BF1400A2F10105AAB287
:10507000FAD1441CE0B28842F5DB30BD2DE9F041A5
:1050800007460D4616462A2E15D006DC052E0CD0F6
:105090000A2E0CD0142E16D10BE0622E0DD0BC2E91
:1050A0000DD0B6F5807F0ED10BE006240DE005246F
:1050B0000BE0042409E0032407E0022405E00124B6
:1050C00003E0002401E0022400BF00BF80236B2224
:1050D000D0213846FFF747FE05213846FFF7BEFFCF
:1050E0004FF47A7090FBF5F0401E00F0FF08434645
:1050F0001922D0213846FFF736FE03236B22D02138
:105100003846FFF730FE02233722D0213846FFF71A
:105110002AFE23461A22D0213846FFF724FE182300
:105120001B22D0213846FFF71EFE10231C22D0215F
:105130003846FFF718FEBDE8F0812DE9F04104463E
:10514000207800286AD0EA48007800F0010048B9C9
:10515000E74803F04DFE28B1E64804F056FEE44867
:10516000AFF30080E448008880B900231A4619464E
:10517000A01C04F080FE00231A461946DD4804F006
:1051800049FE0120DC490880BDE8F08104F11C01E2
:10519000D84804F057FED8480088C82839D1D648E6
:1051A000008805F033FD0646D2490868314605F00F
:1051B000B9FB054605F0ACFC00B26080CE48008823
:1051C00005F024FD0646CB494868314605F0AAFBA8
:1051D000054605F09DFC01B2A180C748008805F096
:1051E00015FD0746C3498868394605F09BFB06460E
:1051F0004FF08B4105F012FF054605F089FC01B226
:10520000E1800020BC4908802070BC48FEF721F9ED
:10521000BAE7B9480088401CB749088000BFB3E727
:105220002DE9FC4104463C22D0212046FFF710FE28
:10523000A0733B22D0212046FFF70AFEE073A17B3A
:10524000E07B41EA00206188401A00B2ADF800001E
:105250003E22D0212046FFF7FBFD20743D22D021C5
:105260002046FFF7F5FD6074217C607C41EA002157
:10527000A088081A00B2ADF802004022D0212046D2
:10528000FFF7E6FDA0743F22D0212046FFF7E0FDA6
:10529000E074A17CE07C41EA0021E088081A00B2B9
:1052A000ADF80400BDF9040005F098FC0546BDF911
:1052B000020005F093FC0646BDF9000005F08EFCE7
:1052C00007462B463246394604F11C0004F0A2FD85
:1052D0002046FFF732FFBDE8FC8170B504466078D8
:1052E00000286ED08648007800F0010048B9844854
:1052F00003F07EFD28B1834804F087FD8048AFF3BA
:1053000000808148008880B900231A46194604F1BC
:10531000080004F0B0FD00231A461946794804F04D
:1053200079FD01207849088070BD04F12801754895
:1053300004F088FD74480088C8283DD17248008870
:1053400005F064FC06466F490868314605F0EAFA44
:10535000054605F0DDFB00B220816B48008805F0B2
:1053600055FC064667494868314605F0DBFA0546B4
:1053700005F0CEFB01B261816348008805F046FC70
:10538000064660498868314605F0CCFA054605F0C6
:10539000BFFB01B2A18100205B49088060705B48BF
:1053A000007A28B9012159484172012057490872F1
:1053B0005248FEF766F8B7E753480088401C524948
:1053C000088000BFB0E72DE9FC4104464422D0210B
:1053D0002046FFF73DFD20754322D0212046FFF7F0
:1053E00037FD6075217D607D41EA00202189401AEA
:1053F00000B2ADF800004622D0212046FFF728FD7C
:10540000A0754522D0212046FFF722FDE075A17D41
:10541000E07D41EA00216089081A00B2ADF802007F
:105420004822D0212046FFF713FD20764722D021C5
:105430002046FFF70DFD6076217E607E41EA002167
:10544000A089081A00B2ADF80400BDF9040005F007
:10545000C5FB0546BDF9020005F0C0FB0646BDF9D7
:10546000000005F0BBFB07462B463246394604F1E7
:10547000280004F0CFFC2046FFF72FFFBDE8FC8199
:1054800010B5D1E90834CA6980E81C0010BD10B518
:10549000D1E90B348A6A80E81C0010BD0FB470B5E6
:1054A00005460C461A49069805F0F8FB0646FEF735
:1054B000C0FB60631649079805F0F0FB0646FEF74F
:1054C000B8FBA0631249089805F0E8FB0646FEF712
:1054D000B0FBE063D4E90E12606B85E8070070BC96
:1054E0005DF814FB10B50B48FFF794FD10BD0000EC
:1054F00078000020680600207C0000205200002078
:10550000800000207406002084000020CC000020D1
:105510008DC1793D2806002010B50446012358228C
:10552000EE212046FFF71FFC10BD7CB5054600208C
:1055300001900026002418E002200090A02000EB3B
:105540004400C2B201ABEE212846FFF7D5FC30443F
:10555000C6B29DF805009DF8041040EA012105F14E
:10556000100020F81410601CC4B2082CE4DB082ED4
:1055700001D101207CBD0020FCE710B504460123C9
:105580001E22EE212046FFF7EEFB10BD10B50446AB
:105590000A20FEF75EFF2046FFF7EFFF0320FEF72D
:1055A00058FF2046FFF7C1FF2046FFF7B5FF10BDAB
:1055B00010B5044601234822EE212046FFF7D3FB15
:1055C00010BD38B50446032004F120030022EE216B
:1055D00000902046FFF790FC38BD2DE9F04F8BB0CE
:1055E00004464FF00008C14694F820000104212031
:1055F000005D41EA00202221095D0843A06094F883
:10560000230001042420005D41EA00202521095DDA
:105610000843E060608BA168A1EB0025A08A00042C
:105620000022218B4FEAE57CA1FB05BE02FB05E3CE
:1056300001FB0C334FEADB1141EA4361401842EBB6
:10564000E312CDE90802608A4FEAC0304246E18A9F
:105650004FEAE57CA1FB05BE02FB05E301FB0C3331
:105660004FEA1B2141EA0361401842EB2322CDE9B6
:105670000602A08B42464FEAE573A0FB051C02FB25
:1056800005C200FB03204FEA402242EAD1504FF40A
:10569000FA614718B7F5FA6F19DAA7F5FA66764393
:1056A00006EB86004FEA600806EB86004FEAA00989
:1056B000544887420BDA07F2DC567643072000FB9A
:1056C000068806EB460000EBC60009EB6009DDE941
:1056D0000801B0EB080061EBE871CDE90801DDE9F4
:1056E0000601B0EB090061EBE971CDE906014FF06D
:1056F0000003E168DDE9062CA1FB020B03FB02B20B
:1057000001FB0C224FEA505141EAC22C4FEA625190
:10571000DDE90802BCEB000061EB0201C00B40EACE
:10572000414A504605F05AFA3749019005F0FAF817
:105730008346364802905846029903F097FE4FF090
:105740007E51039005F0D8FB3149049005F0A6FA8C
:10575000059005F0DDF98246606818B16068AAEB33
:10576000000020602B480078B0B12A480078401E25
:105770002849087008460078C82804DA26480068D6
:105780005044254908602348007828B92248006819
:10579000C72190FBF1F060600BB0BDE8F08F38B529
:1057A0000446032004F123030022EE21009020464A
:1057B000FFF7A2FB38BD10B504461848006860B179
:1057C0002046FFF7ECFF2046FFF7A6FE2046FFF736
:1057D00004FF00201149086008E02046FFF7F1FEB1
:1057E0002046FFF7E5FE01200C49086010BD014688
:1057F0000868704710B50A4C2046FFF7E9F90446DF
:1058000000BF10BD24FAFFFF80E6C547B1DC423E71
:10581000D048874A900000208C000020880000209B
:10582000800600202DE9F04105460E461446284624
:1058300000F000FB3146284600F0CAFA0746214630
:10584000284600F0C5FA284600F0ECFA3846BDE8D4
:10585000F0812DE9F0470746884615461E46384632
:1058600000F0E8FA4146384600F0B2FA81460024DA
:1058700005E0295D384600F0ABFA601CC4B2B442C2
:10588000F7DB384600F0CEFA4846BDE8F08770B541
:1058900005460C461646284600F0BCFA05239C4AED
:1058A0002A212846FFF7D5FF05239A4A30212846AA
:1058B000FFF7CFFF012221212846FFF7B3FF012286
:1058C00022212846FFF7AEFF1A2224212846FFF79F
:1058D000A9FF324625212846FFF7A4FF0F222621E3
:1058E0002846FFF79FFF012C0AD1FF2231212846CD
:1058F000FFF798FF0F2220212846FFF793FF51E082
:10590000022C0AD1FF2231212846FFF78BFF0E22FD
:1059100020212846FFF786FF44E0032C21D1FF22F7
:10592000E1212846FFF77EFFFF22E2212846FFF70C
:1059300079FF0F2220212846FFF774FF50212846C7
:1059400000F046FA7321284600F042FA01223C2179
:105950002846FFF767FF06223D212846FFF762FF32
:1059600020E00E2220212846FFF75CFFFF22E121E4
:105970002846FFF757FFFF22E2212846FFF752FF94
:105980005021284600F024FA7321284600F020FA1E
:1059900001223C212846FFF745FF06223D212846EB
:1059A000FFF740FF284600F02DFA70BD70B506469F
:1059B0000C461546304600F02DFA0523554A2A219B
:1059C0003046FFF746FF2B462246A0213046FFF720
:1059D00040FF304600F016FA70BD70B506460C4622
:1059E0001546304600F016FA2B462246A8213046CE
:1059F000FFF72FFF304600F005FA70BD2DE9F047A4
:105A00000746884615461E46384600F013FA4146BA
:105A1000384600F0DDF98146002406E000213846D2
:105A200000F0D6F92855601CC4B2B442F6DB384603
:105A300000F0F8F94846BDE8F0877CB50546052337
:105A4000344A30212846FFF704FF05236A46102117
:105A50002846FFF7D3FF002408E01DF804002D4975
:105A6000095D884200D003E0601CC4B2052CF4DB61
:105A700000BF052C01D101207CBD0020FCE770B5E2
:105A800004460D46204600F0D5F92946204600F090
:105A90009FF90021204600F09BF90646204600F0C1
:105AA000C1F9304670BD70B5054607212846FFF79D
:105AB000E6FF044604F04000C0B160212846FFF72D
:105AC000DEFF0646212E0BDA33462A4661212846A0
:105AD000FFF794FF324629460F48FAF71CFC04E012
