:020000040800F2
:1000000028100020C18A0008495F0008CB8A000838
:100010004B5F00084F5F0008535F000800000000BE
:10002000000000000000000000000000575F000812
:10003000595F000800000000D78A00085B5F0008D5
:10004000DB8A0008DB8A0008DB8A0008DB8A0008FC
:10005000DB8A0008DB8A0008DB8A0008DB8A0008EC
:10006000DB8A0008DB8A0008DB8A0008DB8A0008DC
:10007000DB8A0008DB8A0008DB8A0008DB8A0008CC
:10008000DB8A0008DB8A0008DB8A0008DB8A0008BC
:10009000DB8A0008DB8A0008DB8A0008DB8A0008AC
:1000A000DB8A0008DB8A0008DB8A0008DB8A00089C
:1000B000DB8A0008DB8A0008DB8A0008DB8A00088C
:1000C000DB8A0008DB8A0008DB8A0008DB8A00087C
:1000D000DB8A0008635F0008DB8A0008655F0008B0
:1000E000DB8A0008DB8A0008DB8A000800F002F8DF
:1000F00000F03CF80AA090E8000C82448344AAF186
:100100000107DA4501D100F031F8AFF2090EBAE883
:100110000F0013F0010F18BFFB1A43F0010318473B
:10012000B8B00000D8B00000103A24BF78C878C139
:10013000FAD8520724BF30C830C144BF04680C60ED
:10014000704700000023002400250026103A28BF35
:1001500078C1FBD8520728BF30C148BF0B60704739
:100160001FB508F0D1FC1FBD10B510BD08F0F2FCA2
:100170001146FFF7F5FF00F009F808F010FD03B491
:10018000FFF7F2FF03BC08F011FD000004F0C7F810
:10019000064803F0A5F8064801F01BFE054802F0EA
:1001A0002BFA01E003F0E4FBFCE70000460000202E
:1001B00008020020F40400200122C272704710B52A
:1001C0000446607B00B338480078401C364908700C
:1001D00008460078012804D0052809D00A2812D141
:1001E0000DE0324804F04EFE304804F053FE0AE0C1
:1001F0002E4804F057FE2D4804F05CFE03E000207A
:100200002949087000BF49E0607AE0B1207BD0B98D
:1002100025480078401C24490870084600780128C9
:1002200004D0142806D028280CD107E01F4804F079
:1002300029FE07E01D4804F035FE03E000201A49BE
:10024000087000BF2AE0607A10B3207B00B3184822
:100250000078401C1649087008460078012804D030
:10026000142809D0282812D10DE0104804F00AFE05
:100270000E4804F01FFE0AE00C4804F013FE0B4881
:1002800004F008FE03E000200949087000BF05E003
:10029000064804F0F7FD054804F0FCFD10BD00B56C
:1002A0000448FFF789FF00BD00000020680000201F
:1002B00001000020C000002070B504460E4615461F
:1002C0002A4604F10F01FE4805F0CAFA70BD2DE977
:1002D000F04104460D461646AA20E073AA21217477
:1002E000EF2161740221A174E574267500270020B6
:1002F00006E004F10F01095C3944CFB2411CC8B2D9
:100300000628F6DB6775082204F10F012046FFF787
:10031000D3FFBDE8F0812DE9F04F87B005460C46CC
:100320001646002701200690002004E0215C394495
:10033000CFB2411CC8B2711E8142F7DCA01910F87F
:10034000010CB84202D007B0BDE8F08F2078AA288F
:1003500002D16078AF2800D0F5E70021D94881723A
:10036000A078012811D12079012801D1D64908703F
:100370002079022802D10120D3494870207903282E
:1003800003D10120D04908704870A078022816D106
:100390002079012805D128716871A871E871287247
:1003A00068722079A02801D1012028702079A12825
:1003B00005D1C64801F0BAFAC54802F078FEA07827
:1003C00003287CD12079617941EA0020C149C880A5
:1003D000A079E17941EA0020BE498880207A617ADB
:1003E00041EA0020BB490880A07AE17A41EA002076
:1003F000B8494880207B617B41EA0020B5490881EB
:10040000A07BE17B41EA0020B2494881207C617CED
:1004100041EA0020AF498881A07CE17C41EA0020CC
:10042000AC49C8810698002861D008460088A0F22F
:10043000DC5908464088A0F2DC58A749886803F0D8
:1004400052FB029008F0AAFE824648460AF0F2FAF1
:10045000834651460AF04EFB9F490490886803F09A
:1004600042FB019009F06AFA834640460AF0E2FA3C
:10047000594602900AF03EFB824698490AF068FC11
:10048000039004990AF006F905900AF0B3FA91492D
:1004900008809149886803F026FB029009F04EFA23
:1004A000049048460AF0C6FA039004990AF022FB29
:1004B00089490590886803F016FB019000E016E07A
:1004C00008F06CFE039040460AF0B4FA02900399DB
:1004D0000AF010FB814904900AF0DCF88346059984
:1004E0000AF0D8F882460AF085FA7A494880A0785E
:1004F00010287DD12179090209B2627941EA02000E
:100500000AF098FA824676490AF038F96F4908608D
:10051000A179090209B2E27941EA02000AF08AFAF5
:1005200082466F490AF02AF968494860217A09022F
:1005300009B2627A41EA02000AF07CFA824668490E
:100540000AF01CF961498860A17A090209B2E27ACD
:1005500041EA02000AF06EFA824661490AF00EF999
:100560005A49C861217B090209B2627B41EA020053
:100570000AF060FA82465A490AF000F953490862C3
:10058000A17B090209B2E27B41EA02000AF052FAB9
:10059000824653490AF0F2F84C494862217C09022C
:1005A00009B2627C41EA02000AF044FA82464C49F0
:1005B0000AF0E4F845498863A17C090209B2E27CAB
:1005C00041EA02000AF036FA824645490AF0D6F8B6
:1005D0003E49C863217D090209B2627D41EA0200F9
:1005E0000AF028FA82463E490AF0C8F8374900E086
:1005F00005E00864A1783A462846FFF768FEA0782F
:1006000011286FD12179090209B2627941EA020009
:100610000AF010FA824632490AF0B0F82B494865D0
:10062000A179090209B2E27941EA02000AF002FA6C
:1006300082462B490AF0A2F824498865217A0902EA
:1006400009B2627A41EA02000AF0F4F982462449CA
:100650000AF094F81D49C865A17A090209B2E27A44
:1006600041EA02000AF0E6F982461D490AF086F8DE
:1006700016490867217B090209B2627B41EA020040
:100680000AF0D8F9824616490AF078F80F49486707
:10069000A17B090209B2E27B41EA02000AF0CAF931
:1006A00082460F490AF06AF808498867217C0902E6
:1006B00009B2627C41EA02000AF0BCF9824612E00B
:1006C00098060020C0000020180600201401002019
:1006D00046000020C8050020080200200080BB441E
:1006E00000007A4428E0FE490AF048F8FD49C1F8C4
:1006F0008C00A17C090209B2E27C41EA02000AF006
:1007000099F98246F6490AF039F8F649C1F890009D
:10071000217D090209B2627D41EA02000AF08AF9EC
:100720008246EF490AF02AF8EE49C1F89400A17810
:100730003A462846FFF7CBFDA078122834D121791C
:10074000090209B2627941EA02000AF073F98246AD
:10075000E3490AF013F8E349C1F8A800A1790902B6
:1007600009B2E27941EA02000AF064F98246DC4902
:100770000AF004F8DB49C1F8AC00217A090209B299
:10078000627A41EA02000AF055F98246D44909F03A
:10079000F5FFD449C1F8B000A1783A462846FFF7E2
:1007A00096FDD14802F083FCA078132804D1A178EB
:1007B0003A462846FFF78BFDA078142804D1A1788B
:1007C0003A462846FFF783FDA078152804D1A17882
:1007D0003A462846FFF77BFD00BFB4E510B5044656
:1007E000C24805F0BAF810BD2DE9FC5F04460E467C
:1007F00017469846DDE90CAB0025AA2229466D1C58
:1008000004F10F00425429466D1C425406F10F00BA
:10081000C2B229466D1C04F10F0042540022294641
:100820006D1C4254AE4938460AF064F900900AF053
:100830009BF800B201909DF8052029466D1C04F13B
:100840000F0042549DF8042029466D1C4254A449CF
:1008500040460AF04FF900900AF086F800B2019085
:100860009DF8052029466D1C04F10F0042549DF8A7
:1008700004202846691CCDB204F10F010A5498499E
:1008800050460AF037F900900AF06EF800B2019075
:100890009DF805202846691CCDB204F10F010A54C9
:1008A0009DF804202846691CCDB204F10F010A54BA
:1008B0008B4958460AF01EF900900AF055F800B22C
:1008C00001909DF805202846691CCDB204F10F0166
:1008D0000A549DF804202846691CCDB204F10F018A
:1008E0000A547F490E980AF005F900900AF03CF886
:1008F00000B201909DF805202846691CCDB204F194
:100900000F010A549DF804202846691CCDB204F159
:100910000F010A5472490F980AF0ECF800900AF09F
:1009200023F800B201909DF805202846691CCDB23D
:1009300004F10F010A549DF804202846691CCDB229
:1009400004F10F010A54664910980AF0D3F8009098
:100950000AF00AF800B201909DF805202846691CAB
:10096000CDB204F10F010A549DF804202846691CF9
:10097000CDB204F10F010A54594911980AF0BAF89E
:10098000009009F0F1FF00B201909DF80520284683
:10099000691CCDB204F10F010A549DF804202846C9
:1009A000691CCDB204F10F010A544D4912980AF0A6
:1009B000A1F8009009F0D8FF00B201909DF8052041
:1009C0002846691CCDB204F10F010A549DF8042099
:1009D0002846691CCDB204F10F010A54281FA074E7
:1009E0004FF00009002007E004F10F01095C4944C1
:1009F00001F0FF09411CC8B2A842F5DB2846691C7A
:100A0000CDB204F10F0101F800902A462046FFF70D
:100A100053FCBDE8FC9F2DE9F84304460E461746FB
:100A20000025AA2229466D1C04F10F0042542946D4
:100A30006D1C4254052229466D1C42540022294651
:100A40006D1C425400969DF8012029466D1C4254AD
:100A50009DF8002029466D1C425400979DF8012006
:100A600029466D1C42549DF800202846691CCDB2D1
:100A700004F10F010A54281FA0744FF00008002051
:100A800007E004F10F01095C414401F0FF08411C3B
:100A9000C8B2A842F5DB2846691CCDB204F10F01AB
:100AA00001F800802A462046FFF706FCBDE8F883DF
:100AB0007FB504460025AA2229466D1C04F10F00CB
:100AC000425429466D1C4254062229466D1C42544C
:100AD000002229466D1C42549DF80520294607E056
:100AE00000007A44140100204600002098060020EF
:100AF0006D1C42549DF8042029466D1C42549DF8FB
:100B0000092029466D1C42549DF808202846691C7E
:100B1000CDB204F10F010A549DF80D202846691C3E
:100B2000CDB204F10F010A549DF80C202846691C2F
:100B3000CDB204F10F010A549DF821202846691C0A
:100B4000CDB204F10F010A549DF820202846691CFB
:100B5000CDB204F10F010A549DF825202846691CE6
:100B6000CDB204F10F010A549DF824202846691CD7
:100B7000CDB204F10F010A549DF829202846691CC2
:100B8000CDB204F10F010A549DF828202846691CB3
:100B9000CDB204F10F010A549DF82D202846691C9E
:100BA000CDB204F10F010A549DF82C202846691C8F
:100BB000CDB204F10F010A549DF831202846691C7A
:100BC000CDB204F10F010A549DF830202846691C6B
:100BD000CDB204F10F010A54281FA0740026002092
:100BE00006E004F10F01095C3144CEB2411CC8B2E9
:100BF000A842F6DB2846691CCDB204F10F010E5461
:100C00002A462046FFF758FB7FBD7FB504460025E6
:100C1000AA2229466D1C04F10F00425429466D1C7E
:100C20004254032229466D1C4254002229466D1C61
:100C300042549DF8052029466D1C42549DF804201D
:100C400029466D1C42549DF8092029466D1C4254CA
:100C50009DF808202846691CCDB204F10F010A5402
:100C60009DF80D202846691CCDB204F10F010A54ED
:100C70009DF80C202846691CCDB204F10F010A54DE
:100C80009DF821202846691CCDB204F10F010A54B9
:100C90009DF820202846691CCDB204F10F010A54AA
:100CA0009DF825202846691CCDB204F10F010A5495
:100CB0009DF824202846691CCDB204F10F010A5486
:100CC0009DF829202846691CCDB204F10F010A5471
:100CD0009DF828202846691CCDB204F10F010A5462
:100CE0009DF82D202846691CCDB204F10F010A544D
:100CF0009DF82C202846691CCDB204F10F010A543E
:100D00009DF831202846691CCDB204F10F010A5428
:100D10009DF830202846691CCDB204F10F010A5419
:100D20009DF835202846691CCDB204F10F010A5404
:100D30009DF834202846691CCDB204F10F010A54F5
:100D40009DF839202846691CCDB204F10F010A54E0
:100D50009DF838202846691CCDB204F10F010A54D1
:100D6000281FA0740026002006E004F10F01095C92
:100D70003144CEB2411CC8B2A842F6DB2846691CF9
:100D8000CDB204F10F010E542A462046FFF794FA23
:100D90007FBD2DE9F84304460E4617460025AA22DA
:100DA00029466D1C04F10F00425429466D1C425423
:100DB000072229466D1C4254002229466D1C4254CC
:100DC00000969DF8032029466D1C42549DF8022090
:100DD00029466D1C42549DF8012029466D1C425441
:100DE0009DF800202846691CCDB204F10F010A5479
:100DF00000979DF801202846691CCDB204F10F012F
:100E00000A549DF800202846691CCDB204F10F0158
:100E10000A54281FA0744FF00008002007E004F1D6
:100E20000F01095C414401F0FF08411CC8B2A8420F
:100E3000F5DB2846691CCDB204F10F0101F80080F2
:100E40002A462046FFF738FABDE8F8832DE9F84F27
:100E500004460E4617469846DDE90AAB0025AA224D
:100E600029466D1C04F10F00425429466D1C425462
:100E7000022229466D1C4254002229466D1C425410
:100E800000969DF8012029466D1C42549DF80020D3
:100E900029466D1C425400979DF8012029466D1C7F
:100EA00042549DF800202846691CCDB204F10F0180
:100EB0000A54CDF800809DF801202846691CCDB267
:100EC00004F10F010A549DF800202846691CCDB298
:100ED00004F10F010A54CDF800A09DF80120284626
:100EE000691CCDB204F10F010A549DF80020284678
:100EF000691CCDB204F10F010A54CDF800B09DF881
:100F000001202846691CCDB204F10F010A549DF856
:100F100000202846691CCDB204F10F010A540C9838
:100F200000909DF801202846691CCDB204F10F0104
:100F30000A549DF800202846691CCDB204F10F0127
:100F40000A540D9800909DF801202846691CCDB2E6
:100F500004F10F010A549DF800202846691CCDB207
:100F600004F10F010A540E9800909DF801202846C4
:100F7000691CCDB204F10F010A549DF800202846E7
:100F8000691CCDB204F10F010A540F9800909DF82E
:100F900001202846691CCDB204F10F010A549DF8C6
:100FA00000202846691CCDB204F10F010A54281F05
:100FB000A0744FF00009002007E004F10F01095C64
:100FC000494401F0FF09411CC8B2A842F5DB28469C
:100FD000691CCDB204F10F0101F800902A462046A9
:100FE000FFF76AF9BDE8F88F2DE9FE4F04460E467B
:100FF00017469846DDE90CAB0025CDF804A0AA22DF
:1010000029466D1C04F10F00425429466D1C4254C0
:10101000012229466D1C4254002229466D1C42546F
:10102000FE49304609F066FD009009F09DFC00B2D3
:1010300002909DF8092029466D1C04F10F004254CE
:101040009DF8082029466D1C4254F449384609F0A1
:1010500051FD009009F088FC00B202909DF8092033
:1010600029466D1C04F10F0042549DF808202846C3
:10107000691CCDB204F10F010A54E849404609F059
:1010800039FD009009F070FC00B202909DF8092033
:101090002846691CCDB204F10F010A549DF80820BE
:1010A0002846691CCDB204F10F010A549DF80720AF
:1010B0002846691CCDB204F10F010A549DF80620A0
:1010C0002846691CCDB204F10F010A549DF8052091
:1010D0002846691CCDB204F10F010A549DF8042082
:1010E0002846691CCDB204F10F010A542846691C38
:1010F000CDB204F10F0101F800B029466A1CD5B247
:1011000004F10F020E985054281FA0744FF00009EC
:10111000002007E004F10F01095C494401F0FF09D8
:10112000411CC8B2A842F5DB2846691CCDB204F1C7
:101130000F0101F800902A462046FFF7BDF8BDE8F0
:10114000FE8F2DE9FF4104460E460025AA222946BE
:101150006D1C04F10F00425429466D1C42540022BC
:1011600029466D1C425429466D1C425429466D1C6B
:1011700046549DF8092029466D1C42549DF80820CC
:1011800029466D1C42549DF80D202846691CCDB29D
:1011900004F10F010A549DF80C202846691CCDB2B9
:1011A00004F10F010A549DF829202846691CCDB28C
:1011B00004F10F010A549DF828202846691CCDB27D
:1011C00004F10F010A549DF82D202846691CCDB268
:1011D00004F10F010A549DF82C202846691CCDB259
:1011E00004F10F010A54281FA0740027002006E014
:1011F00004F10F01095C3944CFB2411CC8B2A842C6
:10120000F6DB2846691CCDB204F10F010F542A46C3
:101210002046FFF751F8BDE8FF812DE9F04788B07F
:1012200004467F4800787F49097890FBF1F201FB82
:1012300012017C480078401E814201D10120A0703B
:10124000774800787849097890FBF1F201FB1201A8
:1012500075480078401E814201D10120E07070483D
:1012600000787249097890FBF1F201FB12016F4896
:101270000078401E814201D10120607368480078E7
:101280006B49097890FBF1F201FB12016848007884
:10129000401E814201D1012060706148007865499B
:1012A000097890FBF1F201FB120162480078401EC0
:1012B000814201D10120A072594800785E49097825
:1012C00090FBF1F201FB12015B480078401E814265
:1012D00001D101202073524800785849097890FBC9
:1012E000F1F201FB120155480078401E814201D104
:1012F0000120A0734A480078401C494908702078B2
:1013000068B1002020704FF4C8716E234FF49672BC
:10131000CDE9001001212046FFF713FF44E160787A
:10132000A8B1002060704649086B09F01DFB054616
:101330004448407A4349097BCDE900510290424834
:101340008368426801682046FFF74EFE2CE1607B0F
:1013500010B10020607327E1A07880B30020A07056
:101360003949486909F000FB05B23749086909F0B5
:10137000FBFA06B23449C86809F0F6FA07B23249F6
:10138000C86A09F0F1FA0FFA80F82F49886A09F063
:10139000EBFA0FFA80F92C49486A09F0E5FA0FFADE
:1013A00080FA0020CDE90250049043464A46514657
:1013B000CDE9007605902046FFF748FDF4E0FFE711
:1013C000E078A0B10020E0701D48806800EBC00309
:1013D00003EB00104FF6FF7303EA800218484068E1
:1013E000642300FB03F12046FFF7D3FCDCE0A07A86
:1013F00098B10020A0721548408A1449098A134AFE
:10140000D289124B9B89CDE90332CDE905100F48F3
:10141000418900890D4A52881AE024E00000C84240
:10142000020000200300002009000020040000202A
:101430000500002006000020070000200800002012
:10144000F4040020C000002008020020C80500208D
:10145000CDE900200291614803888288C188204636
:10146000FFF7D3FBA0E0207B80B30020207305A909
:101470005B4801F033F800200AE005A931F81010AC
:10148000A1F57A7109B205AA22F81010411CC8B260
:101490000628F2DB0022BDF81E0080B2BDF81C1049
:1014A00089B2CDE9020204920191BDF81A0080B21E
:1014B0000090BDF8180083B2BDF8160082B2BDF8E6
:1014C000140081B22046FFF7F3FA6DE0FFE7A07B3E
:1014D00080B10020A07343494348006809F00AFB2B
:1014E000064609F087FA85B2002229462046FFF712
:1014F00092FA59E02079E8B1002020713B48016C54
:10150000C06B3A4A926B394B5B6ACDE90332CDE945
:1015100005013648006A3549C969344A9268CDE9FF
:101520000021029031484368012102682046FFF7FC
:101530005BF939E06079F0B1002060712B48D0F898
:101540009420D0F89010D0F88C00284B9B6FCDE9F8
:101550000330CDE905122548416F006F234AD26D53
:10156000CDE9002002912148836D0221426D204681
:10157000FFF73AF918E0A079B0B10020A07103900C
:10158000049005900146024606901848D0F8B00035
:10159000CDE9012100901548D0F8AC300321D0F8F6
:1015A000A8202046FFF720F908B0BDE8F0871049D1
:1015B00009781E290CDD00210D4A11700D49897A28
:1015C00019B901220B498A7202E0002209494A72C4
:1015D00007490978491C064A11707047C805002060
:1015E000E80400200000C8425C0000201401002034
:1015F0000A000020C00000202DE9F04781460C467B
:1016000015462946C34809F075FA804641464FF011
:101610007E5009F0B3F80746214609F03BF806462C
:101620003146204609F0AAF8BDE8F0872DE9F84FC9
:101630000F4615461C462946B64809F05BFA814616
:10164000394609F057FA804641464FF07E5009F07E
:1016500095F806463146B04809F04CFA82463146C4
:10166000304609F047FA8346514609F013F881469F
:101670004FF07E5109F00EF8804641464FF07E5003
:1016800009F07CF820603146A34809F033FA83461C
:101690003146304609F02EFA5946009008F0FAFF1C
:1016A00082464FF07E5108F0F5FF804631469A4859
:1016B00009F020FA314600904FF0804009F01AFA04
:1016C0008346314609F016FA8246009908F0E2FF97
:1016D0008146414609F052F8606031468E4809F073
:1016E00009FA83463146304609F004FA594600901B
:1016F00008F0D0FF81464FF07E5108F0CBFF8046C6
:101700003146304609F0F6F98246414609F036F88E
:10171000A060BDE8F88F2DE9F04107460D4614465C
:101720002146284608F0B6FF06463146204609F015
:1017300025F8BDE8F0810FB4F0B58DB005460F4631
:101740001A9C224617A904A808F0A0FB04A807C801
:1017500007AB07C321464FF07E5009F08BFB0646CE
:10176000324614A901A808F091FB01A807C80AABEA
:1017700007C307AA0AA9284608F0A4FB0DB0F0BCCD
:101780005DF814FB0FB470B59EB005460E461446C6
:101790000FA8002181604160016000BF04F10C01CD
:1017A0000CA8A26808F072FB0CA807C812AB07C30C
:1017B00004F1180109A8626808F068FB09A807C8C5
:1017C00015AB07C325A906A8226808F05FFB06A889
:1017D00007C818AB07C315AA18A903A808F072FB1D
:1017E00003A807C81BAB07C312AA1BA9684608F0C9
:1017F00015FB9DE807000FAB07C3D4E90712A069EA
:10180000C4E90412E0600FA807C8C4E90712A06188
:101810000FA807C885E807001EB070BC5DF814FB70
:101820002DE9F05F83460C4615463C48A1680068E8
:1018300009F060F980463A486168006809F05AF991
:1018400081462846216809F055F98246494608F044
:1018500021FF0746414609F00DFB06463048006867
:101860002E4908602E480660304609F07DF8BDE834
:10187000F09F2DE9F05F83460C4615462948A16884
:10188000006809F037F9804627486168006809F068
:1018900031F981462846216809F02CF982464946EB
:1018A00008F0F8FE0746414609F0E4FA06461E48ED
:1018B00000681C4908601C480660304609F054F86E
:1018C000BDE8F09F0FB4F0B58DB005460F461A9CE9
:1018D00021464FF07E5009F0CDFA0646324617A950
:1018E00004A808F0D3FA04A807C807AB07C3224628
:1018F00014A901A808F0CAFA01A807C80AAB07C3CF
:1019000007AA0AA9284608F0DDFA0DB0F0BC5DF878
:1019100014FB0000DB0FC940000040401000002015
:101920000C000020180000201400002038B50446E8
:10193000DC48DD4BDD4A11460090204607F079F97E
:10194000D848D94BD94A1146009004F11C0007F041
:1019500070F9D4480023D64AD649009004F13800E3
:1019600007F067F9002003460246D349009004F1CE
:10197000540007F05EF90020034602464FF0804114
:10198000009004F1700007F054F9CC48CC4B4FF0B4
:101990007C524FF07F51009004F18C0007F049F920
:1019A000C04800231A46C749009004F1A80007F078
:1019B00040F938BD10B5044607231C22C249204611
:1019C00007F05EF9044604F1C40008F0A9F9A0F19B
:1019D000C40404F1D00008F0A3F9A0F1D00404F18C
:1019E000EC0008F09DF9A0F1EC04962004F8DC0F5F
:1019F000322060706420E082DC3C2046FFF796FFD6
:101A0000204610BD10B50446B049086B08F0ACFF85
:101A1000C4F8D80010BD2DE9F04188B0044603A8F1
:101A2000002181604160016000BFA9490868A9499F
:101A300009F060F80746A849B1F9141048004FF4BE
:101A4000AF72514202F033F8804608F0F3FF0646C9
:101A5000394609F00FFA054608F086FF06909C49C2
:101A600048689C4909F046F807469B49B1F91610A9
:101A700048004FF4AF72514202F019F8804608F066
:101A8000D9FF0646394609F0F5F9054608F06CFF1E
:101A900007900221069802F015F806900221079897
:101AA00002F010F807904FF08142894918316846DA
:101AB00008F098F99DE8070003AB07C304F1540050
:101AC000069901F0D3FC074608F0B4FF06460399D7
:101AD00009F0D0F9054608F047FFC4F8E00004F12A
:101AE0005400079901F0C2FC074608F0A3FF064620
:101AF000049909F0BFF9054608F036FFE4210851C2
:101B000094F8DD007449B1F9181000FB01F5E917EC
:101B100005EBD161481108F08DFF0746059909F0E2
:101B2000A9F9064608F020FFE821085108B0BDE8F1
:101B3000F0812DE9FF47054665494868002109F015
:101B4000A5F802D26248406803E06148406880F02E
:101B5000004007465E490868002109F097F802D264
:101B60005B48006803E05A48006880F00040804607
:101B7000394609F08BF80DD255490868002109F063
:101B800085F802D25248006811E05148006880F0A0
:101B900000400CE04E494868002109F077F802D275
:101BA0004B48406803E04A48406880F000400446E3
:101BB0004A4A002101F041FF064600241AE0464847
:101BC000C088B0F5966F05DAC4EBC40105EB81005F
:101BD00001F086FC05F1E00252F82410C4EBC402C7
:101BE00005EB8200364A01F051FC01A941F82400BE
:101BF000601CC4B2032CE2DB374BB3F91830002B66
:101C000003DD354BB3F9183003E0334BB3F918302B
:101C10005B4203F59672304BB3F91830002B03DDAD
:101C20002D4BB3F9183003E02B4BB3F918305B425E
:101C30002B4CE11A039801F03AFF404203902948E7
:101C4000007BD8B9304601F04EFF824607F0A6FA75
:101C500080462149B1F91A10A1F57A7008F0EAFE20
:101C60008146414608F08AFD07461F4908F012FDEB
:101C7000044608F079FE01B21748418303980090AA
:101C80001548408B81B21948DDE9012300F07EFA46
:101C9000BDE8FF877047704710B51548FFF78AFE0B
:101CA00010BD0000000048430AD7A33C9A99193E92
:101CB0006666E63ECDCC4C3F0000A04000001643D7
:101CC0006F12033B9A99993F418C0008F40400205D
:101CD0000802002000002041C80500200000A041AB
:101CE000D4FEFFFFC000002000007A44E80400207A
:101CF0001401002010B50446204600BF04462046CB
:101D000007F0DDFF044604F10C0007F0D8FFA0F156
:101D10000C0404F1180007F0D2FFA0F1180404F13C
:101D2000240007F0CCFFA0F1240404F1300007F0F8
:101D3000C6FFA0F1300404F13C0006F03EFFA0F124
:101D40003C0404F1600006F038FFA0F1600404F1E7
:101D5000880006F041FFA0F1880404F5C87006F081
:101D60003BFFA0F5C87404F527704FF07E51016069
:101D70000021C1608160416000BFA0F5277420464A
:101D800010BD10B5044662224FF47A71E84803F0A2
:101D9000CFF810BD10B50446E64AE7492046FFF7E4
:101DA0002BFCE649086004F13C03E24AE249204684
:101DB000FFF73CFC04F16003E14ADF492046FFF7EE
:101DC00035FCE04ADC492046FFF7A5FCDB494860CA
:101DD00010BD10B504462046FFF7DCFF2046FFF794
:101DE000D0FF10BD3EB50446D14803F073F9D0488A
:101DF00003F043FACE49684603F0A3FA9DE80700D2
:101E0000C4E90412E060CA49684603F093FA9DE809
:101E10000700C4E90A1260623EBD3FB599B00446AE
:101E2000239DC948007800F0010060B9C64806F05B
:101E300039FF40B100231A461946C44807F03BFF5A
:101E4000C148AFF3008020A807F02AFF0DA807F0D3
:101E500036FF0DA904F5277001F076FF0AA807F0F8
:101E60002EFF0DAA20A907A808F048F807A807C860
:101E70000AAB07C3B64A0AA907A808F007F807A8DB
:101E800007C816AB07C316A9B04807F035FF4FF0D7
:101E900080420AA907A807F0F9FF07A807C810ABF6
:101EA00007C310AA1AA904A808F00CF804A807C8C8
:101EB00013AB07C3A54A13A901A808F003F801A8AA
:101EC00007C81AAB07C32A461AA904F5277001F000
:101ED000ACFF04F5277001F07DFE04F10803221D1C
:101EE000214604F5277002F032F91DB030BD2DE90E
:101EF000F04782460C4697490968601A08F066F96F
:101F00000746954A954B08F0B1F9054608F032F8B6
:101F10008146904804604846BDE8F0872DE9F043CB
:101F200095B004460EA807F07DFE08A807F07AFEDB
:101F3000D4E90A01CDE9000104F13C02214605A8DB
:101F4000636AFFF71FFC05A807C8C4E90D122063E8
:101F5000D4E90401CDE9000104F16002214605A89D
:101F6000E368FFF70FFC05A807C8C4E90712A061E2
:101F700004F130052946284607F06CFF8146784970
:101F800008F0B8FD80464FF0974108F0F7FB074690
:101F900008F0EAFCC4F8AC0202F08CF905462946C8
:101FA0002046FFF7A4FF0646206A0090604905A876
:101FB000D4E9062303F0CCF90396D4E90D12206B83
:101FC0008DE80700204605A90EC9FFF726FF15B0CA
:101FD000BDE8F0832DE9F0418CB080460C4603A8A3
:101FE00007F00CFE684607F06AFE206801F07BFDF2
:101FF00080F00045606801F076FD80F00046A06842
:1020000001F071FD074600950196029700BF6946F1
:1020100003A807F06FFD04F1300203A9404607F062
:1020200088FE0CB0BDE8F0813FB59DB00446279D09
:1020300024A807F035FE14A807F041FE0BA807F00E
:10204000DDFD484A1EA908A807F03CFF08A807C8FC
:1020500017AB07C32A4617A905A807F017FF05A85D
:1020600007C81AAB07C34FF07C521AA902A807F0A1
:102070000DFF02A807C814AB07C33A481EA90EC932
:102080000EC014A90BA807F035FD374A0BA908A804
:1020900007F04FFE29484068049024A807C801AB08
:1020A00007C30A980090214605A8DDE90823FFF739
:1020B00009FC2D4805A90EC90EC021460C3807F0B1
:1020C000B9FD2A4A0BA908A807F033FE1B4840684F
:1020D000049024A807C801AB07C30A9800902146C2
:1020E00005A8DDE90823FFF7EDFB204805A90EC987
:1020F0000EC021460C3807F0C7FD21B030BD10B529
:102100001B48FFF7F7FD00231A461946154807F04C
:10211000D2FD4FF08B4300221146134807F0CBFD50
:1021200000231A464FF08B41104807F0C4FD10BD44
:1021300018060020000048426F12033BC000002038
:10214000000002436666E63F20000020DC04002019
:102150006F12833A1C0000208DEDB5A0F7C6B03E8B
:102160000000C842B8040020C4040020D0040020AD
:10217000080200200146002005E04FF47A7221F8A1
:102180001020421CD0B20628F7DB70472DE9F04F33
:1021900091B004460E4617469B46DDF868A0D64827
:1021A000808BD0B9D549C86A4FF08C4108F06EFDDC
:1021B0000AD2D348407A38B1D2480068042803D103
:1021C0000320D049086036E0CB48C088B0F5966F50
:1021D00031DD0020CB4908602DE0C748808B012805
:1021E00015D1C548C088B0F5966F07DAC5480068B4
:1021F000042803D10120C34908601CE0BE48C08800
:10220000B0F5966F17DD0020BE49086013E0BA48AC
:10221000808B022808D1BB480068042804D1022022
:10222000B8490860B04606E0B348808B032802D165
:102230000420B4490860B4480088401E80B2B24906
:10224000088008B932200880AE480068012804D010
:10225000022805D0032814D110E040F2145611E0F2
:10226000A9480088322807D140F24C40804503DB62
:10227000A8F10A001FFA80F8464603E040F214561F
:1022800000E000BF00BF504607F089FFCDE90C0118
:10229000584607F084FF9D4A9D4BCDE9040107F0A5
:1022A000E5FFCDE90801384607F079FF0022994B98
:1022B000CDE9000107F0DAFFCDE90401304607F06F
:1022C00085FFCDE90201DDE9042308F0CDF8CDE971
:1022D0000601DDE9082307F07FFECDE90A01DDE90B
:1022E0000C2307F079FECDE90E0107F029FF00B2BB
:1022F000A080504607F053FFCDE90C01584607F087
:102300004EFF824A824BCDE9040107F0AFFFCDE9D1
:102310000801384607F043FF00227E4BCDE900015B
:1023200007F0A4FFCDE90401304607F04FFFCDE9E7
:102330000201DDE9042308F097F8CDE90601DDE9A3
:10234000082308F091F8CDE90A01DDE90C2307F034
:1023500043FECDE90E0107F0F3FE00B26080504667
:1023600007F01DFFCDE90C01584607F018FF674A3A
:10237000674BCDE9040107F079FFCDE90801384644
:1023800007F00DFF0022634BCDE9000107F06EFF5F
:10239000CDE90401304607F019FFCDE90201DDE97E
:1023A000042307F019FECDE90601DDE9082307F053
:1023B00013FECDE90A01DDE90C2308F055F8CDE95B
:1023C0000E0107F0BDFE00B22080504607F0E7FE88
:1023D000CDE90C01584607F0E2FE4C4A4C4BCDE9E2
:1023E000040107F043FFCDE90801384607F0D7FEA6
:1023F0000022484BCDE9000107F038FFCDE9040188
:10240000304607F0E3FECDE90201DDE9042307F0E1
:10241000E3FDCDE90601DDE9082308F025F8CDE963
:102420000A01DDE90C2308F01FF8CDE90E0107F0E1
:1024300087FE00B2E080F01BA0EB0A0000B26081D2
:10244000F019504400B22081B4F90090012007E057
:1024500034F91010494501DD34F91090411CC8B21F
:102460000628F5DB002518E0B9F5E16F07DD34F843
:102470001510A9F5E160081A00B224F8150034F827
:10248000151088B24FF4E1624FF47A7101F004FB49
:1024900000B224F81500681CC5B2062DE4DB18480C
:1024A000407A10B92046FFF765FE1548407A70B1B2
:1024B00014480068042807D01248006838B90E484C
:1024C000C088B0F5966F02DA2046FFF753FE21462A
:1024D000114803F02CFB11B0BDE8F08F02880A8090
:1024E00042884A8082888A80C288CA8002890A819A
:1024F00042894A8170470000C80500200802002078
:10250000C0000020240000202800002083C0CAA1B1
:1025100045B6EB3F0000E03F8F00002010B50446B9
:10252000204600BF044604F1100007F0C8FBA0F1EC
:10253000100404F11C0007F0C2FBA0F11C0404F11C
:10254000280007F0BCFBA0F1280404F1340007F0D8
:10255000B6FBA0F1340404F1400007F0B0FBA0F199
:10256000400404F1500006F028FBA0F1500404F1EF
:10257000740006F022FBA0F1740404F1B40007F02B
:102580009EFBA0F1B4044FF082431A46194604F1B1
:10259000B40007F099FBFE489834A0614FF4802006
:1025A000A062FC4844F89809FB499C200151FB4972
:1025B000A0200151FA49A4200151FA49A820015153
:1025C000F949AC200151204610BD10B50446F7482A
:1025D00002F036FF10BD10B5044604F15003F44A72
:1025E000F4492046FFF722F804F17403F24AF14956
:1025F0002046FFF71BF810BD10B504462046FFF734
:10260000EAFF2046FFF7E1FF10BD01B5AEB017A805
:1026100007F055FB14A807F052FBE84800680A28A9
:1026200003D0E748007802287DD10020E4490870F3
:102630005521E34803F020FC0020E049086001F048
:1026400039FEE0490968401A0F9007F0BFFDDE4AE5
:10265000DE4BCDE9100107F009FECDE9120107F0CC
:1026600089FC1A9001F026FED64908602E98C068B1
:10267000129008F0DFF9024613902E9974312E98CB
:10268000FFF7F7F82E9988602E988068D04909687E
:10269000401A119008F0E6F912901A9908F06EF8B5
:1026A000139008F061F901B22E9841802E9880684D
:1026B000C74908602E98B0F902004FF4FA5251420F
:1026C000139001F0F4F901B22E9841802E98B0F9E0
:1026D00002006421139001F0F5F901B22E984180B7
:1026E0002E98C068BA490968884205D1B94800786F
:1026F000401CB849087002E00021B64801702E98CD
:10270000C068B34908602E98806800280FDD2E98B5
:102710008068B0F57A7F0ADAAE4800781E2806DABB
:1027200001212E9800E006E080F8D01003E000219F
:102730002E9880F8D010A1480068401C9F4908607E
:10274000A5480068052803D1984802F08EFF09E2E9
:10275000A14800680A28FAD101F0ACFD9F49096838
:10276000401A0F9007F032FD974A984BCDE91001BF
:1027700007F07CFDCDE9120107F0FCFB1A9001F097
:1027800099FD96490860002193480160874802F04E
:102790006CFF864802F085FF129008F04BF9024664
:1027A00013902E9950312E98FFF73AF82E994860E1
:1027B0002E984168D0F8C400081A119008F03AF930
:1027C00012901A9907F0DAFF139008F0CDF801B2D1
:1027D0002E9801802E984168C0F8C4102E98B0F948
:1027E00000004FF448725142139001F060F901B2B9
:1027F0002E9801802E98B0F900000A21139001F064
:1028000061F901B22E9801802E9890F8D00000282E
:102810007ED02E98B0F90200119008F00BF91290BA
:102820002E98406A01461190129808F023FB1390ED
:10283000169801461290139807F02CFF16902E98C8
:10284000D0F8A000014608904FF07E5008F012FB2F
:10285000099007F0F3FECDE90C012E98B0F90200C3
:10286000079007F09CFC5E4A5E4BCDE9080107F03B
:10287000FDFCCDE90A01DDE90C2307F0F7FCCDE909
:1028800010012E98D0F8A0000C902E98406A0B9062
:102890000C9908F02FF90D9007F0D0FECDE90E014C
:1028A000DDE9102307F098FBCDE9120107F062FB88
:1028B00001462E9841622E98D0F8AC00014608904F
:1028C0004FF07E5008F0D6FA099007F0B7FECDE938
:1028D0000C012E988068079007F061FC404A414B3C
:1028E000CDE9080107F0C2FCCDE90A01DDE90C23BE
:1028F00007F0BCFCCDE910012E98D0F8AC000C908C
:102900002E98006B0B900C9908F0F4F80D9000E0F5
:102910007AE007F093FECDE90E01DDE9102307F020
:102920005BFBCDE9120107F025FB01462E98016300
:102930002E984068039007F032FCCDE906012E98EE
:102940008068019007F02BFC254A264BCDE9020157
:1029500007F08CFCCDE90401DDE9062307F084FDD6
:10296000CDE9080107F006FB0B9007F067FE1E4A51
:102970001E4BCDE90C0107F079FCCDE910012E9832
:10298000D0F8CC000D9007F00AFCCDE90E012FE045
:10299000FFCF743ECDCC4C3F52B87E3FA4707D3FFC
:1029A0000AD7A33BF6287C3F3333733F70060020E1
:1029B0000000A0400AD7A33C00004842300000209D
:1029C000900000203C0000208DEDB5A0F7C6B03E81
:1029D00040000020440000202C000020380000208F
:1029E0009A9999999999B93FFCA9F1D24D62503FB2
:1029F000DDE9102307F0F0FACDE9120107F0A0FBA2
:102A00002E99C1F8CC00ADE02E98B0F900001190DD
:102A100008F010F812902E98406A01461190129812
:102A200008F028FA1390169801461290139807F0B0
:102A300031FE16902E98D0F8A400119016981090A0
:102A4000119908F057F813902E98D0F89C00014681
:102A50000D904FF07E5008F00DFA0F902E98B0F9BF
:102A600000000D9007F0E6FF0E900F9908F042F875
:102A700011902E98D0F89C000F902E98406A0E90DE
:102A80000F9908F037F81090119907F003FE129093
:102A9000139907F0FFFD01462E9841622E98D0F859
:102AA000A80001460F904FF07E5008F0E3F9119016
:102AB0002E984168D0F8CC0008440F9007F0BAFF78
:102AC0001090119908F016F813902E98D0F8A800DD
:102AD00011902E98006B1090119908F00BF812903D
:102AE000139907F0D7FD01462E9801632E98406890
:102AF000109007F09FFF11902E98006B01461090E8
:102B0000119808F0B7F90021129008F0BFF80DD223
:102B10002E984068119007F08DFF12902E98006B50
:102B200001461190129808F0A5F90EE02E98406821
:102B3000119007F07FFF12902E98006B01461190C4
:102B4000129808F097F980F000409A49139008F025
:102B50009DF807D22E984068139007F06BFF01464E
:102B60002E98016394480068401C9349086001F066
:102B7000A1FB92490968401A0F9007F027FB904A81
:102B8000904BCDE9100107F071FBCDE9120107F080
:102B9000F1F91A9001F08EFB884908608A4911A862
:102BA000FFF718FA11A807C817AB07C38748407A80
:102BB00008BB2E98D0F8C000C117139000EB9160AD
:102BC00081112E98D0F8C000411A2E98C0F8C0107C
:102BD0002E98D0F8C000119007F02CFF1290199891
:102BE00001461190129807F055FD139007F0BCFEB6
:102BF0002E99C1F8C0002E98D0F8C000C1171390CC
:102C000000EB91608011119007F014FF1290199859
:102C100001461190129808F09BF819902E98D0F860
:102C2000B4000F9007F0A0FE119017980F9007F0D6
:102C30009BFE1090119900F045FF129007F0FAFEEC
:102C400013902E98D0F8B00001461290139807F018
:102C500051FF2E9908612E98D0F8B8000F9007F018
:102C600083FE119018980F9007F07EFE1090119936
:102C700000F028FF129007F0DDFE80F00040139076
:102C80002E98D0F8B00001461290139807F032FF4A
:102C900001462E9841612E98D0F8BC000F9007F0A5
:102CA00063FE119019980F9007F05EFE1090119935
:102CB00000F008FF129007F0BDFE13902E98D0F898
:102CC000B00001461290139807F014FF01462E98A9
:102CD00081612E9A40322E991C3111A807F0F2F82A
:102CE00011A807C824AB07C324A90EA81A9A07F095
:102CF000CDF80EA807C827AB07C34FF07C5227A911
:102D00000BA807F0C3F80BA807C82AAB07C32AA96A
:102D10002E98283006F0F0FF2E98D0E90823C169DC
:102D200040300EC02E9A34322E99103111A807F07F
:102D3000C9F811A807C81BAB07C31BA90EA81A9A8C
:102D400007F0A4F80EA807C81EAB07C34FF07C52CB
:102D50001EA90BA807F09AF80BA807C821AB07C358
:102D600021A92E981C3006F0C7FF2E98D0E9052324
:102D7000016934300EC02FB000BD10B504460023E9
:102D80001A46194604F1100006F09EFF00231A4669
:102D9000194604F11C0006F097FF00231A46194655
:102DA00004F1280006F090FF10BD10B50848FFF7A9
:102DB000B5FB10BD000048432C000020340000206B
:102DC0008DEDB5A0F7C6B03E08020020C00000207F
:102DD000F404002010B50446FE490888FE4909881D
:102DE00001F036FE10BD1CB50446FA490889694653
:102DF00001F089FCF74948890DF1020101F083FCDB
:102E0000F449888901A901F07EFCBDF8000000B2F8
:102E1000F2490881BDF8020001B2F0484181BDF8D5
:102E2000040001B2ED4881811CBD1CB50446E9498E
:102E30004888694601F067FCE64988880DF102017F
:102E400001F061FCE349C88801A901F05CFCBDF810
:102E5000000000B2E1494880BDF8020001B2DF483D
:102E60008180BDF8040001B2DC48C1801CBD38B5CA
:102E70000446D849C889694601F045FCBDF8000000
:102E800007F0F0FD0546D64907F078FCD549086003
:102E9000D049088A694601F036FCBDF8000007F009
:102EA000E1FD0546CE4907F069FCCE494860C949B5
:102EB000488A694601F027FCBDF8000007F0D2FD02
:102EC0000546C94907F05AFCC6498860C149888A45
:102ED000694601F018FCBDF8000007F0C3FD054687
:102EE000BF4907F04BFCBF49C861BA49C88A694667
:102EF00001F009FCBDF8000007F0B4FD0546B84933
:102F000007F03CFCB7490862B249088B694601F0FA
:102F1000FAFBBDF8000007F0A5FD0546B24907F031
:102F20002DFCB0494862AB49488B694601F0EBFB88
:102F3000BDF8000007F096FD0546A94907F01EFC04
:102F4000A8498863A349888B694601F0DCFBBDF87A
:102F5000000007F087FD0546A14907F00FFCA149D5
:102F6000C8639C49C88B694601F0CDFBBDF80000E1
:102F700007F078FD05469C4907F000FC9949086474
:102F80009449088C694601F0BEFBBDF8000007F0CB
:102F900069FD0546924907F0F1FB9249C1F8A80086
:102FA0008C49488C694601F0AEFBBDF8000007F083
:102FB00059FD05468A4907F0E1FB8A49C1F8AC0092
:102FC0008449888C694601F09EFBBDF8000007F03B
:102FD00049FD0546844907F0D1FB8249C1F8B0009C
:102FE0007C49C88C694601F08EFBBDF8000007F0F3
:102FF00039FD05467A4907F0C1FB7A4948657549AC
:10300000088D694601F07FFBBDF8000007F02AFD3E
:103010000546734907F0B2FB724988656D49488DD2
:10302000694601F070FBBDF8000007F01BFD054686
:103030006D4907F0A3FB6B49C8656649888D6946F1
:1030400001F061FBBDF8000007F00CFD0546644986
:1030500007F094FB634908675E49C88D694601F033
:1030600052FBBDF8000007F0FDFC05465C4907F087
:1030700085FB5C4948675749088E694601F043FB68
:10308000BDF8000007F0EEFC0546574907F076FB57
:103090005449886738BD10B504462046FFF7E7FE5F
:1030A0002046FFF7C2FE2046FFF79DFE10BD70B51B
:1030B00005464C4908684A4907F01CFD064607F0DA
:1030C00099FC84B24349C889214601F0C1FC4549B5
:1030D0004868434907F00EFD064607F08BFC84B2B2
:1030E0003C49088A214601F0B3FC3E4988683E49C4
:1030F00007F000FD064607F07DFC84B23549488A9A
:10310000214601F0A5FC3749C869354907F0F2FCB2
:10311000064607F06FFC84B22E49888A214601F0EA
:1031200097FC3049086A2E4907F0E4FC064607F090
:1031300061FC84B22749C88A214601F089FC2949EB
:10314000486A294907F0D6FC064607F053FC84B2CA
:103150002049088B214601F07BFC2249886B2049DD
:1031600007F0C8FC064607F045FC84B21949488BB5
:10317000214601F06DFC1B49C86B194907F0BAFCE8
:10318000064607F037FC84B21249888B214601F0CD
:103190005FFC1449086C144907F0ACFC064607F0C4
:1031A00029FC84B20B49C88B214601F051FC0D4922
:1031B000D1F8A8000A4907F09DFC064607F01AFC62
:1031C00084B20449088C214601F042FC0549D1F83B
:1031D000AC000BE046B000084800002018060020B4
:1031E0000000C8421401002000007A445E4907F044
:1031F00081FC064607F0FEFB84B25C49488C214600
:1032000001F026FC5A49D1F8B0005A4907F072FC87
:10321000064607F0EFFB84B25449888C214601F042
:1032200017FC5349486D504907F064FC064607F007
:10323000E1FB84B24D49C88C214601F009FC4C49A0
:10324000886D494907F056FC064607F0D3FB84B267
:103250004649088D214601F0FBFB4549C86D4549AB
:1032600007F048FC064607F0C5FB84B23F49488D8D
:10327000214601F0EDFB3E49086F3B4907F03AFC5F
:10328000064607F0B7FB84B23849888D214601F025
:10329000DFFB3749486F344907F02CFC064607F03E
:1032A000A9FB84B23149C88D214601F0D1FB3049D8
:1032B000886F304907F01EFC064607F09BFB84B27E
:1032C0002A49088E214601F0C3FB70BD38B504467B
:1032D00026490888694601F016FABDF8000038BD95
:1032E00010B504462046FFF7F1FF234909888842BC
:1032F00002D02046FFF7DBFE2046FFF7CCFE20463B
:10330000FFF768FD10BD10B504461C4A528891B203
:10331000164A508801F09CFB184A928891B2134AD1
:10332000908801F095FB154AD28891B20F4AD08857
:1033300001F08EFB10BD10B50446104A128991B2FF
:103340000A4A108901F084FB0C4A528991B2074A5B
:10335000508901F07DFB094A928991B2034A908914
:1033600001F076FB10BD00000000C84246B0000826
:103370001401002000007A444800002018060020B4
:103380002DE9F05F04460E4617460021A06807F0BD
:10339000B7FA3AD00021384607F0B2FA35D0A06922
:1033A00020F00041C1F1FF41C90F19B100250020F3
:1033B000A06108E06169701A07F03CFB804639465D
:1033C00007F0DCF905462846A16907F053FD82465F
:1033D0003946454807F05EF983465946384607F0B6
:1033E000CDF98146514607F085FB8046A16907F07B
:1033F00051F905466661A5612946A06807F07AFB88
:10340000804607F0B1FABDE8F09F0020FBE72DE908
:10341000F04704460E4615460021606807F070FA32
:1034200022D00021284607F06BFA1DD0304607F065
:1034300001FB8146616807F05DFB8046294607F085
:1034400059FB0746216907F025F92061E06880F003
:10345000004702463946206900F0EFFA20612069F2
:1034600007F082FABDE8F0870020FBE72DE9F04184
:1034700004460D46284607F0DDFA0746216807F0A6
:1034800039FB064607F070FABDE8F0812DE9F041FE
:1034900004460D46164629462046FFF7E7FF074635
:1034A000324629462046FFF7B2FF074432462946F6
:1034B0002046FFF765FF3844BDE8F0812DE9F04173
:1034C00004460D46164629462046FFF7CFFF07461D
:1034D000324629462046FFF79AFF3844BDE8F0817E
:1034E00000210161704700000361023C30B50146D4
:1034F000002013E000FB00F2193A32235A4302F68F
:10350000C41242435A4340F6C41392FBF3F213B27F
:1035100001F11E0222F81030421CD0B20728E9DB6C
:1035200000202EE000EB80046400A4F132020123AD
:10353000002A00DD3223002A00DA3223002503FBB3
:1035400003F495FBF4F4643454430A2594FBF5F436
:1035500004F5FA7425B201F12C0424F8105034F962
:1035600010404FF448756C434FF47A7594FBF5F4B2
:1035700004F57A7425B201F12C0424F81050421C91
:10358000D0B20C28CEDB30BD10B504462046FFF784
:10359000ADFF204610BD2DE9F05F0446002060E03D
:1035A00034F81010A1F2DC51002904DD34F81010B9
:1035B000A1F2DC5104E034F8101040F2DC52511A50
:1035C000B1F5FA7F10DA34F81010A1F2DC510029BD
:1035D00004DD34F81010A1F2DC5107E034F81010CB
:1035E00040F2DC52511A01E04FF4FA710E46022803
:1035F0001FD0642196FBF1F504F11E016A1C31F91C
:10360000122031F91510511A05EBC50202EB051213
:10361000A6EB82025143642291FBF2F204F11E01F7
:1036200031F8151011440AB204F1140121F81020E8
:1036300005E071420AB204F1140121F8102034F8B7
:10364000101040F2DC52914209DA04F1140131F811
:10365000101049420AB204F1140121F81020411C53
:10366000C8B203289CDBE0884FF4FA624FF49661FD
:1036700000F012FA0646A6F596604FF47A714843B8
:103680004FF44871B0FBF1F6642096FBF0F59448D6
:10369000007B08BB04F12C00691C30F9111030F9D3
:1036A0001500081A05EBC50101EB0511A6EB810118
:1036B0004843642190FBF1F104F12C0030F815002F
:1036C000084401B26183E0884FF4FA624FF49661D6
:1036D00000F0E2F901B26183B4F91800002802DDBC
:1036E000B4F9180002E0B4F918004042462832DA72
:1036F000E088B0F5966F2EDD7A4AD2F8981290687D
:1037000007F0B8FB804607F02FF907B217F1B40FA6
:1037100002DC07F5B47007B2B42F02DBA7F5B47072
:1037200007B2784207B2384607F084F983466E48FC
:10373000016F584607F0DEF98146B4F9180007F02A
:1037400079F98246494607F095FB804607F00CF967
:1037500001B2218304E0634880686249C1F898029D
:10376000BDE8F09F0146002033E031F81020B2F5AB
:10377000617F04DB31F81020B2F5FA6F00DD2AE03A
:1037800031F81020B2F5966F07DA584A125C584BA0
:103790001B781A43564B1A7006E0544A135C544A7D
:1037A00012789A43524B1A7031F81020B2F5E16F3B
:1037B00007DD504A125C4E4B1B781A434C4B1A7073
:1037C00006E04C4A135C4A4A12789A43484B1A70F6
:1037D000401C0428C9DB00BF454A12784AB1464A5A
:1037E0001278FA2A0ADA444A1278521C424B1A70AA
:1037F00004E00022404B1A703D4B1A703E4A12788A
:10380000642A29D1364A527A6AB1394A127802F0CA
:103810001002E2B1364A127802F04002BAB1002337
:103820002F4A537213E0324A127802F0200272B12A
:103830002F4A127802F040024AB1294A127A1AB18C
:103840000123274A537202E001222C4B5A700022B6
:10385000274B1A70284B1A70704729490989B1F50E
:103860007A7F12DD26490989B1F5966F0DDA244970
:103870004989B1F57A7F08DD21494989B1F5966F0B
:1038800003DA00211E4A918323E01D490989B1F51D
:10389000966F0DDD1A494989B1F57A7F08DD18491F
:1038A0004989B1F5966F03DA0121154A918310E039
:1038B00013490989B1F5966F08DD11494989B1F5B8
:1038C000966F03DD02210E4A918302E003210C4A28
:1038D0009183704700B50A48FFF756FE00BD00000F
:1038E000C000002008020020140100203EB00008A3
:1038F0004B00002042B000084A00002018060020BB
:10390000C805002010B53848FCF768FF3648FDF7B9
:1039100084FC10BD10B53548FEF764FA3348FEF755
:10392000FDFA3348FEF705F93248FEF76EFE10BD8A
:1039300010B52F48FEF76FF810BD10B500F0CCFDA4
:1039400010BD10B52C48FFF726FE2B48FFF70AFFE5
:103950002948FFF782FF2448FDF729FE2748FCF796
:103960002EFC2348FEF796F92148FEF794F910BD86
:1039700010B523480088012804DBFFF7C3FF0020AF
:103980001F4908801E484088022804DBFFF7C2FF59
:1039900000201B4948801A488088052804DBFFF76F
:1039A000C7FF0020164988801548C0880A2804DB14
:1039B000FFF7C3FF00201249C8801148008914286E
:1039C00004DBFFF7BEFF00200D49088110BD002178
:1039D0000181C180818041800180704700B5084825
:1039E000FFF7F5FF00BD0000D00000200802002016
:1039F00014010020F4040020C8050020C0000020AD
:103A00000C06002010B50446204605F032F908B136
:103A1000002010BD4FF07E51204607F037F901D845
:103A20006748F6E76749204607F030F801D866484E
:103A3000EFE7204605F0F0F9EBE72DE9F041064607
:103A40000C461546304605F014F950B1294620467B
:103A500006F020FE07464FF07C5107F04BF8BDE81A
:103A6000F0812146304607F011F801D22046F6E7F2
:103A70002946304607F00AF901D22846EFE73046DA
:103A8000EDE703468B4201DA08467047934201DDB9
:103A90001046FAE71846F8E703468B4201DA084673
:103AA0007047934201DD1046FAE71846F8E70346EF
:103AB0008B4201DA08467047934201DD1046FAE76F
:103AC0001846F8E7002801DD024600E042428A423B
:103AD00001DA002006E0002801DD401A02E000289B
:103AE00000DA0844704710B504463849204607F00C
:103AF00001F810BD10B504463549204606F0FAFF1E
:103B000010BD10B504462146204606F0F3FF10BD57
:103B10002DE9F04105460C462046FFF7F2FF074627
:103B20002846FFF7EEFF8046394606F0B3FD06460D
:103B300005F0CAFFBDE8F0812DE9F05F06460C46AE
:103B400015462846FFF7DDFF81462046FFF7D9FFDF
:103B500082463046FFF7D5FF8346514606F09AFD70
:103B60008046494606F096FD074605F0ADFFBDE8E4
:103B7000F09F2DE9FE4F07460C4615461E4630467F
:103B8000FFF7BFFF02902846FFF7BBFF01902046DA
:103B9000FFF7B7FF00903846FFF7B3FF8346009961
:103BA00006F078FD8246019906F074FD814602997F
:103BB00006F070FD804605F087FFBDE8FE8F00002F
:103BC000DB0FC93F000080BFDB0FC9BF34FA8E3C5A
:103BD000E12E654270B5044694E80F00FFF7C9FF77
:103BE00005462946206806F0C9FD20602946606820
:103BF00006F0C4FD60602946A06806F0BFFDA06025
:103C00002946E06806F0BAFDE06070BD2DE9F04F8E
:103C100085B004460D46A168084606F06BFF0746CE
:103C2000D4E9020106F066FF80466168084606F0A6
:103C300061FF8146D4E9010106F05CFF8246E1683C
:103C4000606806F057FF0490D4E9000106F052FFC7
:103C50000390A168206806F04DFF0290E16820689B
:103C600006F048FF0190E168084606F043FF009027
:103C70003846009906F00EFD83464FF0804106F06D
:103C800039FF06464FF07E5107F062F82860504633
:103C9000019907F0EFF806464FF0804106F02AFF41
:103CA00068600299049806F0F5FC06464FF08041E2
:103CB00006F020FFA8605046019906F0EBFC06468E
:103CC0004FF0804106F016FFE8604846009906F084
:103CD000E1FC83464FF0804106F00CFF06464FF0B2
:103CE0007E5107F035F828614046039907F0C2F885
:103CF00006464FF0804106F0FDFE68610299049887
:103D000007F0B8F806464FF0804106F0F3FEA861D0
:103D10004046039906F0BEFC06464FF0804106F08F
:103D2000E9FEE8613946484606F0B4FC83464FF0A8
:103D3000804106F0DFFE06464FF07E5107F008F89E
:103D4000286205B0BDE8F08F2DE9F04704460D4626
:103D5000A168206806F0CEFE0746E168606806F0BC
:103D6000C9FE8046394607F085F806464FF0804187
:103D700006F0C0FE2860D4E9020106F0BBFE07464B
:103D8000D4E9000106F0B6FE8046394606F082FC12
:103D900006464FF0804106F0ADFE6860A168084617
:103DA00006F0A8FE80466168084606F0A3FE81463C
:103DB000414606F06FFC07464FF0804106F09AFE40
:103DC00006464FF07E5106F0C3FFA860BDE8F087BD
:103DD00070B58CB006460C4603AD284605F06FFF63
:103DE000054605F10C0005F06AFFA0F10C0505F190
:103DF000180005F064FFA0F1180500BFA06880F06E
:103E00000040A06003A93046FFF700FF224603A947
:103E1000684605F08EFF9DE8070084E80700A0686B
:103E200080F00040A0600CB070BD2DE9F04F8FB065
:103E3000044689469246504606F000FCCDE908014A
:103E4000D9F80810E06806F055FE0490D9F804107F
:103E5000A06806F04FFE0390606880F0004001907B
:103E6000D9F8001006F046FE0290039907F002F818
:103E70008346049906F0FEFF059006F0DFFB074637
:103E80000022F74B06F0F2F9CDE90601DDE908233F
:103E900006F0ECF905460E46206806F0CFFB2A46F0
:103EA0003346CDE90A0106F097F8CDE90C0106F09A
:103EB00061F82060504606F0C1FBCDE90601D9F853
:103EC0000410E06806F016FE0490D9F80810A06807
:103ED00006F010FE0390D9F80010206806F00AFEE4
:103EE0000290039906F0D6FB8346049906F0C2FFC0
:103EF000059006F0A3FB07460022D94B06F0B6F961
:103F00000546DDE9062306F0B1F9CDE90A0160684E
:103F100006F094FBCDE90801DDE90A2306F05CF820
:103F2000CDE90C0106F026F86060504606F086FBED
:103F3000CDE90801D9F80010E06806F0DBFD049037
:103F4000D9F80810606806F0D5FD0390D9F8041080
:103F5000206806F0CFFD0290039906F08BFF8346A0
:103F6000049906F097FB059006F068FB0022BC4B15
:103F7000CDE9060106F07AF90746DDE9082306F0E7
:103F800075F9CDE90A01A06806F058FB0546DDE9A0
:103F90000A2306F021F8CDE90C0105F0EBFFA06043
:103FA000504606F04BFBCDE90601D9F80010A06899
:103FB00006F0A0FD0390D9F80410606806F09AFDA1
:103FC0008346D9F80810206806F094FD59460290FF
:103FD00006F060FB8046039906F04CFF074606F0AA
:103FE0002DFB054600229E4B06F040F9CDE9040169
:103FF000DDE9062306F03AF9CDE90A01E06806F0AA
:104000001DFBCDE90801DDE90A2305F0E5FFCDE957
:104010000C0105F0AFFFE0600FB0BDE8F08F2DE9B7
:10402000F04F85B004460D4616461F464FF07C51B2
:10403000284606F05FFD824605F0B0F880464FF056
:104040007C51304606F056FD824605F0A7F88146C1
:104050004FF07C51384606F04DFD824605F09EF843
:1040600004904FF07C51284606F044FD824605F04E
:1040700065FC03904FF07C51304606F03BFD8246D4
:1040800005F05CFC02904FF07C51384606F032FDA2
:10409000824605F053FC0190DDE9021006F02AFD8E
:1040A0000090019906F026FD82464946404606F0FA
:1040B00021FD0090049906F01DFD8346514606F04F
:1040C000E9FA20604046029906F014FD009001993B
:1040D00006F010FD82464946039806F00BFD00905D
:1040E000049906F007FD8346514606F0C3FE606062
:1040F0004946039806F0FEFC0090019906F0FAFC90
:1041000082464046029906F0F5FC0090049906F0BC
:10411000F1FC8346514606F0BDFAA060DDE90210CD
:1041200006F0E8FC0090049906F0E4FC824649465B
:10413000404606F0DFFC0090019906F0DBFC834668
:10414000514606F097FEE06005B0BDE8F08F2DE91E
:10415000FE4F04460D4616461F468DB3A16808461D
:1041600006F0C8FC01906168084606F0C3FC0090A8
:10417000019906F08FFA83464FF0804106F0BAFCB1
:1041800082464FF07E5106F0E3FD8146D4E90201FC
:1041900006F0B0FC8346D4E9000106F0ABFC5946BA
:1041A000019006F077FA82464FF0804106F0A2FCBB
:1041B0004946029004F0C4FE8046FFF79BFC28604D
:1041C000C6B1E168606806F095FC8346A168206886
:1041D00006F090FC5946029006F04CFE82464FF0E5
:1041E000804106F087FC8146FFF70CFC8046FFF714
:1041F00081FC30608FB36168084606F07BFC01905B
:104200002168084606F076FC0090019906F042FA13
:1042100083464FF0804106F06DFC82464FF07E51A0
:1042200006F028FE0290E168206806F063FC8346F1
:10423000D4E9010106F05EFC5946019006F01AFE31
:1042400082464FF0804106F055FC8146029904F009
:1042500077FE8046FFF74EFC3860BDE8FE8F000019
:104260000000E03F00B585B0684602F0D0FF50493D
:104270000098B0FBF1F04F49086005B000BD4E4812
:104280000068401C4C4908604C480088401C4B4961
:10429000088008464088401C488008468088401CAA
:1042A00088800846C088401CC88008460089401C99
:1042B0000881704700BF404801684FF0E0208269E4
:1042C0003D4800688142F6D13A48006800EB40035F
:1042D000C3EBC010C2EBC000364B1B68B0FBF3F061
:1042E00001EB4103C3EBC11300EBC300704730B5D2
:1042F0000446FFF7DFFF054600BFFFF7DBFF401B6B
:10430000A042FAD330BD10B5044603E04FF47A70F2
:10431000FFF7EDFF2000A4F10104F7D110BD70B547
:104320004FF4407001F026FEFFF79CFF2448006820
:104330004FF47A72B0FBF2F1481EB0F1807F00D3E7
:104340001BE0481E4FF0E022506150170F2200285A
:1043500007DA13071D0E1B4B00F00F04241F1D5519
:1043600003E013071C0E184B1C5400BF00204FF035
:10437000E02290610720106100BF00F084FB01F093
:104380001FFCFB220421114801F0DBF945F6C05067
:1043900001F01EFB4FF4165001F0B4FC00F056FD86
:1043A00000F094F802F0C5F900F0CDFA70BD0000FD
:1043B00040420F004C000020500000200C0600205E
:1043C000AC00002018ED00E000E400E098060020BA
:1043D00008B50121084602F07AFF01214FF401706F
:1043E00002F082FF1020ADF8000000208DF80300DD
:1043F0006946614802F0BCFC08BD00B591B05F4859
:1044000002F04EF85E4806905E4807900020089043
:104410000120099000200A9080200B9040000C9011
:1044200080000D9020200E9000020F900020109030
:1044300006A9524802F0D6F80121504802F0FDF8D2
:10444000002001908DF8080001208DF809004FF43C
:10445000602003900020049001208DF8140001A931
:1044600047484C3801F01BFE4FF4404002F0A0FEDC
:1044700005230122042142484C3801F0A8FE012105
:104480003F484C3801F042FE01213D484C3801F0D4
:1044900032FE3B484C3801F050FE00BF38484C38E3
:1044A00001F050FE0028F9D135484C3801F054FE97
:1044B00000BF33484C3801F054FE0028F9D10121E7
:1044C0002F484C3801F057FE11B000BD10B5FFF772
:1044D0007FFFFFF792FF10BD2DE9F84F29480088B4
:1044E00006F0C0FA009006F0A9F80646264A274BC7
:1044F00005F0BCFE04460D462548006806F09EF80F
:104500000646244A244B05F0B1FE804622462B463F
:1045100005F062FD824605F02DFD1D4908604FF053
:104520008B411B48006806F029F9824606F086F8A0
:1045300006464FF06632194B05F098FE8046002281
:104540004FF0804305F092FE044605F013FD144938
:1045500008600846006806F071F804460022114B16
:1045600005F048FE03D201210F48417302E000210B
:104570000D484173BDE8F88F000801400800024073
:104580004C24014054000020FCA9F1D24D62603F50
:1045900058000020560E2DB29DEFEF3F66660A4090
:1045A0005C00002000000C40C000002003460621F3
:1045B0000622F7480188F7480288ABB1012B1BD1CE
:1045C0003AB94EF6EE60814201D1002070470120D9
:1045D000FCE739B94EF6EE60824201D10120F5E7E1
:1045E0000020F3E7AB20F1E709B90020EEE70AB9B4
:1045F0000120EBE7AB20E9E70020E7E770B50426F0
:1046000000240120FFF7D2FF0446AB2C06D1E0487E
:1046100000EB8420E0490860AB2070BDDC4800EB73
:104620008420DD490860601CD949891E01EB802582
:104630000CE0D94800680068401C10B904263046D8
:10464000EBE7D5480068001DD3490860D2480068F0
:10465000A842EED38020E0E710B50424CC4802F055
:10466000ADF80446042C01D0204610BD0021C848F6
:1046700002F0A7F90446042C01D02046F5E7C5480E
:1046800002F09CF804462046EFE72DE9F04104468D
:104690000F4604250026DFF804830120FFF786FF7C
:1046A0000646AB2E01D1BDE8F081701CB849891EC9
:1046B00001EB802821E0B84800680068401CB8B9C8
:1046C0003946B548006802F07CF90546042D01D052
:1046D0002846E8E72146B0480068801C02F071F9DE
:1046E0000546AD480068001DAB4908602846DAE77A
:1046F000A9480068001DA8490860A748006840450F
:10470000D9D38020CFE72DE9F04706460F46002594
:1047100045F255584FF001099D4CA2460020FFF785
:1047200045FF0546AB2D01D1BDE8F087984800EB69
:10473000852A99480068841E0AE0B4F80080B045D4
:1047400005D134F8020C38804FF0000904E0241F32
:104750000AF102008442F0D800BF4846E4E72DE9A0
:10476000F0474FF0060A062600250027A8464FF01E
:10477000FF398748B0F800A0864806885FEA0A003B
:1047800075D0A0F56E40EE3858B3A0F588501138BA
:1047900000286DD146B97E4802F010F80446042C7A
:1047A0001ED02046BDE8F0874EF6EE60864210D15E
:1047B000774802F003F80446042C01D02046F1E7C4
:1047C0000021744802F0FDF80446042C08D020466D
:1047D000E8E7FFF741FF0446042C01D02046E1E75B
:1047E000AEE07EBB002522E06948C0886C4931F804
:1047F0001510884201D10FFA85F94D4515D0684949
:1048000031F815006749FFF77EFF8046B8F1010FC8
:104810000BD0634931F8150062490988FFF735FF6D
:104820000746042F01D03846BCE7681C85B2192D15
:10483000DADB0021564802F0C4F80446042C02D00A
:104840002046AFE707E0534801F0B8FF0446042CC8
:104850001FD02046A6E74FF6FF70864212D14D4882
:1048600001F0ACFF0446042C03D020469AE711E087
:104870005EE00021464802F0A4F80446042C08D06B
:1048800020468FE7FFF7E8FE0446042C01D02046BF
:1048900088E755E036B9FFF7DFFE0446042C46D022
:1048A00020467FE74FF6FF70864207D1394801F076
:1048B00085FF0446042C3AD0204673E7002523E008
:1048C0003448801D0088364931F81510884201D1DE
:1048D0000FFA85F94D4515D0314931F815003149A8
:1048E000FFF711FF8046B8F1010F0BD02C4931F8CA
:1048F00015002C490988FFF7C8FE0746042F01D090
:1049000038464FE7681C85B2192DD9DB00212148B4
:1049100002F057F80446042C01D0204642E71C4818
:1049200001F04CFF0446042C01D020463AE707E092
:10493000FFF792FE0446042C01D0204632E700BF68
:1049400000BF04202EE710B5FFF709FF0446FFF76C
:1049500055FE204610BD2DE9F84F0746894604252F
:10496000DFF830A0AAF1010A094800904FF00008D2
:10497000002400264FF0000B0020FFF717FE8046B2
:10498000B8F1010F10D1DFF808A00248009016E03E
:10499000000001080004010864000020FF0701086E
:1049A00046B0000860000020B8F1000F04D1DFF825
:1049B000C4A03148009002E0AB20BDE8F88F4EF66D
:1049C000EE61504601F0FDFF0546042D01D028465A
:1049D000F3E7FFF713FE49463846FFF756FE064653
:1049E000042E01D03046E8E700241CE0234830F8CC
:1049F0001400B84215D0214931F814002049FFF7BE
:104A000082FE8346BBF1010F0BD01C4931F8140024
:104A10001B490988FFF739FE0646042E01D03046AF
:104A2000CBE7601C84B2192CE0DB009801F0C6FED5
:104A30000546042D01D02846BFE70021504601F06D
:104A4000C0FF0546042D01D02846B6E72846B4E746
:104A500070B505460E46002431462846FFF715FE80
:104A60000446802C04D131462846FFF774FF0446E3
:104A7000204670BD000401080000010846B000088F
:104A800060000020704708B50121082002F02CFCCE
:104A90004020ADF8000003208DF8020014208DF8AE
:104AA00003006946E84802F063F98020ADF8000091
:104AB00003208DF8020014208DF803006946E248B7
:104AC00002F056F908BD704700B501464020DE4AA5
:104AD000143210600846FFF7F6FF8020DA4A1432DD
:104AE00010600846FFF7EFFF4020D74A10321060F1
:104AF0000846FFF7E8FF8020D34A103210600846CE
:104B0000FFF7E1FF00BD00B501464020CE4A143258
:104B100010600846FFF7D7FF8020CB4A10321060A4
:104B20000846FFF7D0FF4020C74A10321060084601
:104B3000FFF7C9FFC4480830006800F0800040B1AA
:104B40004020C14A143210600846FFF7BCFF002025
:104B500000BD4020BC4A143210600846FFF7B3FF86
:104B60000120F5E710B5024608231DE04020B64CB1
:104B7000143420601046FFF7A6FF01F0800018B142
:104B80008020241F206003E08020AF4C143420607C
:104B90004806010E1046FFF796FF4020AA4C10343D
:104BA00020601046FFF78FFF1800A3F10104E3B265
:104BB000DCD14020A44C1434206010BD00B5014667
:104BC0008020A14A10321060402010600846FFF794
:104BD0007AFF9D480830006808B9012000E00020F5
:104BE00000F0800008B1002000BD8020964A1432F9
:104BF00010600846FFF767FF93480830006800F030
:104C0000800008B10020EFE780208F4A1432106046
:104C10000846FFF758FF0120E6E7F0B506460F46C5
:104C200014461D463046FFF7C9FF08B90020F0BD05
:104C300039463046FFF796FF3046FFF764FF20B94C
:104C40003046FFF741FF0020F1E721463046FFF7ED
:104C500089FF3046FFF757FF29463046FFF782FFAE
:104C60003046FFF750FF3046FFF72EFF0120DEE70A
:104C700000B501464020744A143210600846FFF720
:104C800022FF8020704A103210600846FFF71BFF99
:104C900040206D4A103210600846FFF714FF402094
:104CA000694A143210600846FFF70DFF00BD10B5C9
:104CB0000246082300218020634C1034206016E057
:104CC0004806010E4020604C143420601046FFF767
:104CD000FAFE4020241F20601046FFF7F4FE5A48D9
:104CE0000830006800F0800008B141F001011800B0
:104CF000A3F10104E3B2E3D14020534C143420600B
:104D0000084610BDF0B506460C4615463046FFF77E
:104D100055FF08B90020F0BD21463046FFF722FFBD
:104D20003046FFF7F0FE20B93046FFF7CDFE0020F9
:104D3000F1E729463046FFF715FF3046FFF7E3FE5F
:104D40003046FFF73BFF601CC1B23046FFF70AFF59
:104D50003046FFF7D8FE3046FFF7A9FF074630463A
:104D6000FFF786FF3046FFF7AFFE3846D3E700B5C2
:104D700001464020344A143210600846FFF7A3FE73
:104D80008020314A143210600846FFF79CFE402014
:104D90002D4A103210600846FFF795FE40202A4A3F
:104DA000143210600846FFF78EFE00BD2DE9F04377
:104DB00081460E4617461C46DDF81C80B8F1010FEF
:104DC00002DA0020BDE8F0834846FFF7F7FE08B995
:104DD0000020F7E731464846FFF7C4FE4846FFF794
:104DE00092FE20B94846FFF76FFE0020EAE73946F9
:104DF0004846FFF7B7FE4846FFF785FE4846FFF7EF
:104E0000DDFE701CC1B24846FFF7ACFE4846FFF716
:104E10007AFE012509E04846FFF749FF04F8010B37
:104E20004846FFF7A4FF681CC5B24545F3DB48467A
:104E3000FFF73DFF04F8010B4846FFF719FF48460E
:104E4000FFF742FE0120BDE7000C014008B501213B
:104E5000084602F056FA0121C80202F045FA012183
:104E6000102002F041FA4FF4C040ADF800001020CD
:104E70008DF8030003208DF802006946114801F007
:104E800077FF08BD10B504464FF400510D4802F0FD
:104E90001CF810BD10B504464FF48041094802F0DB
:104EA00014F810BD10B504464FF40051054802F047
:104EB0000EF810BD10B504464FF48041014802F0D1
:104EC00006F810BD0010014010B504462046FFF75B
:104ED000D9FD0446A01C04F023FF841E04F1080041
:104EE00004F01EFFA0F1080404F11C0004F0E7FE2A
:104EF000A0F11C0404F1280004F0E1FEA0F1280454
:104F000004F1340004F0DBFEA0F13404204610BDAF
:104F100030B50346C822002007E000BF1400A2F10C
:104F20000105AAB2FAD1441CE0B28842F5DB30BDDB
:104F30002DE9F04107460D4616462A2E15D006DC0F
:104F4000052E0CD00A2E0CD0142E16D10BE0622E9A
:104F50000DD0BC2E0DD0B6F5807F0ED10BE006240F
:104F60000DE005240BE0042409E0032407E00224FB
:104F700005E0012403E0002401E0022400BF00BF9B
:104F800080236B22D0213846FFF747FE05213846A3
:104F9000FFF7BEFF4FF47A7090FBF5F0401E00F073
:104FA000FF0843461922D0213846FFF736FE032377
:104FB0006B22D0213846FFF730FE02233722D02162
:104FC0003846FFF72AFE23461A22D0213846FFF73B
:104FD00024FE18231B22D0213846FFF71EFE102383
:104FE0001C22D0213846FFF718FEBDE8F0812DE9DC
:104FF000F0410446207800286AD0EA48007800F0A2
:10500000010048B9E74803F04DFE28B1E64804F036
:1050100056FEE448AFF30080E448008880B90023DE
:105020001A461946A01C04F080FE00231A461946B1
:10503000DD4804F049FE0120DC490880BDE8F0812C
:1050400004F11C01D84804F057FED8480088C8284D
:1050500039D1D648008805F005FD0646D2490868D2
:10506000314605F08BFB054605F07EFC00B2608002
:10507000CE48008805F0F6FC0646CB494868314624
:1050800005F07CFB054605F06FFC01B2A180C74826
:10509000008805F0E7FC0746C3498868394605F0F3
:1050A0006DFB06464FF08B4105F0E4FE054605F02A
:1050B0005BFC01B2E1800020BC4908802070BC4844
:1050C000FEF721F9BAE7B9480088401CB7490880C3
:1050D00000BFB3E72DE9FC4104463C22D021204625
:1050E000FFF710FEA0733B22D0212046FFF70AFEF7
:1050F000E073A17BE07B41EA00206188401A00B2A6
:10510000ADF800003E22D0212046FFF7FBFD2074C1
:105110003D22D0212046FFF7F5FD6074217C607CA4
:1051200041EA0021A088081A00B2ADF8020040222E
:10513000D0212046FFF7E6FDA0743F22D021204673
:10514000FFF7E0FDE074A17CE07C41EA0021E0880B
:10515000081A00B2ADF80400BDF9040005F06AFCBD
:105160000546BDF9020005F065FC0646BDF90000E4
:1051700005F060FC07462B463246394604F11C0018
:1051800004F0A2FD2046FFF732FFBDE8FC8170B5B8
:105190000446607800286ED08648007800F0010050
:1051A00048B9844803F07EFD28B1834804F087FDA8
:1051B0008048AFF300808148008880B900231A46F8
:1051C000194604F1080004F0B0FD00231A46194600
:1051D000794804F079FD01207849088070BD04F118
:1051E0002801754804F088FD74480088C8283DD11E
:1051F0007248008805F036FC06466F49086831465B
:1052000005F0BCFA054605F0AFFB00B220816B4803
:10521000008805F027FC064667494868314605F0D6
:10522000ADFA054605F0A0FB01B261816348008834
:1052300005F018FC064660498868314605F09EFA7C
:10524000054605F091FB01B2A18100205B49088071
:1052500060705B48007A28B90121594841720120E9
:10526000574908725248FEF766F8B7E75348008876
:10527000401C5249088000BFB0E72DE9FC410446BC
:105280004422D0212046FFF73DFD20754322D02146
:105290002046FFF737FD6075217D607D41EA0020E3
:1052A0002189401A00B2ADF800004622D0212046E4
:1052B000FFF728FDA0754522D0212046FFF722FDEB
:1052C000E075A17DE07D41EA00216089081A00B205
:1052D000ADF802004822D0212046FFF713FD2076CA
:1052E0004722D0212046FFF70DFD6076217E607EAB
:1052F00041EA0021A089081A00B2ADF80400BDF906
:10530000040005F097FB0546BDF9020005F092FB8D
:105310000646BDF9000005F08DFB07462B463246D8
:10532000394604F1280004F0CFFC2046FFF72FFF98
:10533000BDE8FC8110B5D1E90834CA6980E81C00D9
:1053400010BD10B5D1E90B348A6A80E81C0010BD8D
:105350000FB470B505460C461A49069805F0CAFB0D
:105360000646FEF7C0FB60631649079805F0C2FBCE
:105370000646FEF7B8FBA0631249089805F0BAFB91
:105380000646FEF7B0FBE063D4E90E12606B85E8D9
:10539000070070BC5DF814FB10B50B48FFF794FDD7
:1053A00010BD00006C000020580600207000002096
:1053B00046000020740000206406002078000020D1
:1053C000C00000208DC1793D1806002010B50446AC
:1053D00001235822EE212046FFF71FFC10BD7CB5AB
:1053E0000546002001900026002418E002200090CD
:1053F000A02000EB4400C2B201ABEE212846FFF72B
:10540000D5FC3044C6B29DF805009DF8041040EA72
:10541000012105F1100020F81410601CC4B2082C02
:10542000E4DB082E01D101207CBD0020FCE710B593
:10543000044601231E22EE212046FFF7EEFB10BD9D
:1054400010B504460A20FEF75EFF2046FFF7EFFF87
:105450000320FEF758FF2046FFF7C1FF2046FFF765
:10546000B5FF10BD10B5044601234822EE212046A9
:10547000FFF7D3FB10BD38B50446032004F1200329
:105480000022EE2100902046FFF790FC38BD2DE968
:10549000F04F8BB004464FF00008C14694F820004E
:1054A00001042120005D41EA00202221095D08431A
:1054B000A06094F8230001042420005D41EA00204C
:1054C0002521095D0843E060608BA168A1EB002500
:1054D000A08A00040022218B4FEAE57CA1FB05BED7
:1054E00002FB05E301FB0C334FEADB1141EA4361A8
:1054F000401842EBE312CDE90802608A4FEAC0305F
:105500004246E18A4FEAE57CA1FB05BE02FB05E3CA
:1055100001FB0C334FEA1B2141EA0361401842EBC7
:105520002322CDE90602A08B42464FEAE573A0FB99
:10553000051C02FB05C200FB03204FEA402242EAA1
:10554000D1504FF4FA614718B7F5FA6F19DAA7F599
:10555000FA66764306EB86004FEA600806EB8600A3
:105560004FEAA009544887420BDA07F2DC5676432B
:10557000072000FB068806EB460000EBC60009EB9F
:105580006009DDE90801B0EB080061EBE871CDE9E5
:105590000801DDE90601B0EB090061EBE971CDE935
:1055A00006014FF00003E168DDE9062CA1FB020BC8
:1055B00003FB02B201FB0C224FEA505141EAC22C1C
:1055C0004FEA6251DDE90802BCEB000061EB020129
:1055D000C00B40EA414A504605F02CFA3749019089
:1055E00005F0CCF88346364802905846029903F0FD
:1055F00097FE4FF07E51039005F0AAFB31490490CD
:1056000005F078FA059005F0AFF98246606818B1A8
:105610006068AAEB000020602B480078B0B12A48EF
:105620000078401E2849087008460078C82804DA27
:10563000264800685044254908602348007828B966
:1056400022480068C72190FBF1F060600BB0BDE814
:10565000F08F38B50446032004F123030022EE2125
:1056600000902046FFF7A2FB38BD10B5044618484D
:10567000006860B12046FFF7ECFF2046FFF7A6FE6A
:105680002046FFF704FF00201149086008E020468B
:10569000FFF7F1FE2046FFF7E5FE01200C49086008
:1056A00010BD01460868704710B50A4C2046FFF748
:1056B000E9F9044600BF10BD24FAFFFF80E6C547A4
:1056C000B1DC423ED048874A8400002080000020A0
:1056D0007C000020700600202DE9F04105460E46B2
:1056E0001446284600F000FB3146284600F0CAFA6E
:1056F00007462146284600F0C5FA284600F0ECFA95
:105700003846BDE8F0812DE9F04707468846154642
:105710001E46384600F0E8FA4146384600F0B2FA34
:105720008146002405E0295D384600F0ABFA601C94
:10573000C4B2B442F7DB384600F0CEFA4846BDE8C2
:10574000F08770B505460C461646284600F0BCFAB0
:1057500005239C4A2A212846FFF7D5FF05239A4AAC
:1057600030212846FFF7CFFF012221212846FFF7ED
:10577000B3FF012222212846FFF7AEFF1A2224217F
:105780002846FFF7A9FF324625212846FFF7A4FF48
:105790000F2226212846FFF79FFF012C0AD1FF2266
:1057A00031212846FFF798FF0F2220212846FFF7D6
:1057B00093FF51E0022C0AD1FF2231212846FFF746
:1057C0008BFF0E2220212846FFF786FF44E0032CA2
:1057D00021D1FF22E1212846FFF77EFFFF22E221AF
:1057E0002846FFF779FF0F2220212846FFF774FF94
:1057F0005021284600F046FA7321284600F042FA6C
:1058000001223C212846FFF767FF06223D2128465A
:10581000FFF762FF20E00E2220212846FFF75CFF01
:10582000FF22E1212846FFF757FFFF22E221284609
:10583000FFF752FF5021284600F024FA7321284632
:1058400000F020FA01223C212846FFF745FF0622FE
:105850003D212846FFF740FF284600F02DFA70BD95
:1058600070B506460C461546304600F02DFA052365
:10587000554A2A213046FFF746FF2B462246A021F3
:105880003046FFF740FF304600F016FA70BD70B5A5
:1058900006460C461546304600F016FA2B462246C0
:1058A000A8213046FFF72FFF304600F005FA70BD03
:1058B0002DE9F0470746884615461E46384600F053
:1058C00013FA4146384600F0DDF98146002406E02F
:1058D0000021384600F0D6F92855601CC4B2B44205
:1058E000F6DB384600F0F8F94846BDE8F0877CB5AD
:1058F00005460523344A30212846FFF704FF0523D7
:105900006A4610212846FFF7D3FF002408E01DF85F
:1059100004002D49095D884200D003E0601CC4B238
:10592000052CF4DB00BF052C01D101207CBD00203B
:10593000FCE770B504460D46204600F0D5F929462F
:10594000204600F09FF90021204600F09BF9064612
:10595000204600F0C1F9304670BD70B505460721FC
:105960002846FFF7E6FF044604F04000C0B160217E
:105970002846FFF7DEFF0646212E0BDA33462A467D
:1059800061212846FFF794FF324629460F48FAF76F
:10599000C2FC04E0FF22E2212846FFF79DFE00BF83
:1059A00004F0100038B104F0010020B1FF22E12121
:1059B0002846FFF791FE224627212846FFF78CFE56
:1059C00070BD00008A00002085000020D00000206B
:1059D00030B589B0054601210C2001F085FC0F206F
:1059E000ADF8040003208DF8060018208DF807009C
:1059F00001A96D4801F0BCF90320ADF8040001A92C
:105A00006A4801F0B5F900BF0121084601F079FCB0
:105A10004FF47A70684366490968B1FBF0F0401EA4
:105A200084B240F2E730ADF81C00ADF81840002019
:105A3000ADF81E00ADF81A0006A94FF0804001F045
:105A400011FF6020ADF808000120ADF80A00002029
:105A5000ADF80E00ADF8100002A94FF0804001F043
:105A60003EFF0821C80602F089FB02A94FF08040E2
:105A700001F077FF0821C80602F089FB02A94FF068
:105A8000804001F0BBFF0821C80602F08DFB02A98F
:105A90004FF0804001F0FDFF0821C80602F08DFBA9
:105AA0000121880702F03AFB0121880702F036FA4B
:105AB0000121022001F025FC3D4800683D49B0FB72
:105AC000F1F0401E84B240F2E730ADF81C00ADF8B2
:105AD00018400020ADF81E00ADF81A0006A936489F
